{
  "abi": [
    {
      "inputs": [
        {
          "internalType": "address",
          "name": "_dyad",
          "type": "address"
        },
        {
          "internalType": "address",
          "name": "_oracle",
          "type": "address"
        },
        {
          "internalType": "uint256",
          "name": "_maxSupply",
          "type": "uint256"
        },
        {
          "internalType": "uint256",
          "name": "_minTimeBetweenSync",
          "type": "uint256"
        },
        {
          "internalType": "int256",
          "name": "_minMintDyadDeposit",
          "type": "int256"
        },
        {
          "internalType": "address[]",
          "name": "_insiders",
          "type": "address[]"
        }
      ],
      "stateMutability": "nonpayable",
      "type": "constructor"
    },
    {
      "inputs": [
        {
          "internalType": "uint256",
          "name": "id",
          "type": "uint256"
        },
        {
          "internalType": "uint256",
          "name": "syncedBlock",
          "type": "uint256"
        }
      ],
      "name": "AlreadyClaimed",
      "type": "error"
    },
    {
      "inputs": [],
      "name": "AlreadySniped",
      "type": "error"
    },
    {
      "inputs": [],
      "name": "CannotSnipeSelf",
      "type": "error"
    },
    {
      "inputs": [
        {
          "internalType": "uint256",
          "name": "cr",
          "type": "uint256"
        }
      ],
      "name": "CrTooLow",
      "type": "error"
    },
    {
      "inputs": [
        {
          "internalType": "uint256",
          "name": "id",
          "type": "uint256"
        }
      ],
      "name": "DNftDoesNotExist",
      "type": "error"
    },
    {
      "inputs": [],
      "name": "DepositIsNegative",
      "type": "error"
    },
    {
      "inputs": [],
      "name": "DepositTooLow",
      "type": "error"
    },
    {
      "inputs": [],
      "name": "DepositedInSameBlock",
      "type": "error"
    },
    {
      "inputs": [],
      "name": "DyadTotalSupplyZero",
      "type": "error"
    },
    {
      "inputs": [],
      "name": "EthPriceUnchanged",
      "type": "error"
    },
    {
      "inputs": [
        {
          "internalType": "uint256",
          "name": "averageTVL",
          "type": "uint256"
        }
      ],
      "name": "ExceedsAverageTVL",
      "type": "error"
    },
    {
      "inputs": [
        {
          "internalType": "int256",
          "name": "deposit",
          "type": "int256"
        }
      ],
      "name": "ExceedsDeposit",
      "type": "error"
    },
    {
      "inputs": [
        {
          "internalType": "uint256",
          "name": "amount",
          "type": "uint256"
        }
      ],
      "name": "ExceedsWithdrawal",
      "type": "error"
    },
    {
      "inputs": [
        {
          "internalType": "uint256",
          "name": "id",
          "type": "uint256"
        }
      ],
      "name": "IsActive",
      "type": "error"
    },
    {
      "inputs": [
        {
          "internalType": "uint256",
          "name": "id",
          "type": "uint256"
        }
      ],
      "name": "IsInactive",
      "type": "error"
    },
    {
      "inputs": [],
      "name": "MaxSupply",
      "type": "error"
    },
    {
      "inputs": [
        {
          "internalType": "uint256",
          "name": "id",
          "type": "uint256"
        },
        {
          "internalType": "enum DNft.Permission",
          "name": "permission",
          "type": "uint8"
        }
      ],
      "name": "MissingPermission",
      "type": "error"
    },
    {
      "inputs": [],
      "name": "NotLiquidatable",
      "type": "error"
    },
    {
      "inputs": [
        {
          "internalType": "uint256",
          "name": "id",
          "type": "uint256"
        }
      ],
      "name": "NotNFTOwner",
      "type": "error"
    },
    {
      "inputs": [],
      "name": "SyncTooSoon",
      "type": "error"
    },
    {
      "inputs": [
        {
          "internalType": "uint256",
          "name": "id",
          "type": "uint256"
        }
      ],
      "name": "WithdrawalsNotZero",
      "type": "error"
    },
    {
      "anonymous": false,
      "inputs": [
        {
          "indexed": false,
          "internalType": "uint256",
          "name": "id",
          "type": "uint256"
        }
      ],
      "name": "Activated",
      "type": "event"
    },
    {
      "anonymous": false,
      "inputs": [
        {
          "indexed": true,
          "internalType": "uint256",
          "name": "id",
          "type": "uint256"
        },
        {
          "indexed": false,
          "internalType": "int256",
          "name": "amount",
          "type": "int256"
        }
      ],
      "name": "AddedDeposit",
      "type": "event"
    },
    {
      "anonymous": false,
      "inputs": [
        {
          "indexed": true,
          "internalType": "uint256",
          "name": "id",
          "type": "uint256"
        },
        {
          "indexed": false,
          "internalType": "uint256",
          "name": "amount",
          "type": "uint256"
        }
      ],
      "name": "AddedXp",
      "type": "event"
    },
    {
      "anonymous": false,
      "inputs": [
        {
          "indexed": true,
          "internalType": "address",
          "name": "owner",
          "type": "address"
        },
        {
          "indexed": true,
          "internalType": "address",
          "name": "approved",
          "type": "address"
        },
        {
          "indexed": true,
          "internalType": "uint256",
          "name": "tokenId",
          "type": "uint256"
        }
      ],
      "name": "Approval",
      "type": "event"
    },
    {
      "anonymous": false,
      "inputs": [
        {
          "indexed": true,
          "internalType": "address",
          "name": "owner",
          "type": "address"
        },
        {
          "indexed": true,
          "internalType": "address",
          "name": "operator",
          "type": "address"
        },
        {
          "indexed": false,
          "internalType": "bool",
          "name": "approved",
          "type": "bool"
        }
      ],
      "name": "ApprovalForAll",
      "type": "event"
    },
    {
      "anonymous": false,
      "inputs": [
        {
          "indexed": true,
          "internalType": "uint256",
          "name": "id",
          "type": "uint256"
        },
        {
          "indexed": false,
          "internalType": "int256",
          "name": "share",
          "type": "int256"
        }
      ],
      "name": "Claimed",
      "type": "event"
    },
    {
      "anonymous": false,
      "inputs": [
        {
          "indexed": false,
          "internalType": "uint256",
          "name": "id",
          "type": "uint256"
        }
      ],
      "name": "Deactivated",
      "type": "event"
    },
    {
      "anonymous": false,
      "inputs": [
        {
          "indexed": true,
          "internalType": "uint256",
          "name": "id",
          "type": "uint256"
        },
        {
          "indexed": false,
          "internalType": "uint256",
          "name": "amount",
          "type": "uint256"
        }
      ],
      "name": "Deposited",
      "type": "event"
    },
    {
      "anonymous": false,
      "inputs": [
        {
          "indexed": true,
          "internalType": "uint256",
          "name": "id",
          "type": "uint256"
        },
        {
          "indexed": false,
          "internalType": "int256",
          "name": "amount",
          "type": "int256"
        }
      ],
      "name": "Exchanged",
      "type": "event"
    },
    {
      "anonymous": false,
      "inputs": [
        {
          "indexed": true,
          "internalType": "address",
          "name": "to",
          "type": "address"
        },
        {
          "indexed": true,
          "internalType": "uint256",
          "name": "id",
          "type": "uint256"
        }
      ],
      "name": "Liquidated",
      "type": "event"
    },
    {
      "anonymous": false,
      "inputs": [
        {
          "indexed": true,
          "internalType": "address",
          "name": "to",
          "type": "address"
        },
        {
          "indexed": true,
          "internalType": "uint256",
          "name": "id",
          "type": "uint256"
        }
      ],
      "name": "Minted",
      "type": "event"
    },
    {
      "anonymous": false,
      "inputs": [
        {
          "indexed": true,
          "internalType": "uint256",
          "name": "id",
          "type": "uint256"
        },
        {
          "components": [
            {
              "internalType": "address",
              "name": "operator",
              "type": "address"
            },
            {
              "internalType": "enum DNft.Permission[]",
              "name": "permissions",
              "type": "uint8[]"
            }
          ],
          "indexed": false,
          "internalType": "struct DNft.PermissionSet[]",
          "name": "permissions",
          "type": "tuple[]"
        }
      ],
      "name": "Modified",
      "type": "event"
    },
    {
      "anonymous": false,
      "inputs": [
        {
          "indexed": true,
          "internalType": "uint256",
          "name": "from",
          "type": "uint256"
        },
        {
          "indexed": true,
          "internalType": "uint256",
          "name": "to",
          "type": "uint256"
        },
        {
          "indexed": false,
          "internalType": "int256",
          "name": "amount",
          "type": "int256"
        }
      ],
      "name": "Moved",
      "type": "event"
    },
    {
      "anonymous": false,
      "inputs": [
        {
          "indexed": true,
          "internalType": "address",
          "name": "to",
          "type": "address"
        },
        {
          "indexed": true,
          "internalType": "uint256",
          "name": "id",
          "type": "uint256"
        },
        {
          "indexed": false,
          "internalType": "uint256",
          "name": "amount",
          "type": "uint256"
        }
      ],
      "name": "Redeemed",
      "type": "event"
    },
    {
      "anonymous": false,
      "inputs": [
        {
          "indexed": true,
          "internalType": "uint256",
          "name": "from",
          "type": "uint256"
        },
        {
          "indexed": true,
          "internalType": "uint256",
          "name": "to",
          "type": "uint256"
        },
        {
          "indexed": false,
          "internalType": "int256",
          "name": "share",
          "type": "int256"
        }
      ],
      "name": "Sniped",
      "type": "event"
    },
    {
      "anonymous": false,
      "inputs": [
        {
          "indexed": false,
          "internalType": "uint256",
          "name": "id",
          "type": "uint256"
        }
      ],
      "name": "Synced",
      "type": "event"
    },
    {
      "anonymous": false,
      "inputs": [
        {
          "indexed": true,
          "internalType": "address",
          "name": "from",
          "type": "address"
        },
        {
          "indexed": true,
          "internalType": "address",
          "name": "to",
          "type": "address"
        },
        {
          "indexed": true,
          "internalType": "uint256",
          "name": "tokenId",
          "type": "uint256"
        }
      ],
      "name": "Transfer",
      "type": "event"
    },
    {
      "anonymous": false,
      "inputs": [
        {
          "indexed": true,
          "internalType": "uint256",
          "name": "from",
          "type": "uint256"
        },
        {
          "indexed": true,
          "internalType": "address",
          "name": "to",
          "type": "address"
        },
        {
          "indexed": false,
          "internalType": "uint256",
          "name": "amount",
          "type": "uint256"
        }
      ],
      "name": "Withdrawn",
      "type": "event"
    },
    {
      "inputs": [],
      "name": "MAX_SUPPLY",
      "outputs": [
        {
          "internalType": "uint256",
          "name": "",
          "type": "uint256"
        }
      ],
      "stateMutability": "view",
      "type": "function"
    },
    {
      "inputs": [],
      "name": "MIN_COLLATERIZATION_RATIO",
      "outputs": [
        {
          "internalType": "uint256",
          "name": "",
          "type": "uint256"
        }
      ],
      "stateMutability": "view",
      "type": "function"
    },
    {
      "inputs": [],
      "name": "MIN_MINT_DYAD_DEPOSIT",
      "outputs": [
        {
          "internalType": "int256",
          "name": "",
          "type": "int256"
        }
      ],
      "stateMutability": "view",
      "type": "function"
    },
    {
      "inputs": [],
      "name": "MIN_TIME_BETWEEN_SYNC",
      "outputs": [
        {
          "internalType": "uint256",
          "name": "",
          "type": "uint256"
        }
      ],
      "stateMutability": "view",
      "type": "function"
    },
    {
      "inputs": [],
      "name": "SNIPE_MINT_SHARE_REWARD",
      "outputs": [
        {
          "internalType": "int256",
          "name": "",
          "type": "int256"
        }
      ],
      "stateMutability": "view",
      "type": "function"
    },
    {
      "inputs": [],
      "name": "XP_CLAIM_REWARD",
      "outputs": [
        {
          "internalType": "uint256",
          "name": "",
          "type": "uint256"
        }
      ],
      "stateMutability": "view",
      "type": "function"
    },
    {
      "inputs": [],
      "name": "XP_LIQUIDATION_REWARD",
      "outputs": [
        {
          "internalType": "uint256",
          "name": "",
          "type": "uint256"
        }
      ],
      "stateMutability": "view",
      "type": "function"
    },
    {
      "inputs": [],
      "name": "XP_MINT_REWARD",
      "outputs": [
        {
          "internalType": "uint256",
          "name": "",
          "type": "uint256"
        }
      ],
      "stateMutability": "view",
      "type": "function"
    },
    {
      "inputs": [],
      "name": "XP_SNIPE_BURN_REWARD",
      "outputs": [
        {
          "internalType": "uint256",
          "name": "",
          "type": "uint256"
        }
      ],
      "stateMutability": "view",
      "type": "function"
    },
    {
      "inputs": [],
      "name": "XP_SNIPE_MINT_REWARD",
      "outputs": [
        {
          "internalType": "uint256",
          "name": "",
          "type": "uint256"
        }
      ],
      "stateMutability": "view",
      "type": "function"
    },
    {
      "inputs": [],
      "name": "XP_SYNC_REWARD",
      "outputs": [
        {
          "internalType": "uint256",
          "name": "",
          "type": "uint256"
        }
      ],
      "stateMutability": "view",
      "type": "function"
    },
    {
      "inputs": [
        {
          "internalType": "uint256",
          "name": "id",
          "type": "uint256"
        }
      ],
      "name": "activate",
      "outputs": [],
      "stateMutability": "nonpayable",
      "type": "function"
    },
    {
      "inputs": [
        {
          "internalType": "address",
          "name": "to",
          "type": "address"
        },
        {
          "internalType": "uint256",
          "name": "tokenId",
          "type": "uint256"
        }
      ],
      "name": "approve",
      "outputs": [],
      "stateMutability": "nonpayable",
      "type": "function"
    },
    {
      "inputs": [
        {
          "internalType": "address",
          "name": "owner",
          "type": "address"
        }
      ],
      "name": "balanceOf",
      "outputs": [
        {
          "internalType": "uint256",
          "name": "",
          "type": "uint256"
        }
      ],
      "stateMutability": "view",
      "type": "function"
    },
    {
      "inputs": [
        {
          "internalType": "uint256",
          "name": "id",
          "type": "uint256"
        }
      ],
      "name": "claim",
      "outputs": [
        {
          "internalType": "int256",
          "name": "",
          "type": "int256"
        }
      ],
      "stateMutability": "nonpayable",
      "type": "function"
    },
    {
      "inputs": [
        {
          "internalType": "uint256",
          "name": "id",
          "type": "uint256"
        }
      ],
      "name": "deactivate",
      "outputs": [],
      "stateMutability": "nonpayable",
      "type": "function"
    },
    {
      "inputs": [
        {
          "internalType": "uint256",
          "name": "id",
          "type": "uint256"
        },
        {
          "internalType": "uint256",
          "name": "amount",
          "type": "uint256"
        }
      ],
      "name": "deposit",
      "outputs": [],
      "stateMutability": "nonpayable",
      "type": "function"
    },
    {
      "inputs": [],
      "name": "dyad",
      "outputs": [
        {
          "internalType": "contract Dyad",
          "name": "",
          "type": "address"
        }
      ],
      "stateMutability": "view",
      "type": "function"
    },
    {
      "inputs": [],
      "name": "dyadDelta",
      "outputs": [
        {
          "internalType": "int256",
          "name": "",
          "type": "int256"
        }
      ],
      "stateMutability": "view",
      "type": "function"
    },
    {
      "inputs": [],
      "name": "ethPrice",
      "outputs": [
        {
          "internalType": "int256",
          "name": "",
          "type": "int256"
        }
      ],
      "stateMutability": "view",
      "type": "function"
    },
    {
      "inputs": [
        {
          "internalType": "uint256",
          "name": "id",
          "type": "uint256"
        }
      ],
      "name": "exchange",
      "outputs": [
        {
          "internalType": "int256",
          "name": "",
          "type": "int256"
        }
      ],
      "stateMutability": "payable",
      "type": "function"
    },
    {
      "inputs": [
        {
          "internalType": "uint256",
          "name": "tokenId",
          "type": "uint256"
        }
      ],
      "name": "getApproved",
      "outputs": [
        {
          "internalType": "address",
          "name": "",
          "type": "address"
        }
      ],
      "stateMutability": "view",
      "type": "function"
    },
    {
      "inputs": [
        {
          "internalType": "uint256",
          "name": "_id",
          "type": "uint256"
        },
        {
          "components": [
            {
              "internalType": "address",
              "name": "operator",
              "type": "address"
            },
            {
              "internalType": "enum DNft.Permission[]",
              "name": "permissions",
              "type": "uint8[]"
            }
          ],
          "internalType": "struct DNft.PermissionSet[]",
          "name": "_permissionSets",
          "type": "tuple[]"
        }
      ],
      "name": "grant",
      "outputs": [],
      "stateMutability": "nonpayable",
      "type": "function"
    },
    {
      "inputs": [
        {
          "internalType": "uint256",
          "name": "id",
          "type": "uint256"
        },
        {
          "internalType": "address",
          "name": "operator",
          "type": "address"
        },
        {
          "internalType": "enum DNft.Permission",
          "name": "permission",
          "type": "uint8"
        }
      ],
      "name": "hasPermission",
      "outputs": [
        {
          "internalType": "bool",
          "name": "",
          "type": "bool"
        }
      ],
      "stateMutability": "view",
      "type": "function"
    },
    {
      "inputs": [
        {
          "internalType": "uint256",
          "name": "id",
          "type": "uint256"
        },
        {
          "internalType": "address",
          "name": "operator",
          "type": "address"
        },
        {
          "internalType": "enum DNft.Permission[]",
          "name": "permissions",
          "type": "uint8[]"
        }
      ],
      "name": "hasPermissions",
      "outputs": [
        {
          "internalType": "bool[]",
          "name": "_hasPermissions",
          "type": "bool[]"
        }
      ],
      "stateMutability": "view",
      "type": "function"
    },
    {
      "inputs": [
        {
          "internalType": "uint256",
          "name": "",
          "type": "uint256"
        },
        {
          "internalType": "uint256",
          "name": "",
          "type": "uint256"
        }
      ],
      "name": "idToClaimed",
      "outputs": [
        {
          "internalType": "bool",
          "name": "",
          "type": "bool"
        }
      ],
      "stateMutability": "view",
      "type": "function"
    },
    {
      "inputs": [
        {
          "internalType": "uint256",
          "name": "",
          "type": "uint256"
        }
      ],
      "name": "idToLastDeposit",
      "outputs": [
        {
          "internalType": "uint256",
          "name": "",
          "type": "uint256"
        }
      ],
      "stateMutability": "view",
      "type": "function"
    },
    {
      "inputs": [
        {
          "internalType": "uint256",
          "name": "",
          "type": "uint256"
        }
      ],
      "name": "idToNft",
      "outputs": [
        {
          "internalType": "uint256",
          "name": "xp",
          "type": "uint256"
        },
        {
          "internalType": "int256",
          "name": "deposit",
          "type": "int256"
        },
        {
          "internalType": "uint256",
          "name": "withdrawal",
          "type": "uint256"
        },
        {
          "internalType": "uint256",
          "name": "lastOwnershipChange",
          "type": "uint256"
        },
        {
          "internalType": "bool",
          "name": "isActive",
          "type": "bool"
        }
      ],
      "stateMutability": "view",
      "type": "function"
    },
    {
      "inputs": [
        {
          "internalType": "uint256",
          "name": "",
          "type": "uint256"
        },
        {
          "internalType": "address",
          "name": "",
          "type": "address"
        }
      ],
      "name": "idToNftPermission",
      "outputs": [
        {
          "internalType": "uint8",
          "name": "permissions",
          "type": "uint8"
        },
        {
          "internalType": "uint248",
          "name": "lastUpdated",
          "type": "uint248"
        }
      ],
      "stateMutability": "view",
      "type": "function"
    },
    {
      "inputs": [
        {
          "internalType": "address",
          "name": "owner",
          "type": "address"
        },
        {
          "internalType": "address",
          "name": "operator",
          "type": "address"
        }
      ],
      "name": "isApprovedForAll",
      "outputs": [
        {
          "internalType": "bool",
          "name": "",
          "type": "bool"
        }
      ],
      "stateMutability": "view",
      "type": "function"
    },
    {
      "inputs": [
        {
          "internalType": "uint256",
          "name": "id",
          "type": "uint256"
        },
        {
          "internalType": "address",
          "name": "to",
          "type": "address"
        }
      ],
      "name": "liquidate",
      "outputs": [],
      "stateMutability": "payable",
      "type": "function"
    },
    {
      "inputs": [],
      "name": "maxXp",
      "outputs": [
        {
          "internalType": "uint256",
          "name": "",
          "type": "uint256"
        }
      ],
      "stateMutability": "view",
      "type": "function"
    },
    {
      "inputs": [
        {
          "internalType": "address",
          "name": "to",
          "type": "address"
        }
      ],
      "name": "mint",
      "outputs": [
        {
          "internalType": "uint256",
          "name": "",
          "type": "uint256"
        }
      ],
      "stateMutability": "payable",
      "type": "function"
    },
    {
      "inputs": [
        {
          "internalType": "uint256",
          "name": "_from",
          "type": "uint256"
        },
        {
          "internalType": "uint256",
          "name": "_to",
          "type": "uint256"
        },
        {
          "internalType": "int256",
          "name": "amount",
          "type": "int256"
        }
      ],
      "name": "move",
      "outputs": [],
      "stateMutability": "nonpayable",
      "type": "function"
    },
    {
      "inputs": [],
      "name": "name",
      "outputs": [
        {
          "internalType": "string",
          "name": "",
          "type": "string"
        }
      ],
      "stateMutability": "view",
      "type": "function"
    },
    {
      "inputs": [
        {
          "internalType": "uint256",
          "name": "tokenId",
          "type": "uint256"
        }
      ],
      "name": "ownerOf",
      "outputs": [
        {
          "internalType": "address",
          "name": "",
          "type": "address"
        }
      ],
      "stateMutability": "view",
      "type": "function"
    },
    {
      "inputs": [],
      "name": "prevDyadDelta",
      "outputs": [
        {
          "internalType": "int256",
          "name": "",
          "type": "int256"
        }
      ],
      "stateMutability": "view",
      "type": "function"
    },
    {
      "inputs": [],
      "name": "prevSyncedBlock",
      "outputs": [
        {
          "internalType": "uint256",
          "name": "",
          "type": "uint256"
        }
      ],
      "stateMutability": "view",
      "type": "function"
    },
    {
      "inputs": [
        {
          "internalType": "uint256",
          "name": "from",
          "type": "uint256"
        },
        {
          "internalType": "address",
          "name": "to",
          "type": "address"
        },
        {
          "internalType": "uint256",
          "name": "amount",
          "type": "uint256"
        }
      ],
      "name": "redeem",
      "outputs": [
        {
          "internalType": "uint256",
          "name": "",
          "type": "uint256"
        }
      ],
      "stateMutability": "nonpayable",
      "type": "function"
    },
    {
      "inputs": [
        {
          "internalType": "address",
          "name": "from",
          "type": "address"
        },
        {
          "internalType": "address",
          "name": "to",
          "type": "address"
        },
        {
          "internalType": "uint256",
          "name": "tokenId",
          "type": "uint256"
        }
      ],
      "name": "safeTransferFrom",
      "outputs": [],
      "stateMutability": "nonpayable",
      "type": "function"
    },
    {
      "inputs": [
        {
          "internalType": "address",
          "name": "from",
          "type": "address"
        },
        {
          "internalType": "address",
          "name": "to",
          "type": "address"
        },
        {
          "internalType": "uint256",
          "name": "tokenId",
          "type": "uint256"
        },
        {
          "internalType": "bytes",
          "name": "data",
          "type": "bytes"
        }
      ],
      "name": "safeTransferFrom",
      "outputs": [],
      "stateMutability": "nonpayable",
      "type": "function"
    },
    {
      "inputs": [
        {
          "internalType": "address",
          "name": "operator",
          "type": "address"
        },
        {
          "internalType": "bool",
          "name": "approved",
          "type": "bool"
        }
      ],
      "name": "setApprovalForAll",
      "outputs": [],
      "stateMutability": "nonpayable",
      "type": "function"
    },
    {
      "inputs": [
        {
          "internalType": "uint256",
          "name": "_from",
          "type": "uint256"
        },
        {
          "internalType": "uint256",
          "name": "_to",
          "type": "uint256"
        }
      ],
      "name": "snipe",
      "outputs": [
        {
          "internalType": "int256",
          "name": "",
          "type": "int256"
        }
      ],
      "stateMutability": "nonpayable",
      "type": "function"
    },
    {
      "inputs": [
        {
          "internalType": "bytes4",
          "name": "interfaceId",
          "type": "bytes4"
        }
      ],
      "name": "supportsInterface",
      "outputs": [
        {
          "internalType": "bool",
          "name": "",
          "type": "bool"
        }
      ],
      "stateMutability": "view",
      "type": "function"
    },
    {
      "inputs": [],
      "name": "symbol",
      "outputs": [
        {
          "internalType": "string",
          "name": "",
          "type": "string"
        }
      ],
      "stateMutability": "view",
      "type": "function"
    },
    {
      "inputs": [
        {
          "internalType": "uint256",
          "name": "id",
          "type": "uint256"
        }
      ],
      "name": "sync",
      "outputs": [
        {
          "internalType": "int256",
          "name": "",
          "type": "int256"
        }
      ],
      "stateMutability": "nonpayable",
      "type": "function"
    },
    {
      "inputs": [],
      "name": "syncedBlock",
      "outputs": [
        {
          "internalType": "uint256",
          "name": "",
          "type": "uint256"
        }
      ],
      "stateMutability": "view",
      "type": "function"
    },
    {
      "inputs": [],
      "name": "timeOfSync",
      "outputs": [
        {
          "internalType": "uint256",
          "name": "",
          "type": "uint256"
        }
      ],
      "stateMutability": "view",
      "type": "function"
    },
    {
      "inputs": [
        {
          "internalType": "uint256",
          "name": "index",
          "type": "uint256"
        }
      ],
      "name": "tokenByIndex",
      "outputs": [
        {
          "internalType": "uint256",
          "name": "",
          "type": "uint256"
        }
      ],
      "stateMutability": "view",
      "type": "function"
    },
    {
      "inputs": [
        {
          "internalType": "address",
          "name": "owner",
          "type": "address"
        },
        {
          "internalType": "uint256",
          "name": "index",
          "type": "uint256"
        }
      ],
      "name": "tokenOfOwnerByIndex",
      "outputs": [
        {
          "internalType": "uint256",
          "name": "",
          "type": "uint256"
        }
      ],
      "stateMutability": "view",
      "type": "function"
    },
    {
      "inputs": [
        {
          "internalType": "uint256",
          "name": "tokenId",
          "type": "uint256"
        }
      ],
      "name": "tokenURI",
      "outputs": [
        {
          "internalType": "string",
          "name": "",
          "type": "string"
        }
      ],
      "stateMutability": "view",
      "type": "function"
    },
    {
      "inputs": [],
      "name": "totalDeposit",
      "outputs": [
        {
          "internalType": "int256",
          "name": "",
          "type": "int256"
        }
      ],
      "stateMutability": "view",
      "type": "function"
    },
    {
      "inputs": [],
      "name": "totalSupply",
      "outputs": [
        {
          "internalType": "uint256",
          "name": "",
          "type": "uint256"
        }
      ],
      "stateMutability": "view",
      "type": "function"
    },
    {
      "inputs": [],
      "name": "totalXp",
      "outputs": [
        {
          "internalType": "uint256",
          "name": "",
          "type": "uint256"
        }
      ],
      "stateMutability": "view",
      "type": "function"
    },
    {
      "inputs": [
        {
          "internalType": "address",
          "name": "from",
          "type": "address"
        },
        {
          "internalType": "address",
          "name": "to",
          "type": "address"
        },
        {
          "internalType": "uint256",
          "name": "tokenId",
          "type": "uint256"
        }
      ],
      "name": "transferFrom",
      "outputs": [],
      "stateMutability": "nonpayable",
      "type": "function"
    },
    {
      "inputs": [
        {
          "internalType": "uint256",
          "name": "from",
          "type": "uint256"
        },
        {
          "internalType": "address",
          "name": "to",
          "type": "address"
        },
        {
          "internalType": "uint256",
          "name": "amount",
          "type": "uint256"
        }
      ],
      "name": "withdraw",
      "outputs": [
        {
          "internalType": "uint256",
          "name": "",
          "type": "uint256"
        }
      ],
      "stateMutability": "nonpayable",
      "type": "function"
    }
  ],
  "bytecode": {
    "object": "0x60e06040526001600a553480156200001657600080fd5b50604051620056da380380620056da8339810160408190526200003991620009c5565b60405180604001604052806008815260200167111e58590813919560c21b815250604051806040016040528060048152602001631913919560e21b815250816000908162000088919062000b6b565b50600162000097828262000b6b565b5050601880546001600160a01b03808a166001600160a01b031992831617909255601980549289169290911691909117905550608084905260a083905260c0829052620000e362000192565b600b5560005b81518110156200018557600080620001238484815181106200010f576200010f62000c37565b60200260200101516200020d60201b60201c565b6000918252601460209081526040928390208251815590820151600182015591810151600283015560608101516003830155608001516004909101805460ff1916911515919091179055508190506200017c8162000c63565b915050620000e9565b5050505050505062000d34565b60195460408051633fabe5a360e21b815290516000926001600160a01b03169163feaf968c9160048083019260a09291908290030181865afa158015620001dd573d6000803e3d6000fd5b505050506040513d601f19601f8201168201806040525081019062000203919062000c97565b5091949350505050565b6000620002446040518060a00160405280600081526020016000815260200160008152602001600081526020016000151581525090565b60006200025060085490565b905060805181106200027557604051632cdb04a160e21b815260040160405180910390fd5b62000281848262000305565b620002b66040518060a00160405280600081526020016000815260200160008152602001600081526020016000151581525090565b620002c582826103e8620004aa565b60405182906001600160a01b038716907f30385c845b448a36257a6a1716e6ad2e1bc2cbe333cde1e69fe849ad6511adfe90600090a39094909350915050565b6001600160a01b038216620003615760405162461bcd60e51b815260206004820181905260248201527f4552433732313a206d696e7420746f20746865207a65726f206164647265737360448201526064015b60405180910390fd5b6000818152600260205260409020546001600160a01b031615620003c85760405162461bcd60e51b815260206004820152601c60248201527f4552433732313a20746f6b656e20616c7265616479206d696e74656400000000604482015260640162000358565b620003d860008383600162000526565b6000818152600260205260409020546001600160a01b0316156200043f5760405162461bcd60e51b815260206004820152601c60248201527f4552433732313a20746f6b656e20616c7265616479206d696e74656400000000604482015260640162000358565b6001600160a01b038216600081815260036020908152604080832080546001019055848352600290915280822080546001600160a01b0319168417905551839291907fddf252ad1be2c89b69c2b068fc378daa952ba7f163c4a11628f55a4df523b3ef908290a45050565b8082600001818151620004be919062000cec565b90525060135482511115620004d35781516013555b8060126000828254620004e7919062000cec565b909155505060405181815283907f7c443111027f2425221a6550e9f6ea29c61b8b3ea987c6d72cd6074de121dad99060200160405180910390a2505050565b6200053f848484846200055f60201b62002af91760201c565b506000908152601460205260409020436003909101555050565b50505050565b6200057884848484620006c360201b62002c391760201c565b6001811115620005f15760405162461bcd60e51b815260206004820152603560248201527f455243373231456e756d657261626c653a20636f6e736563757469766520747260448201527f616e7366657273206e6f7420737570706f727465640000000000000000000000606482015260840162000358565b816001600160a01b03851662000650576200064a81600880546000838152600960205260408120829055600182018355919091527ff3f7a9fe364faab93b216da50a3214154f22a0a2b415b23a84c8169e8b636ee30155565b62000676565b836001600160a01b0316856001600160a01b031614620006765762000676858262000752565b6001600160a01b03841662000696576200069081620007ff565b620006bc565b846001600160a01b0316846001600160a01b031614620006bc57620006bc8482620008b9565b5050505050565b600181111562000559576001600160a01b038416156200070d576001600160a01b038416600090815260036020526040812080548392906200070790849062000d08565b90915550505b6001600160a01b0383161562000559576001600160a01b038316600090815260036020526040812080548392906200074790849062000cec565b909155505050505050565b600060016200076c846200090a60201b6200183c1760201c565b62000778919062000d08565b600083815260076020526040902054909150808214620007cc576001600160a01b03841660009081526006602090815260408083208584528252808320548484528184208190558352600790915290208190555b5060009182526007602090815260408084208490556001600160a01b039094168352600681528383209183525290812055565b600854600090620008139060019062000d08565b600083815260096020526040812054600880549394509092849081106200083e576200083e62000c37565b90600052602060002001549050806008838154811062000862576200086262000c37565b60009182526020808320909101929092558281526009909152604080822084905585825281205560088054806200089d576200089d62000d1e565b6001900381819060005260206000200160009055905550505050565b6000620008d1836200090a60201b6200183c1760201c565b6001600160a01b039093166000908152600660209081526040808320868452825280832085905593825260079052919091209190915550565b60006001600160a01b038216620009765760405162461bcd60e51b815260206004820152602960248201527f4552433732313a2061646472657373207a65726f206973206e6f7420612076616044820152683634b21037bbb732b960b91b606482015260840162000358565b506001600160a01b031660009081526003602052604090205490565b80516001600160a01b0381168114620009aa57600080fd5b919050565b634e487b7160e01b600052604160045260246000fd5b60008060008060008060c08789031215620009df57600080fd5b620009ea8762000992565b95506020620009fb81890162000992565b604089015160608a015160808b015160a08c0151939950919750955093506001600160401b038082111562000a2f57600080fd5b818a0191508a601f83011262000a4457600080fd5b81518181111562000a595762000a59620009af565b8060051b604051601f19603f8301168101818110858211171562000a815762000a81620009af565b60405291825284820192508381018501918d83111562000aa057600080fd5b938501935b8285101562000ac95762000ab98562000992565b8452938501939285019262000aa5565b8096505050505050509295509295509295565b600181811c9082168062000af157607f821691505b60208210810362000b1257634e487b7160e01b600052602260045260246000fd5b50919050565b601f82111562000b6657600081815260208120601f850160051c8101602086101562000b415750805b601f850160051c820191505b8181101562000b625782815560010162000b4d565b5050505b505050565b81516001600160401b0381111562000b875762000b87620009af565b62000b9f8162000b98845462000adc565b8462000b18565b602080601f83116001811462000bd7576000841562000bbe5750858301515b600019600386901b1c1916600185901b17855562000b62565b600085815260208120601f198616915b8281101562000c085788860151825594840194600190910190840162000be7565b508582101562000c275787850151600019600388901b60f8161c191681555b5050505050600190811b01905550565b634e487b7160e01b600052603260045260246000fd5b634e487b7160e01b600052601160045260246000fd5b60006001820162000c785762000c7862000c4d565b5060010190565b80516001600160501b0381168114620009aa57600080fd5b600080600080600060a0868803121562000cb057600080fd5b62000cbb8662000c7f565b945060208601519350604086015192506060860151915062000ce06080870162000c7f565b90509295509295909350565b8082018082111562000d025762000d0262000c4d565b92915050565b8181038181111562000d025762000d0262000c4d565b634e487b7160e01b600052603160045260246000fd5b60805160a05160c05161496162000d7960003960008181610648015261178801526000818161046e0152611ce301526000818161056c015261344001526149616000f3fe60806040526004361061036b5760003560e01c80636220347e116101c6578063bc1ac5bb116100f7578063e2bbb15811610095578063e985e9c51161006f578063e985e9c514610a82578063f6153ccd14610acb578063febb16df14610ae1578063ff186b2e14610af757600080fd5b8063e2bbb15814610a2c578063e63697c814610a4c578063e644669114610a6c57600080fd5b8063d4912507116100d1578063d4912507146109c0578063d8780161146109d6578063de1eecb3146109f6578063decb84dc14610a1657600080fd5b8063bc1ac5bb14610970578063c784cbe614610986578063c87b56dd146109a057600080fd5b806395d89b4111610164578063add95a511161013e578063add95a51146108f0578063b1357bf914610910578063b260c42a14610930578063b88d4fde1461095057600080fd5b806395d89b41146108a1578063a22cb465146108b6578063aadfdcc2146108d657600080fd5b806370a08231116101a057806370a0823114610821578063823abfd914610841578063916b9bef14610861578063959526191461088157600080fd5b80636220347e146107c15780636352211e146107ee5780636a6278421461080e57600080fd5b806335f2faf0116102a05780634b2ec8ee1161023e57806353556559116102185780635355655914610752578063551e123b146107655780635982dc29146107925780635fae8b3d146107ae57600080fd5b80634b2ec8ee1461053f5780634ddc77c8146107175780634f6ccce71461073257600080fd5b8063397b80241161027a578063397b802414610636578063413217b71461066a57806342842e0e14610680578063483afb2d146106a057600080fd5b806335f2faf01461058e57806336416455146105aa578063379607f51461061657600080fd5b806318160ddd1161030d578063265f63a1116102e7578063265f63a1146105095780632f745c591461051f5780633295787f1461053f57806332cb6b0c1461055a57600080fd5b806318160ddd146104b45780631849c73a146104c957806323b872dd146104e957600080fd5b8063081812fc11610349578063081812fc14610402578063095ea7b31461043a5780630ba4ae301461045c57806310d4f96d1461049e57600080fd5b8063019e242e1461037057806301ffc9a7146103c057806306fdde03146103e0575b600080fd5b34801561037c57600080fd5b506103ab61038b366004613e3d565b601660209081526000928352604080842090915290825290205460ff1681565b60405190151581526020015b60405180910390f35b3480156103cc57600080fd5b506103ab6103db366004613e75565b610b0d565b3480156103ec57600080fd5b506103f5610b38565b6040516103b79190613ee2565b34801561040e57600080fd5b5061042261041d366004613ef5565b610bca565b6040516001600160a01b0390911681526020016103b7565b34801561044657600080fd5b5061045a610455366004613f2a565b610bf1565b005b34801561046857600080fd5b506104907f000000000000000000000000000000000000000000000000000000000000000081565b6040519081526020016103b7565b3480156104aa57600080fd5b5061049060125481565b3480156104c057600080fd5b50600854610490565b3480156104d557600080fd5b5061045a6104e4366004613f54565b610d0b565b3480156104f557600080fd5b5061045a610504366004613f80565b610f2b565b34801561051557600080fd5b50610490600c5481565b34801561052b57600080fd5b5061049061053a366004613f2a565b610f5c565b34801561054b57600080fd5b5061049066016bcc41e9000081565b34801561056657600080fd5b506104907f000000000000000000000000000000000000000000000000000000000000000081565b34801561059a57600080fd5b506104906714d1120d7b16000081565b3480156105b657600080fd5b506105f56105c5366004613fbc565b601560209081526000928352604080842090915290825290205460ff81169061010090046001600160f81b031682565b6040805160ff90931683526001600160f81b039091166020830152016103b7565b34801561062257600080fd5b50610490610631366004613ef5565b610ff2565b34801561064257600080fd5b506104907f000000000000000000000000000000000000000000000000000000000000000081565b34801561067657600080fd5b5061049060135481565b34801561068c57600080fd5b5061045a61069b366004613f80565b61120b565b3480156106ac57600080fd5b506106ed6106bb366004613ef5565b601460205260009081526040902080546001820154600283015460038401546004909401549293919290919060ff1685565b6040805195865260208601949094529284019190915260608301521515608082015260a0016103b7565b34801561072357600080fd5b50610490660110d9316ec00081565b34801561073e57600080fd5b5061049061074d366004613ef5565b611226565b610490610760366004613ef5565b6112b9565b34801561077157600080fd5b5061078561078036600461402d565b611426565b6040516103b79190614087565b34801561079e57600080fd5b50610490670853a0d2313c000081565b61045a6107bc366004613fbc565b6115b6565b3480156107cd57600080fd5b506104906107dc366004613ef5565b60176020526000908152604090205481565b3480156107fa57600080fd5b50610422610809366004613ef5565b611718565b61049061081c3660046140cd565b611778565b34801561082d57600080fd5b5061049061083c3660046140cd565b61183c565b34801561084d57600080fd5b506103ab61085c3660046140f7565b6118c2565b34801561086d57600080fd5b5061045a61087c366004613ef5565b611979565b34801561088d57600080fd5b5061045a61089c366004614133565b611aa0565b3480156108ad57600080fd5b506103f5611bf7565b3480156108c257600080fd5b5061045a6108d136600461417f565b611c06565b3480156108e257600080fd5b5061049065b5e620f4800081565b3480156108fc57600080fd5b50601854610422906001600160a01b031681565b34801561091c57600080fd5b5061049061092b366004613ef5565b611c15565b34801561093c57600080fd5b5061045a61094b366004613ef5565b611ea9565b34801561095c57600080fd5b5061045a61096b36600461422b565b611f62565b34801561097c57600080fd5b50610490600e5481565b34801561099257600080fd5b50610490655af3107a400081565b3480156109ac57600080fd5b506103f56109bb366004613ef5565b611f9a565b3480156109cc57600080fd5b50610490600f5481565b3480156109e257600080fd5b506104906109f13660046142eb565b61200d565b348015610a0257600080fd5b50610490610a11366004613e3d565b6121fc565b348015610a2257600080fd5b50610490600d5481565b348015610a3857600080fd5b5061045a610a47366004613e3d565b612592565b348015610a5857600080fd5b50610490610a673660046142eb565b61278d565b348015610a7857600080fd5b5061049060105481565b348015610a8e57600080fd5b506103ab610a9d366004614310565b6001600160a01b03918216600090815260056020908152604080832093909416825291909152205460ff1690565b348015610ad757600080fd5b5061049060115481565b348015610aed57600080fd5b506104906103e881565b348015610b0357600080fd5b50610490600b5481565b60006001600160e01b0319821663780e9d6360e01b1480610b325750610b3282612cc1565b92915050565b606060008054610b479061433a565b80601f0160208091040260200160405190810160405280929190818152602001828054610b739061433a565b8015610bc05780601f10610b9557610100808354040283529160200191610bc0565b820191906000526020600020905b815481529060010190602001808311610ba357829003601f168201915b5050505050905090565b6000610bd582612d11565b506000908152600460205260409020546001600160a01b031690565b6000610bfc82611718565b9050806001600160a01b0316836001600160a01b031603610c6e5760405162461bcd60e51b815260206004820152602160248201527f4552433732313a20617070726f76616c20746f2063757272656e74206f776e656044820152603960f91b60648201526084015b60405180910390fd5b336001600160a01b0382161480610c8a5750610c8a8133610a9d565b610cfc5760405162461bcd60e51b815260206004820152603d60248201527f4552433732313a20617070726f76652063616c6c6572206973206e6f7420746f60448201527f6b656e206f776e6572206f7220617070726f76656420666f7220616c6c0000006064820152608401610c65565b610d068383612d73565b505050565b826004610d198233836118c2565b610d3a57818160405163acb8d02d60e01b8152600401610c659291906143a6565b60008313610d4757600080fd5b6000601460008781526020019081526020016000206040518060a0016040529081600082015481526020016001820154815260200160028201548152602001600382015481526020016004820160009054906101000a900460ff16151515158152505090506000601460008781526020019081526020016000206040518060a0016040529081600082015481526020016001820154815260200160028201548152602001600382015481526020016004820160009054906101000a900460ff16151515158152505090508160200151851315610e3e578160200151604051631be6b37360e21b8152600401610c6591815260200190565b610e518783610e4c886143d0565b612de1565b610e5c868287612de1565b60008781526014602090815260408083208551815585830151600180830191909155868301516002808401919091556060808901516003808601919091556080808b01516004968701805491151560ff199283161790558f8a52988790208a5181558a89015195810195909555898701519385019390935590880151908301558601519101805491151591909416179092559051868152879189917fecf7a2a9b87e864721b005a74148c7e41af15fa580f04024f55a5902b32e556e910160405180910390a350505050505050565b610f353382612e4b565b610f515760405162461bcd60e51b8152600401610c65906143ec565b610d06838383612ec9565b6000610f678361183c565b8210610fc95760405162461bcd60e51b815260206004820152602b60248201527f455243373231456e756d657261626c653a206f776e657220696e646578206f7560448201526a74206f6620626f756e647360a81b6064820152608401610c65565b506001600160a01b03919091166000908152600660209081526040808320938352929052205490565b60008160076110028233836118c2565b61102357818160405163acb8d02d60e01b8152600401610c659291906143a6565b600084815260146020526040812060040154859160ff9091161515900361106057604051632080e3d360e01b815260048101829052602401610c65565b6000858152601660209081526040808320600f54845290915290205460ff16156110ab57600f54604051636bd4745f60e01b8152610c65918791600401918252602082015260400190565b6000858152601660209081526040808320600f5484528252808320805460ff1916600190811790915588845260148352818420825160a0810184528154815291810154938201939093526002830154918101919091526003820154606082015260049091015460ff1615156080820152908061112c655af3107a400061303a565b90506000600c54131561114c57611145600c54846130cf565b915061116d565b600061115a600c5485613155565b90935090506111698183614439565b9150505b611178888484612de1565b61118388848361333a565b600088815260146020908152604091829020855181558582015160018201558583015160028201556060860151600382015560808601516004909101805460ff1916911515919091179055905183815289917f80d2137c01c20957d2640ac104067c27bdfb6f6405d354a50e4e0663dbfd3406910160405180910390a2509695505050505050565b610d0683838360405180602001604052806000815250611f62565b600061123160085490565b82106112945760405162461bcd60e51b815260206004820152602c60248201527f455243373231456e756d657261626c653a20676c6f62616c20696e646578206f60448201526b7574206f6620626f756e647360a01b6064820152608401610c65565b600882815481106112a7576112a761444c565b90600052602060002001549050919050565b60008160026112c98233836118c2565b6112ea57818160405163acb8d02d60e01b8152600401610c659291906143a6565b600084815260146020526040812060040154859160ff9091161515900361132757604051632080e3d360e01b815260048101829052602401610c65565b6000858152601760205260408120439055611341346133a9565b600087815260146020908152604091829020825160a081018452815481526001820154928101929092526002810154928201929092526003820154606082015260049091015460ff161515608082015290915061139f878284612de1565b600087815260146020908152604091829020835181558382015160018201558383015160028201556060840151600382015560808401516004909101805460ff1916911515919091179055905183815288917ff99ef896dbec5c9f8ed65fcd703b977e36f533d2dbe0f54b055724102c66935b910160405180910390a25095945050505050565b60608167ffffffffffffffff811115611441576114416141bb565b60405190808252806020026020018201604052801561146a578160200160208202803683370190505b509050836001600160a01b031661148086611718565b6001600160a01b0316036114d55760005b828110156114cf5760018282815181106114ad576114ad61444c565b91151560209283029190910190910152806114c781614462565b915050611491565b506115ae565b60008581526015602090815260408083206001600160a01b0388168452825280832081518083018352905460ff8116825261010090046001600160f81b0316818401819052898552601490935292206003015410156115ac5760005b838110156115aa5761156e85858381811061154e5761154e61444c565b9050602002016020810190611563919061447b565b835160ff16906133ce565b156115985760018382815181106115875761158761444c565b911515602092830291909101909101525b806115a281614462565b915050611531565b505b505b949350505050565b6000828152601460209081526040808320815160a081018352815481526001820154938101849052600282015492810192909252600381015460608301526004015460ff161515608082015291811261162257604051636ef5bcdd60e11b815260040160405180910390fd5b600061162d346133a9565b9050611638826143d0565b81121561165857604051632b7786bd60e21b815260040160405180910390fd5b611663858483612de1565b61167d858461167866016bcc41e9000061303a565b61333a565b600085815260146020908152604091829020855181559085015160018201559084015160028201556060840151600382015560808401516004909101805460ff19169115159190911790556116db6116d486611718565b8587612ec9565b60405185906001600160a01b038616907fa5ee7a2b0254fce91deed604506790ed7fa072d0b14cba4859c3bc8955b9caac90600090a35050505050565b6000818152600260205260408120546001600160a01b031680610b325760405162461bcd60e51b8152602060048201526018602482015277115490cdcc8c4e881a5b9d985b1a59081d1bdad95b88125160421b6044820152606401610c65565b600080611784346133a9565b90507f00000000000000000000000000000000000000000000000000000000000000008112156117c757604051632b7786bd60e21b815260040160405180910390fd5b6000806117d3856133fb565b915091506117e2828285612de1565b6001608082018181526000848152601460209081526040918290208551815590850151938101939093558301516002830155606090920151600382015590516004909101805460ff19169115159190911790559392505050565b60006001600160a01b0382166118a65760405162461bcd60e51b815260206004820152602960248201527f4552433732313a2061646472657373207a65726f206973206e6f7420612076616044820152683634b21037bbb732b960b91b6064820152608401610c65565b506001600160a01b031660009081526003602052604090205490565b6000826001600160a01b03166118d785611718565b6001600160a01b0316036118ed57506001611972565b60008481526015602090815260408083206001600160a01b038716845282529182902082518084019093525460ff81168084526101009091046001600160f81b03169183019190915261194090846133ce565b801561196e575080602001516001600160f81b03166014600087815260200190815260200160002060030154105b9150505b9392505050565b8060016119878233836118c2565b6119a857818160405163acb8d02d60e01b8152600401610c659291906143a6565b600083815260146020526040812060040154849160ff909116151590036119e557604051632080e3d360e01b815260048101829052602401610c65565b60008481526014602052604090206002015415611a18576040516339d0e29960e01b815260048101859052602401610c65565b60008481526014602052604081206001015413611a47576040516207c73960e71b815260040160405180910390fd5b60008481526014602052604090819020600401805460ff19169055517fed48e4e899b34abded07dd8f092a22585a3fdec7db6b83f3927af165bf04cb1e90611a929086815260200190565b60405180910390a150505050565b8233611aab82611718565b6001600160a01b031614611ad55760405163d64dfb0160e01b815260048101829052602401610c65565b4360005b83811015611bb5576000858583818110611af557611af561444c565b9050602002810190611b079190614496565b611b10906144b6565b9050806020015151600003611b4857600087815260156020908152604080832084516001600160a01b03168452909152812055611bac565b6040518060400160405280611b608360200151613509565b60ff90811682526001600160f81b0380871660209384015260008b815260158452604080822087516001600160a01b031683528552902084519490930151166101000292169190911790555b50600101611ad9565b50847f5015559e4f379aa0dd2effee572c916b09bb68ed41ad9ab127c8066f052e16438585604051611be892919061457e565b60405180910390a25050505050565b606060018054610b479061433a565b611c11338383613557565b5050565b600081815260146020526040812060040154829060ff1615158203611c5057604051632080e3d360e01b815260048101829052602401610c65565b601854604080516318160ddd60e01b815290516000926001600160a01b0316916318160ddd9160048083019260209291908290030181865afa158015611c9a573d6000803e3d6000fd5b505050506040513d601f19601f82011682018060405250810190611cbe9190614683565b905080600003611ce157604051632a8ef6b160e11b815260040160405180910390fd5b7f0000000000000000000000000000000000000000000000000000000000000000600e54611d0f9190614439565b421015611d2f576040516334490f5560e11b815260040160405180910390fd5b6000611d39613625565b9050600b548103611d5d57604051639f5333e960e01b815260040160405180910390fd5b6000611d78600b5483611d70919061469c565b600b5461369d565b9050611d8c611d86846136c1565b8261372f565b600c819055600d5542600e55600b829055600f8054601055439055600086815260146020908152604091829020825160a081018452815481526001820154928101929092526002810154928201929092526003820154606082015260049091015460ff1615156080820152611e1e8782611678611e0886613754565b611e199066016bcc41e90000614439565b61303a565b600087815260146020908152604091829020835181558382015160018201558383015160028201556060840151600382015560808401516004909101805460ff191691151591909117905590518881527fff14d8520387b9b85d2a017dc41ae15db04a22d4c67deac04eb45048631ffa86910160405180910390a1600c549550505050505b50919050565b806000611eb78233836118c2565b611ed857818160405163acb8d02d60e01b8152600401610c659291906143a6565b600083815260146020526040902060040154839060ff161515600103611f14576040516307e1313160e11b815260048101829052602401610c65565b60008481526014602052604090819020600401805460ff19166001179055517f3ec796be1be7d03bff3a62b9fa594a60e947c1809bced06d929f145308ae57ce90611a929086815260200190565b611f6c3383612e4b565b611f885760405162461bcd60e51b8152600401610c65906143ec565b611f9484848484613767565b50505050565b6060611fa582612d11565b6000611fbc60408051602081019091526000815290565b90506000815111611fdc5760405180602001604052806000815250611972565b80611fe68461379a565b604051602001611ff79291906146c3565b6040516020818303038152906040529392505050565b6000600a5460011461204e5760405162461bcd60e51b815260206004820152600a6024820152695245454e5452414e435960b01b6044820152606401610c65565b6002600a558360066120618233836118c2565b61208257818160405163acb8d02d60e01b8152600401610c659291906143a6565b600086815260146020526040812060040154879160ff909116151590036120bf57604051632080e3d360e01b815260048101829052602401610c65565b601854604051632770a7eb60e21b8152336004820152602481018790526001600160a01b0390911690639dc29fac90604401600060405180830381600087803b15801561210b57600080fd5b505af115801561211f573d6000803e3d6000fd5b5050506000888152601460205260409020600281015490915086111561215b5760405163056c862560e41b815260048101879052602401610c65565b8581600201600082825461216f91906146f2565b9091555060009050612187612182613625565b61382d565b612195886305f5e100614705565b61219f9190614732565b90506121b46001600160a01b0389168261387f565b604051878152899033907ff3a670cd3af7d64b488926880889d08a8585a138ff455227af6737339a1ec2629060200160405180910390a36001600a5598975050505050505050565b600082815260146020526040812060040154839060ff161515820361223757604051632080e3d360e01b815260048101829052602401610c65565b600083815260146020526040812060040154849160ff9091161515900361227457604051632080e3d360e01b815260048101829052602401610c65565b838503612294576040516335a787ff60e21b815260040160405180910390fd5b6000858152601660209081526040808320601054845290915290205460ff16156122d1576040516375798c0d60e01b815260040160405180910390fd5b6001601660008781526020019081526020016000206000601054815260200190815260200160002060006101000a81548160ff0219169083151502179055506000601460008781526020019081526020016000206040518060a0016040529081600082015481526020016001820154815260200160028201548152602001600382015481526020016004820160009054906101000a900460ff16151515158152505090506000601460008781526020019081526020016000206040518060a0016040529081600082015481526020016001820154815260200160028201548152602001600382015481526020016004820160009054906101000a900460ff1615151515815250509050600080600d54131561244c576123f2600d54846130cf565b905061241c8884610e4c84612417670853a0d2313c0000670de0b6b3a764000061469c565b61372f565b6124338783610e4c84670853a0d2313c000061372f565b612447878361167865b5e620f4800061303a565b61248c565b600061245a600d5485613155565b909250905061246a898584612de1565b61247589858361333a565b61248a8884611678660110d9316ec00061303a565b505b82601460008a81526020019081526020016000206000820151816000015560208201518160010155604082015181600201556060820151816003015560808201518160040160006101000a81548160ff02191690831515021790555090505081601460008981526020019081526020016000206000820151816000015560208201518160010155604082015181600201556060820151816003015560808201518160040160006101000a81548160ff02191690831515021790555090505086887f0e7d191e2306ac0b4fbf5a2cb60c28ddb5a0507bd6dc06322d0d1ea0925eabd78360405161257d91815260200190565b60405180910390a3945050505b505092915050565b8160036125a08233836118c2565b6125c157818160405163acb8d02d60e01b8152600401610c659291906143a6565b600084815260146020526040812060040154859160ff909116151590036125fe57604051632080e3d360e01b815260048101829052602401610c65565b600085815260176020526040908190204390556018549051632770a7eb60e21b8152336004820152602481018690526001600160a01b0390911690639dc29fac90604401600060405180830381600087803b15801561265c57600080fd5b505af1158015612670573d6000803e3d6000fd5b505050600086815260146020908152604091829020825160a081018452815481526001820154928101929092526002810154928201839052600381015460608301526004015460ff161515608082015291508511156126e55760405163056c862560e41b815260048101869052602401610c65565b84816040018181516126f791906146f2565b9052506127088682610e4c886136c1565b600086815260146020908152604091829020835181558382015160018201558383015160028201556060840151600382015560808401516004909101805460ff1916911515919091179055905186815287917f06da3309189fa49284f335d2c2bcb4cb0b8ad2a59ad92a9bdebeeb8f1ceba511910160405180910390a2505050505050565b600083600561279d8233836118c2565b6127be57818160405163acb8d02d60e01b8152600401610c659291906143a6565b600086815260146020526040812060040154879160ff909116151590036127fb57604051632080e3d360e01b815260048101829052602401610c65565b60008781526017602052604090205443900361282a5760405163ba08e24560e01b815260040160405180910390fd5b600087815260146020908152604091829020825160a081018452815481526001820154928101839052600282015493810193909352600381015460608401526004015460ff1615156080830152612880876136c1565b13156128a7578060200151604051631be6b37360e21b8152600401610c6591815260200190565b60006128b4612182613625565b6128c26305f5e10047614732565b6128cc9190614705565b9050600061295c88601860009054906101000a90046001600160a01b03166001600160a01b03166318160ddd6040518163ffffffff1660e01b8152600401602060405180830381865afa158015612927573d6000803e3d6000fd5b505050506040513d601f19601f8201168201806040525081019061294b9190614683565b6129559190614439565b83906138d0565b90506714d1120d7b16000081101561298a5760405163f51aaf6560e01b815260048101829052602401610c65565b600061299560085490565b61299f9084614732565b905060008985604001516129b39190614439565b9050818111156129d957604051630dd16eb960e41b815260048101839052602401610c65565b6129f08c866129e78d6136c1565b610e4c906143d0565b604085810182815260008e8152601460209081529083902088518155908801516001820155905160028201556060870151600382015560808701516004918201805460ff191691151591909117905560185491516340c10f1960e01b81526001600160a01b038e811692820192909252602481018d90529116906340c10f1990604401600060405180830381600087803b158015612a8d57600080fd5b505af1158015612aa1573d6000803e3d6000fd5b505050508a6001600160a01b03168c7fcf7d23a3cbe4e8b36ff82fd1b05b1b17373dc7804b4ebbd6e2356716ef2023728c604051612ae191815260200190565b60405180910390a350909a9950505050505050505050565b612b0584848484612c39565b6001811115612b745760405162461bcd60e51b815260206004820152603560248201527f455243373231456e756d657261626c653a20636f6e7365637574697665207472604482015274185b9cd9995c9cc81b9bdd081cdd5c1c1bdc9d1959605a1b6064820152608401610c65565b816001600160a01b038516612bd057612bcb81600880546000838152600960205260408120829055600182018355919091527ff3f7a9fe364faab93b216da50a3214154f22a0a2b415b23a84c8169e8b636ee30155565b612bf3565b836001600160a01b0316856001600160a01b031614612bf357612bf385826138e5565b6001600160a01b038416612c0f57612c0a81613982565b612c32565b846001600160a01b0316846001600160a01b031614612c3257612c328482613a31565b5050505050565b6001811115611f94576001600160a01b03841615612c7f576001600160a01b03841660009081526003602052604081208054839290612c799084906146f2565b90915550505b6001600160a01b03831615611f94576001600160a01b03831660009081526003602052604081208054839290612cb6908490614439565b909155505050505050565b60006001600160e01b031982166380ac58cd60e01b1480612cf257506001600160e01b03198216635b5e139f60e01b145b80610b3257506301ffc9a760e01b6001600160e01b0319831614610b32565b6000818152600260205260409020546001600160a01b0316612d705760405162461bcd60e51b8152602060048201526018602482015277115490cdcc8c4e881a5b9d985b1a59081d1bdad95b88125160421b6044820152606401610c65565b50565b600081815260046020526040902080546001600160a01b0319166001600160a01b0384169081179091558190612da882611718565b6001600160a01b03167f8c5be1e5ebec7d5bd14f71427d1e84f3dd0314c0f7b2291e5b200ac8c7c3b92560405160405180910390a45050565b8082602001818151612df39190614746565b90525060118054829190600090612e0b908490614746565b909155505060405181815283907f87796264723f99cc80edd4c09a2b10955b98a9b99581a8bc2ae55b5de1d25cb9906020015b60405180910390a2505050565b600080612e5783611718565b9050806001600160a01b0316846001600160a01b03161480612e9e57506001600160a01b0380821660009081526005602090815260408083209388168352929052205460ff165b806115ae5750836001600160a01b0316612eb784610bca565b6001600160a01b031614949350505050565b826001600160a01b0316612edc82611718565b6001600160a01b031614612f025760405162461bcd60e51b8152600401610c6590614766565b6001600160a01b038216612f645760405162461bcd60e51b8152602060048201526024808201527f4552433732313a207472616e7366657220746f20746865207a65726f206164646044820152637265737360e01b6064820152608401610c65565b612f718383836001613a75565b826001600160a01b0316612f8482611718565b6001600160a01b031614612faa5760405162461bcd60e51b8152600401610c6590614766565b600081815260046020908152604080832080546001600160a01b03199081169091556001600160a01b0387811680865260038552838620805460001901905590871680865283862080546001019055868652600290945282852080549092168417909155905184937fddf252ad1be2c89b69c2b068fc378daa952ba7f163c4a11628f55a4df523b3ef91a4505050565b6000662386f26fc100006130c583601860009054906101000a90046001600160a01b03166001600160a01b03166318160ddd6040518163ffffffff1660e01b8152600401602060405180830381865afa15801561309b573d6000803e3d6000fd5b505050506040513d601f19601f820116820180604052508101906130bf9190614683565b90613a9b565b610b329190614732565b600080826020015112156130f5576040516207c73960e71b815260040160405180910390fd5b601254825160009161310791906138d0565b9050600061311b846020015160115461369d565b9050600060028261312b856136c1565b6131359190614746565b61313f91906147ab565b905061314b868261372f565b9695505050505050565b60008060008360200151121561317d576040516207c73960e71b815260040160405180910390fd5b601354835160009161318f91906138d0565b60125485519192506000916131a3916138d0565b905060006131b183836138d0565b905060006131c060115461382d565b601860009054906101000a90046001600160a01b03166001600160a01b03166318160ddd6040518163ffffffff1660e01b8152600401602060405180830381865afa158015613213573d6000803e3d6000fd5b505050506040513d601f19601f820116820180604052508101906132379190614683565b6132419190614439565b9050600061326b826132568a6020015161382d565b8a604001516132659190614439565b906138d0565b9050600061328186670de0b6b3a76400006146f2565b905060006132bd6132b88661329560085490565b6132a790670de0b6b3a7640000614705565b6132b191906146f2565b84906138d0565b6136c1565b90506002816132cb856136c1565b6132d59190614746565b6132df91906147ab565b905060006132ed828d61372f565b905066b1a2bc2ec50000600061330f613306838c614439565b61326585613754565b905082613324670de0b6b3a764000083614732565b9b509b50505050505050505050505b9250929050565b808260000181815161334c9190614439565b905250601354825111156133605781516013555b80601260008282546133729190614439565b909155505060405181815283907f7c443111027f2425221a6550e9f6ea29c61b8b3ea987c6d72cd6074de121dad990602001612e3e565b60006133b3613625565b6133c46132b86305f5e10085614732565b610b3291906147d9565b6000808260078111156133e3576133e361436e565b600160ff9182161b9490941690931615159392505050565b60006134316040518060a00160405280600081526020016000815260200160008152602001600081526020016000151581525090565b600061343c60085490565b90507f0000000000000000000000000000000000000000000000000000000000000000811061347e57604051632cdb04a160e21b815260040160405180910390fd5b6134888482613ab0565b6134bc6040518060a00160405280600081526020016000815260200160008152602001600081526020016000151581525090565b6134c982826103e861333a565b60405182906001600160a01b038716907f30385c845b448a36257a6a1716e6ad2e1bc2cbe333cde1e69fe849ad6511adfe90600090a39094909350915050565b6000805b8251811015611ea3578281815181106135285761352861444c565b602002602001015160078111156135415761354161436e565b600160ff9190911681901b92909217910161350d565b816001600160a01b0316836001600160a01b0316036135b85760405162461bcd60e51b815260206004820152601960248201527f4552433732313a20617070726f766520746f2063616c6c6572000000000000006044820152606401610c65565b6001600160a01b03838116600081815260056020908152604080832094871680845294825291829020805460ff191686151590811790915591519182527f17307eab39ab6107e8899845ad3d59bd9653f200f220920489ca2b5937696c31910160405180910390a3505050565b60195460408051633fabe5a360e21b815290516000926001600160a01b03169163feaf968c9160048083019260a09291908290030181865afa15801561366f573d6000803e3d6000fd5b505050506040513d601f19601f820116820180604052508101906136939190614823565b5091949350505050565b670de0b6b3a76400008281029081058314821515166136bb57600080fd5b05919050565b60006001600160ff1b0382111561372b5760405162461bcd60e51b815260206004820152602860248201527f53616665436173743a2076616c756520646f65736e27742066697420696e2061604482015267371034b73a191a9b60c11b6064820152608401610c65565b5090565b818102821583820583141761374357600080fd5b670de0b6b3a7640000900592915050565b60008082121561372b5781600003610b32565b613772848484612ec9565b61377e84848484613c49565b611f945760405162461bcd60e51b8152600401610c6590614873565b606060006137a783613d47565b600101905060008167ffffffffffffffff8111156137c7576137c76141bb565b6040519080825280601f01601f1916602001820160405280156137f1576020820181803683370190505b5090508181016020015b600019016f181899199a1a9b1b9c1cb0b131b232b360811b600a86061a8153600a85049450846137fb57509392505050565b60008082121561372b5760405162461bcd60e51b815260206004820181905260248201527f53616665436173743a2076616c7565206d75737420626520706f7369746976656044820152606401610c65565b600080600080600085875af1905080610d065760405162461bcd60e51b815260206004820152601360248201527211551217d514905394d1915497d19052531151606a1b6044820152606401610c65565b600061197283670de0b6b3a764000084613e1f565b600060016138f28461183c565b6138fc91906146f2565b60008381526007602052604090205490915080821461394f576001600160a01b03841660009081526006602090815260408083208584528252808320548484528184208190558352600790915290208190555b5060009182526007602090815260408084208490556001600160a01b039094168352600681528383209183525290812055565b600854600090613994906001906146f2565b600083815260096020526040812054600880549394509092849081106139bc576139bc61444c565b9060005260206000200154905080600883815481106139dd576139dd61444c565b6000918252602080832090910192909255828152600990915260408082208490558582528120556008805480613a1557613a156148c5565b6001900381819060005260206000200160009055905550505050565b6000613a3c8361183c565b6001600160a01b039093166000908152600660209081526040808320868452825280832085905593825260079052919091209190915550565b613a8184848484612af9565b506000908152601460205260409020436003909101555050565b60006119728383670de0b6b3a7640000613e1f565b6001600160a01b038216613b065760405162461bcd60e51b815260206004820181905260248201527f4552433732313a206d696e7420746f20746865207a65726f20616464726573736044820152606401610c65565b6000818152600260205260409020546001600160a01b031615613b6b5760405162461bcd60e51b815260206004820152601c60248201527f4552433732313a20746f6b656e20616c7265616479206d696e746564000000006044820152606401610c65565b613b79600083836001613a75565b6000818152600260205260409020546001600160a01b031615613bde5760405162461bcd60e51b815260206004820152601c60248201527f4552433732313a20746f6b656e20616c7265616479206d696e746564000000006044820152606401610c65565b6001600160a01b038216600081815260036020908152604080832080546001019055848352600290915280822080546001600160a01b0319168417905551839291907fddf252ad1be2c89b69c2b068fc378daa952ba7f163c4a11628f55a4df523b3ef908290a45050565b60006001600160a01b0384163b15613d3f57604051630a85bd0160e11b81526001600160a01b0385169063150b7a0290613c8d9033908990889088906004016148db565b6020604051808303816000875af1925050508015613cc8575060408051601f3d908101601f19168201909252613cc59181019061490e565b60015b613d25573d808015613cf6576040519150601f19603f3d011682016040523d82523d6000602084013e613cfb565b606091505b508051600003613d1d5760405162461bcd60e51b8152600401610c6590614873565b805181602001fd5b6001600160e01b031916630a85bd0160e11b1490506115ae565b5060016115ae565b60008072184f03e93ff9f4daa797ed6e38ed64bf6a1f0160401b8310613d865772184f03e93ff9f4daa797ed6e38ed64bf6a1f0160401b830492506040015b6d04ee2d6d415b85acef81000000008310613db2576d04ee2d6d415b85acef8100000000830492506020015b662386f26fc100008310613dd057662386f26fc10000830492506010015b6305f5e1008310613de8576305f5e100830492506008015b6127108310613dfc57612710830492506004015b60648310613e0e576064830492506002015b600a8310610b325760010192915050565b6000826000190484118302158202613e3657600080fd5b5091020490565b60008060408385031215613e5057600080fd5b50508035926020909101359150565b6001600160e01b031981168114612d7057600080fd5b600060208284031215613e8757600080fd5b813561197281613e5f565b60005b83811015613ead578181015183820152602001613e95565b50506000910152565b60008151808452613ece816020860160208601613e92565b601f01601f19169290920160200192915050565b6020815260006119726020830184613eb6565b600060208284031215613f0757600080fd5b5035919050565b80356001600160a01b0381168114613f2557600080fd5b919050565b60008060408385031215613f3d57600080fd5b613f4683613f0e565b946020939093013593505050565b600080600060608486031215613f6957600080fd5b505081359360208301359350604090920135919050565b600080600060608486031215613f9557600080fd5b613f9e84613f0e565b9250613fac60208501613f0e565b9150604084013590509250925092565b60008060408385031215613fcf57600080fd5b82359150613fdf60208401613f0e565b90509250929050565b60008083601f840112613ffa57600080fd5b50813567ffffffffffffffff81111561401257600080fd5b6020830191508360208260051b850101111561333357600080fd5b6000806000806060858703121561404357600080fd5b8435935061405360208601613f0e565b9250604085013567ffffffffffffffff81111561406f57600080fd5b61407b87828801613fe8565b95989497509550505050565b6020808252825182820181905260009190848201906040850190845b818110156140c15783511515835292840192918401916001016140a3565b50909695505050505050565b6000602082840312156140df57600080fd5b61197282613f0e565b803560088110613f2557600080fd5b60008060006060848603121561410c57600080fd5b8335925061411c60208501613f0e565b915061412a604085016140e8565b90509250925092565b60008060006040848603121561414857600080fd5b83359250602084013567ffffffffffffffff81111561416657600080fd5b61417286828701613fe8565b9497909650939450505050565b6000806040838503121561419257600080fd5b61419b83613f0e565b9150602083013580151581146141b057600080fd5b809150509250929050565b634e487b7160e01b600052604160045260246000fd5b6040805190810167ffffffffffffffff811182821017156141f4576141f46141bb565b60405290565b604051601f8201601f1916810167ffffffffffffffff81118282101715614223576142236141bb565b604052919050565b6000806000806080858703121561424157600080fd5b61424a85613f0e565b93506020614259818701613f0e565b935060408601359250606086013567ffffffffffffffff8082111561427d57600080fd5b818801915088601f83011261429157600080fd5b8135818111156142a3576142a36141bb565b6142b5601f8201601f191685016141fa565b915080825289848285010111156142cb57600080fd5b808484018584013760008482840101525080935050505092959194509250565b60008060006060848603121561430057600080fd5b83359250613fac60208501613f0e565b6000806040838503121561432357600080fd5b61432c83613f0e565b9150613fdf60208401613f0e565b600181811c9082168061434e57607f821691505b602082108103611ea357634e487b7160e01b600052602260045260246000fd5b634e487b7160e01b600052602160045260246000fd5b600881106143a257634e487b7160e01b600052602160045260246000fd5b9052565b828152604081016119726020830184614384565b634e487b7160e01b600052601160045260246000fd5b6000600160ff1b82016143e5576143e56143ba565b5060000390565b6020808252602d908201527f4552433732313a2063616c6c6572206973206e6f7420746f6b656e206f776e6560408201526c1c881bdc88185c1c1c9bdd9959609a1b606082015260800190565b80820180821115610b3257610b326143ba565b634e487b7160e01b600052603260045260246000fd5b600060018201614474576144746143ba565b5060010190565b60006020828403121561448d57600080fd5b611972826140e8565b60008235603e198336030181126144ac57600080fd5b9190910192915050565b6000604082360312156144c857600080fd5b6144d06141d1565b6144d983613f0e565b815260208084013567ffffffffffffffff808211156144f757600080fd5b9085019036601f83011261450a57600080fd5b81358181111561451c5761451c6141bb565b8060051b915061452d8483016141fa565b818152918301840191848101903684111561454757600080fd5b938501935b8385101561456c5761455d856140e8565b8252938501939085019061454c565b94860194909452509295945050505050565b60208082528181018390526000906040808401600586811b8601830188865b8981101561467457888303603f190185528135368c9003603e190181126145c357600080fd5b8b018387016001600160a01b036145d983613f0e565b16855288820135601e198336030181126145f257600080fd5b90910188810191903567ffffffffffffffff81111561461057600080fd5b80871b360383131561462157600080fd5b858a0189905290819052600090606086015b8183101561465f5761464d81614648866140e8565b614384565b928a0192600192909201918a01614633565b978a019795505050918701915060010161459d565b50909998505050505050505050565b60006020828403121561469557600080fd5b5051919050565b81810360008312801583831316838312821617156146bc576146bc6143ba565b5092915050565b600083516146d5818460208801613e92565b8351908301906146e9818360208801613e92565b01949350505050565b81810381811115610b3257610b326143ba565b8082028115828204841417610b3257610b326143ba565b634e487b7160e01b600052601260045260246000fd5b6000826147415761474161471c565b500490565b808201828112600083128015821682158216171561258a5761258a6143ba565b60208082526025908201527f4552433732313a207472616e736665722066726f6d20696e636f72726563742060408201526437bbb732b960d91b606082015260800190565b6000826147ba576147ba61471c565b600160ff1b8214600019841416156147d4576147d46143ba565b500590565b80820260008212600160ff1b841416156147f5576147f56143ba565b8181058314821517610b3257610b326143ba565b805169ffffffffffffffffffff81168114613f2557600080fd5b600080600080600060a0868803121561483b57600080fd5b61484486614809565b945060208601519350604086015192506060860151915061486760808701614809565b90509295509295909350565b60208082526032908201527f4552433732313a207472616e7366657220746f206e6f6e20455243373231526560408201527131b2b4bb32b91034b6b83632b6b2b73a32b960711b606082015260800190565b634e487b7160e01b600052603160045260246000fd5b6001600160a01b038581168252841660208201526040810183905260806060820181905260009061314b90830184613eb6565b60006020828403121561492057600080fd5b815161197281613e5f56fea2646970667358221220281b93d991012d2c1dc32da740389c5f47aba3f00403a451d1ba548a79708a0a64736f6c63430008110033",
    "linkReferences": {}
  },
  "methodIdentifiers": {
    "MAX_SUPPLY()": "32cb6b0c",
    "MIN_COLLATERIZATION_RATIO()": "35f2faf0",
    "MIN_MINT_DYAD_DEPOSIT()": "397b8024",
    "MIN_TIME_BETWEEN_SYNC()": "0ba4ae30",
    "SNIPE_MINT_SHARE_REWARD()": "5982dc29",
    "XP_CLAIM_REWARD()": "c784cbe6",
    "XP_LIQUIDATION_REWARD()": "4b2ec8ee",
    "XP_MINT_REWARD()": "febb16df",
    "XP_SNIPE_BURN_REWARD()": "4ddc77c8",
    "XP_SNIPE_MINT_REWARD()": "aadfdcc2",
    "XP_SYNC_REWARD()": "3295787f",
    "activate(uint256)": "b260c42a",
    "approve(address,uint256)": "095ea7b3",
    "balanceOf(address)": "70a08231",
    "claim(uint256)": "379607f5",
    "deactivate(uint256)": "916b9bef",
    "deposit(uint256,uint256)": "e2bbb158",
    "dyad()": "add95a51",
    "dyadDelta()": "265f63a1",
    "ethPrice()": "ff186b2e",
    "exchange(uint256)": "53556559",
    "getApproved(uint256)": "081812fc",
    "grant(uint256,(address,uint8[])[])": "95952619",
    "hasPermission(uint256,address,uint8)": "823abfd9",
    "hasPermissions(uint256,address,uint8[])": "551e123b",
    "idToClaimed(uint256,uint256)": "019e242e",
    "idToLastDeposit(uint256)": "6220347e",
    "idToNft(uint256)": "483afb2d",
    "idToNftPermission(uint256,address)": "36416455",
    "isApprovedForAll(address,address)": "e985e9c5",
    "liquidate(uint256,address)": "5fae8b3d",
    "maxXp()": "413217b7",
    "mint(address)": "6a627842",
    "move(uint256,uint256,int256)": "1849c73a",
    "name()": "06fdde03",
    "ownerOf(uint256)": "6352211e",
    "prevDyadDelta()": "decb84dc",
    "prevSyncedBlock()": "e6446691",
    "redeem(uint256,address,uint256)": "d8780161",
    "safeTransferFrom(address,address,uint256)": "42842e0e",
    "safeTransferFrom(address,address,uint256,bytes)": "b88d4fde",
    "setApprovalForAll(address,bool)": "a22cb465",
    "snipe(uint256,uint256)": "de1eecb3",
    "supportsInterface(bytes4)": "01ffc9a7",
    "symbol()": "95d89b41",
    "sync(uint256)": "b1357bf9",
    "syncedBlock()": "d4912507",
    "timeOfSync()": "bc1ac5bb",
    "tokenByIndex(uint256)": "4f6ccce7",
    "tokenOfOwnerByIndex(address,uint256)": "2f745c59",
    "tokenURI(uint256)": "c87b56dd",
    "totalDeposit()": "f6153ccd",
    "totalSupply()": "18160ddd",
    "totalXp()": "10d4f96d",
    "transferFrom(address,address,uint256)": "23b872dd",
    "withdraw(uint256,address,uint256)": "e63697c8"
  },
  "id": 40
}