{
  "abi": [
    {
      "inputs": [
        {
          "internalType": "address",
          "name": "_dyad",
          "type": "address"
        },
        {
          "internalType": "uint256",
          "name": "depositMinimum",
          "type": "uint256"
        },
        {
          "internalType": "bool",
          "name": "withInsiderAllocation",
          "type": "bool"
        }
      ],
      "stateMutability": "nonpayable",
      "type": "constructor"
    },
    {
      "anonymous": false,
      "inputs": [
        {
          "indexed": true,
          "internalType": "address",
          "name": "owner",
          "type": "address"
        },
        {
          "indexed": true,
          "internalType": "address",
          "name": "approved",
          "type": "address"
        },
        {
          "indexed": true,
          "internalType": "uint256",
          "name": "tokenId",
          "type": "uint256"
        }
      ],
      "name": "Approval",
      "type": "event"
    },
    {
      "anonymous": false,
      "inputs": [
        {
          "indexed": true,
          "internalType": "address",
          "name": "owner",
          "type": "address"
        },
        {
          "indexed": true,
          "internalType": "address",
          "name": "operator",
          "type": "address"
        },
        {
          "indexed": false,
          "internalType": "bool",
          "name": "approved",
          "type": "bool"
        }
      ],
      "name": "ApprovalForAll",
      "type": "event"
    },
    {
      "anonymous": false,
      "inputs": [
        {
          "indexed": true,
          "internalType": "address",
          "name": "to",
          "type": "address"
        },
        {
          "indexed": true,
          "internalType": "uint256",
          "name": "id",
          "type": "uint256"
        },
        {
          "indexed": false,
          "internalType": "uint256",
          "name": "amount",
          "type": "uint256"
        }
      ],
      "name": "DyadDeposited",
      "type": "event"
    },
    {
      "anonymous": false,
      "inputs": [
        {
          "indexed": true,
          "internalType": "address",
          "name": "to",
          "type": "address"
        },
        {
          "indexed": true,
          "internalType": "uint256",
          "name": "id",
          "type": "uint256"
        },
        {
          "indexed": false,
          "internalType": "uint256",
          "name": "amount",
          "type": "uint256"
        }
      ],
      "name": "DyadMinted",
      "type": "event"
    },
    {
      "anonymous": false,
      "inputs": [
        {
          "indexed": true,
          "internalType": "address",
          "name": "to",
          "type": "address"
        },
        {
          "indexed": true,
          "internalType": "uint256",
          "name": "id",
          "type": "uint256"
        },
        {
          "indexed": false,
          "internalType": "uint256",
          "name": "amount",
          "type": "uint256"
        }
      ],
      "name": "DyadRedeemed",
      "type": "event"
    },
    {
      "anonymous": false,
      "inputs": [
        {
          "indexed": true,
          "internalType": "address",
          "name": "to",
          "type": "address"
        },
        {
          "indexed": true,
          "internalType": "uint256",
          "name": "id",
          "type": "uint256"
        },
        {
          "indexed": false,
          "internalType": "uint256",
          "name": "amount",
          "type": "uint256"
        }
      ],
      "name": "DyadWithdrawn",
      "type": "event"
    },
    {
      "anonymous": false,
      "inputs": [
        {
          "indexed": true,
          "internalType": "address",
          "name": "to",
          "type": "address"
        },
        {
          "indexed": true,
          "internalType": "uint256",
          "name": "id",
          "type": "uint256"
        }
      ],
      "name": "NftMinted",
      "type": "event"
    },
    {
      "anonymous": false,
      "inputs": [
        {
          "indexed": true,
          "internalType": "address",
          "name": "from",
          "type": "address"
        },
        {
          "indexed": true,
          "internalType": "address",
          "name": "to",
          "type": "address"
        },
        {
          "indexed": true,
          "internalType": "uint256",
          "name": "tokenId",
          "type": "uint256"
        }
      ],
      "name": "Transfer",
      "type": "event"
    },
    {
      "inputs": [],
      "name": "DEPOSIT_MINIMUM",
      "outputs": [
        {
          "internalType": "uint256",
          "name": "",
          "type": "uint256"
        }
      ],
      "stateMutability": "view",
      "type": "function"
    },
    {
      "inputs": [],
      "name": "MAX_SUPPLY",
      "outputs": [
        {
          "internalType": "uint256",
          "name": "",
          "type": "uint256"
        }
      ],
      "stateMutability": "view",
      "type": "function"
    },
    {
      "inputs": [],
      "name": "MAX_XP",
      "outputs": [
        {
          "internalType": "uint256",
          "name": "",
          "type": "uint256"
        }
      ],
      "stateMutability": "view",
      "type": "function"
    },
    {
      "inputs": [],
      "name": "MIN_XP",
      "outputs": [
        {
          "internalType": "uint256",
          "name": "",
          "type": "uint256"
        }
      ],
      "stateMutability": "view",
      "type": "function"
    },
    {
      "inputs": [
        {
          "internalType": "address",
          "name": "to",
          "type": "address"
        },
        {
          "internalType": "uint256",
          "name": "tokenId",
          "type": "uint256"
        }
      ],
      "name": "approve",
      "outputs": [],
      "stateMutability": "nonpayable",
      "type": "function"
    },
    {
      "inputs": [
        {
          "internalType": "address",
          "name": "owner",
          "type": "address"
        }
      ],
      "name": "balanceOf",
      "outputs": [
        {
          "internalType": "uint256",
          "name": "",
          "type": "uint256"
        }
      ],
      "stateMutability": "view",
      "type": "function"
    },
    {
      "inputs": [
        {
          "internalType": "uint256",
          "name": "tokenId",
          "type": "uint256"
        }
      ],
      "name": "burn",
      "outputs": [],
      "stateMutability": "nonpayable",
      "type": "function"
    },
    {
      "inputs": [
        {
          "internalType": "uint256",
          "name": "id",
          "type": "uint256"
        },
        {
          "internalType": "uint256",
          "name": "amount",
          "type": "uint256"
        }
      ],
      "name": "deposit",
      "outputs": [],
      "stateMutability": "nonpayable",
      "type": "function"
    },
    {
      "inputs": [],
      "name": "dyad",
      "outputs": [
        {
          "internalType": "contract DYAD",
          "name": "",
          "type": "address"
        }
      ],
      "stateMutability": "view",
      "type": "function"
    },
    {
      "inputs": [
        {
          "internalType": "uint256",
          "name": "tokenId",
          "type": "uint256"
        }
      ],
      "name": "getApproved",
      "outputs": [
        {
          "internalType": "address",
          "name": "",
          "type": "address"
        }
      ],
      "stateMutability": "view",
      "type": "function"
    },
    {
      "inputs": [
        {
          "internalType": "uint256",
          "name": "",
          "type": "uint256"
        }
      ],
      "name": "idToNft",
      "outputs": [
        {
          "internalType": "uint256",
          "name": "withdrawn",
          "type": "uint256"
        },
        {
          "internalType": "int256",
          "name": "deposit",
          "type": "int256"
        },
        {
          "internalType": "uint256",
          "name": "xp",
          "type": "uint256"
        },
        {
          "internalType": "bool",
          "name": "isClaimable",
          "type": "bool"
        }
      ],
      "stateMutability": "view",
      "type": "function"
    },
    {
      "inputs": [
        {
          "internalType": "address",
          "name": "owner",
          "type": "address"
        },
        {
          "internalType": "address",
          "name": "operator",
          "type": "address"
        }
      ],
      "name": "isApprovedForAll",
      "outputs": [
        {
          "internalType": "bool",
          "name": "",
          "type": "bool"
        }
      ],
      "stateMutability": "view",
      "type": "function"
    },
    {
      "inputs": [
        {
          "internalType": "uint256",
          "name": "id",
          "type": "uint256"
        }
      ],
      "name": "mintDyad",
      "outputs": [],
      "stateMutability": "payable",
      "type": "function"
    },
    {
      "inputs": [
        {
          "internalType": "address",
          "name": "receiver",
          "type": "address"
        }
      ],
      "name": "mintNft",
      "outputs": [
        {
          "internalType": "uint256",
          "name": "",
          "type": "uint256"
        }
      ],
      "stateMutability": "payable",
      "type": "function"
    },
    {
      "inputs": [
        {
          "internalType": "address",
          "name": "receiver",
          "type": "address"
        },
        {
          "components": [
            {
              "internalType": "uint256",
              "name": "withdrawn",
              "type": "uint256"
            },
            {
              "internalType": "int256",
              "name": "deposit",
              "type": "int256"
            },
            {
              "internalType": "uint256",
              "name": "xp",
              "type": "uint256"
            },
            {
              "internalType": "bool",
              "name": "isClaimable",
              "type": "bool"
            }
          ],
          "internalType": "struct IdNFT.Nft",
          "name": "nft",
          "type": "tuple"
        },
        {
          "internalType": "uint256",
          "name": "depositMinimum",
          "type": "uint256"
        }
      ],
      "name": "mintNftCopy",
      "outputs": [
        {
          "internalType": "uint256",
          "name": "",
          "type": "uint256"
        }
      ],
      "stateMutability": "payable",
      "type": "function"
    },
    {
      "inputs": [],
      "name": "name",
      "outputs": [
        {
          "internalType": "string",
          "name": "",
          "type": "string"
        }
      ],
      "stateMutability": "view",
      "type": "function"
    },
    {
      "inputs": [],
      "name": "numberOfMints",
      "outputs": [
        {
          "internalType": "uint256",
          "name": "",
          "type": "uint256"
        }
      ],
      "stateMutability": "view",
      "type": "function"
    },
    {
      "inputs": [
        {
          "internalType": "uint256",
          "name": "tokenId",
          "type": "uint256"
        }
      ],
      "name": "ownerOf",
      "outputs": [
        {
          "internalType": "address",
          "name": "",
          "type": "address"
        }
      ],
      "stateMutability": "view",
      "type": "function"
    },
    {
      "inputs": [],
      "name": "pool",
      "outputs": [
        {
          "internalType": "contract Pool",
          "name": "",
          "type": "address"
        }
      ],
      "stateMutability": "view",
      "type": "function"
    },
    {
      "inputs": [
        {
          "internalType": "uint256",
          "name": "id",
          "type": "uint256"
        },
        {
          "internalType": "uint256",
          "name": "amount",
          "type": "uint256"
        }
      ],
      "name": "redeem",
      "outputs": [],
      "stateMutability": "nonpayable",
      "type": "function"
    },
    {
      "inputs": [
        {
          "internalType": "address",
          "name": "from",
          "type": "address"
        },
        {
          "internalType": "address",
          "name": "to",
          "type": "address"
        },
        {
          "internalType": "uint256",
          "name": "tokenId",
          "type": "uint256"
        }
      ],
      "name": "safeTransferFrom",
      "outputs": [],
      "stateMutability": "nonpayable",
      "type": "function"
    },
    {
      "inputs": [
        {
          "internalType": "address",
          "name": "from",
          "type": "address"
        },
        {
          "internalType": "address",
          "name": "to",
          "type": "address"
        },
        {
          "internalType": "uint256",
          "name": "tokenId",
          "type": "uint256"
        },
        {
          "internalType": "bytes",
          "name": "data",
          "type": "bytes"
        }
      ],
      "name": "safeTransferFrom",
      "outputs": [],
      "stateMutability": "nonpayable",
      "type": "function"
    },
    {
      "inputs": [
        {
          "internalType": "address",
          "name": "operator",
          "type": "address"
        },
        {
          "internalType": "bool",
          "name": "approved",
          "type": "bool"
        }
      ],
      "name": "setApprovalForAll",
      "outputs": [],
      "stateMutability": "nonpayable",
      "type": "function"
    },
    {
      "inputs": [
        {
          "internalType": "address",
          "name": "newPool",
          "type": "address"
        }
      ],
      "name": "setPool",
      "outputs": [],
      "stateMutability": "nonpayable",
      "type": "function"
    },
    {
      "inputs": [
        {
          "internalType": "bytes4",
          "name": "interfaceId",
          "type": "bytes4"
        }
      ],
      "name": "supportsInterface",
      "outputs": [
        {
          "internalType": "bool",
          "name": "",
          "type": "bool"
        }
      ],
      "stateMutability": "view",
      "type": "function"
    },
    {
      "inputs": [],
      "name": "symbol",
      "outputs": [
        {
          "internalType": "string",
          "name": "",
          "type": "string"
        }
      ],
      "stateMutability": "view",
      "type": "function"
    },
    {
      "inputs": [
        {
          "internalType": "uint256",
          "name": "index",
          "type": "uint256"
        }
      ],
      "name": "tokenByIndex",
      "outputs": [
        {
          "internalType": "uint256",
          "name": "",
          "type": "uint256"
        }
      ],
      "stateMutability": "view",
      "type": "function"
    },
    {
      "inputs": [
        {
          "internalType": "address",
          "name": "owner",
          "type": "address"
        },
        {
          "internalType": "uint256",
          "name": "index",
          "type": "uint256"
        }
      ],
      "name": "tokenOfOwnerByIndex",
      "outputs": [
        {
          "internalType": "uint256",
          "name": "",
          "type": "uint256"
        }
      ],
      "stateMutability": "view",
      "type": "function"
    },
    {
      "inputs": [
        {
          "internalType": "uint256",
          "name": "tokenId",
          "type": "uint256"
        }
      ],
      "name": "tokenURI",
      "outputs": [
        {
          "internalType": "string",
          "name": "",
          "type": "string"
        }
      ],
      "stateMutability": "view",
      "type": "function"
    },
    {
      "inputs": [],
      "name": "totalSupply",
      "outputs": [
        {
          "internalType": "uint256",
          "name": "",
          "type": "uint256"
        }
      ],
      "stateMutability": "view",
      "type": "function"
    },
    {
      "inputs": [
        {
          "internalType": "address",
          "name": "from",
          "type": "address"
        },
        {
          "internalType": "address",
          "name": "to",
          "type": "address"
        },
        {
          "internalType": "uint256",
          "name": "tokenId",
          "type": "uint256"
        }
      ],
      "name": "transferFrom",
      "outputs": [],
      "stateMutability": "nonpayable",
      "type": "function"
    },
    {
      "inputs": [
        {
          "internalType": "uint256",
          "name": "id",
          "type": "uint256"
        },
        {
          "components": [
            {
              "internalType": "uint256",
              "name": "withdrawn",
              "type": "uint256"
            },
            {
              "internalType": "int256",
              "name": "deposit",
              "type": "int256"
            },
            {
              "internalType": "uint256",
              "name": "xp",
              "type": "uint256"
            },
            {
              "internalType": "bool",
              "name": "isClaimable",
              "type": "bool"
            }
          ],
          "internalType": "struct IdNFT.Nft",
          "name": "nft",
          "type": "tuple"
        }
      ],
      "name": "updateNft",
      "outputs": [],
      "stateMutability": "nonpayable",
      "type": "function"
    },
    {
      "inputs": [
        {
          "internalType": "uint256",
          "name": "minXP",
          "type": "uint256"
        },
        {
          "internalType": "uint256",
          "name": "maxXP",
          "type": "uint256"
        }
      ],
      "name": "updateXP",
      "outputs": [],
      "stateMutability": "nonpayable",
      "type": "function"
    },
    {
      "inputs": [
        {
          "internalType": "uint256",
          "name": "id",
          "type": "uint256"
        },
        {
          "internalType": "uint256",
          "name": "amount",
          "type": "uint256"
        }
      ],
      "name": "withdraw",
      "outputs": [],
      "stateMutability": "nonpayable",
      "type": "function"
    }
  ],
  "bytecode": {
    "object": "0x6080604052620dbba0600c5561012c600c546200001d9190620008fb565b600d553480156200002d57600080fd5b50604051620035cd380380620035cd833981016040819052620000509162000917565b60405180604001604052806008815260200167111650510813919560c21b815250604051806040016040528060048152602001631913919560e21b81525081600090816200009f919062000a13565b506001620000ae828262000a13565b5050600e80546001600160a01b0319166001600160a01b03861617905550600b8290558015620001d957620000f7737eeffd5d089b1351eccc388022d8b823676df424620001e2565b506200011773cad2eada97ad393584fe84a5cca1ef3093e45ae4620001e2565b506200013773414b60745072088d013721b4a28a0559b1a9d213620001e2565b5062000157733682827f48f8e023ee40707dee82620d0b63579f620001e2565b506200017773e779fb090af9dfbb3b4c18ed571ad6390df52ae2620001e2565b5062000197739f919a292e62594f2d8db13f6a4adb1691d6c60d620001e2565b50620001b773f37ec513af2cd91a76d386680fd2df6ba3bb7520620001e2565b50620001d773e9fc93e678f2bde7a0a3ba3d39f505ef63a68c97620001e2565b505b50505062000b21565b600a5461012c620001f260085490565b106200023a5760405162461bcd60e51b815260206004820152601260248201527113585e081cdd5c1c1b1e481c995858da195960721b60448201526064015b60405180910390fd5b620002468282620002f2565b6001600a60008282546200025b9190620008fb565b9091555050600081815260106020526040902060085461012c600c54620002839190620008fb565b6200028f919062000adf565b6200029c906001620008fb565b60028201819055600c541115620002b6576002810154600c555b60405182906001600160a01b038516907ff2b290a76feb54be358b555507421d765609171aefa0646f109a653228ff81b890600090a350919050565b6001600160a01b0382166200034a5760405162461bcd60e51b815260206004820181905260248201527f4552433732313a206d696e7420746f20746865207a65726f2061646472657373604482015260640162000231565b6000818152600260205260409020546001600160a01b031615620003b15760405162461bcd60e51b815260206004820152601c60248201527f4552433732313a20746f6b656e20616c7265616479206d696e74656400000000604482015260640162000231565b620003c160008383600162000493565b6000818152600260205260409020546001600160a01b031615620004285760405162461bcd60e51b815260206004820152601c60248201527f4552433732313a20746f6b656e20616c7265616479206d696e74656400000000604482015260640162000231565b6001600160a01b038216600081815260036020908152604080832080546001019055848352600290915280822080546001600160a01b0319168417905551839291907fddf252ad1be2c89b69c2b068fc378daa952ba7f163c4a11628f55a4df523b3ef908290a45050565b620004ac84848484620004b260201b6200141b1760201c565b50505050565b620004cb848484846200061660201b6200155b1760201c565b6001811115620005445760405162461bcd60e51b815260206004820152603560248201527f455243373231456e756d657261626c653a20636f6e736563757469766520747260448201527f616e7366657273206e6f7420737570706f727465640000000000000000000000606482015260840162000231565b816001600160a01b038516620005a3576200059d81600880546000838152600960205260408120829055600182018355919091527ff3f7a9fe364faab93b216da50a3214154f22a0a2b415b23a84c8169e8b636ee30155565b620005c9565b836001600160a01b0316856001600160a01b031614620005c957620005c98582620006a5565b6001600160a01b038416620005e957620005e38162000752565b6200060f565b846001600160a01b0316846001600160a01b0316146200060f576200060f84826200080c565b5050505050565b6001811115620004ac576001600160a01b0384161562000660576001600160a01b038416600090815260036020526040812080548392906200065a90849062000adf565b90915550505b6001600160a01b03831615620004ac576001600160a01b038316600090815260036020526040812080548392906200069a908490620008fb565b909155505050505050565b60006001620006bf846200085d60201b62000cae1760201c565b620006cb919062000adf565b6000838152600760205260409020549091508082146200071f576001600160a01b03841660009081526006602090815260408083208584528252808320548484528184208190558352600790915290208190555b5060009182526007602090815260408084208490556001600160a01b039094168352600681528383209183525290812055565b600854600090620007669060019062000adf565b6000838152600960205260408120546008805493945090928490811062000791576200079162000af5565b906000526020600020015490508060088381548110620007b557620007b562000af5565b6000918252602080832090910192909255828152600990915260408082208490558582528120556008805480620007f057620007f062000b0b565b6001900381819060005260206000200160009055905550505050565b600062000824836200085d60201b62000cae1760201c565b6001600160a01b039093166000908152600660209081526040808320868452825280832085905593825260079052919091209190915550565b60006001600160a01b038216620008c95760405162461bcd60e51b815260206004820152602960248201527f4552433732313a2061646472657373207a65726f206973206e6f7420612076616044820152683634b21037bbb732b960b91b606482015260840162000231565b506001600160a01b031660009081526003602052604090205490565b634e487b7160e01b600052601160045260246000fd5b80820180821115620009115762000911620008e5565b92915050565b6000806000606084860312156200092d57600080fd5b83516001600160a01b03811681146200094557600080fd5b60208501516040860151919450925080151581146200096357600080fd5b809150509250925092565b634e487b7160e01b600052604160045260246000fd5b600181811c908216806200099957607f821691505b602082108103620009ba57634e487b7160e01b600052602260045260246000fd5b50919050565b601f82111562000a0e57600081815260208120601f850160051c81016020861015620009e95750805b601f850160051c820191505b8181101562000a0a57828155600101620009f5565b5050505b505050565b81516001600160401b0381111562000a2f5762000a2f6200096e565b62000a478162000a40845462000984565b84620009c0565b602080601f83116001811462000a7f576000841562000a665750858301515b600019600386901b1c1916600185901b17855562000a0a565b600085815260208120601f198616915b8281101562000ab05788860151825594840194600190910190840162000a8f565b508582101562000acf5787850151600019600388901b60f8161c191681555b5050505050600190811b01905550565b81810381811115620009115762000911620008e5565b634e487b7160e01b600052603260045260246000fd5b634e487b7160e01b600052603160045260246000fd5b612a9c8062000b316000396000f3fe6080604052600436106101f95760003560e01c80637cbc23731161010d578063b88d4fde116100a0578063e2bbb1581161006f578063e2bbb158146105cb578063e7e63314146105eb578063e985e9c51461060b578063e9c2e14b14610654578063fb9103cc1461066757600080fd5b8063b88d4fde1461055f578063c87b56dd1461057f578063cc672ae21461059f578063d9dee3d1146105b557600080fd5b8063add95a51116100dc578063add95a51146104f6578063ae34b6e114610516578063b0082cdf1461052c578063b1871a0b1461054c57600080fd5b80637cbc23731461048b578063959f7857146104ab57806395d89b41146104c1578063a22cb465146104d657600080fd5b806332cb6b0c116101905780634437152a1161015f5780634437152a146103a4578063483afb2d146103c45780634f6ccce71461042b5780636352211e1461044b57806370a082311461046b57600080fd5b806332cb6b0c1461032e57806342842e0e1461034457806342966c6814610364578063441a3e701461038457600080fd5b806316f0115b116101cc57806316f0115b146102af57806318160ddd146102cf57806323b872dd146102ee5780632f745c591461030e57600080fd5b806301ffc9a7146101fe57806306fdde0314610233578063081812fc14610255578063095ea7b31461028d575b600080fd5b34801561020a57600080fd5b5061021e610219366004612386565b61067a565b60405190151581526020015b60405180910390f35b34801561023f57600080fd5b5061024861068b565b60405161022a91906123f3565b34801561026157600080fd5b50610275610270366004612406565b61071d565b6040516001600160a01b03909116815260200161022a565b34801561029957600080fd5b506102ad6102a8366004612434565b610744565b005b3480156102bb57600080fd5b50600f54610275906001600160a01b031681565b3480156102db57600080fd5b506008545b60405190815260200161022a565b3480156102fa57600080fd5b506102ad610309366004612460565b61085e565b34801561031a57600080fd5b506102e0610329366004612434565b610890565b34801561033a57600080fd5b506102e061012c81565b34801561035057600080fd5b506102ad61035f366004612460565b610926565b34801561037057600080fd5b506102ad61037f366004612406565b610941565b34801561039057600080fd5b506102ad61039f3660046124a1565b610972565b3480156103b057600080fd5b506102ad6103bf3660046124c3565b610b40565b3480156103d057600080fd5b506104096103df366004612406565b60106020526000908152604090208054600182015460028301546003909301549192909160ff1684565b604080519485526020850193909352918301521515606082015260800161022a565b34801561043757600080fd5b506102e0610446366004612406565b610bbb565b34801561045757600080fd5b50610275610466366004612406565b610c4e565b34801561047757600080fd5b506102e06104863660046124c3565b610cae565b34801561049757600080fd5b506102ad6104a63660046124a1565b610d34565b3480156104b757600080fd5b506102e0600a5481565b3480156104cd57600080fd5b50610248610f5f565b3480156104e257600080fd5b506102ad6104f13660046124ee565b610f6e565b34801561050257600080fd5b50600e54610275906001600160a01b031681565b34801561052257600080fd5b506102e0600b5481565b34801561053857600080fd5b506102ad6105473660046124a1565b610f7d565b6102e061055a3660046125de565b610fc7565b34801561056b57600080fd5b506102ad61057a36600461261d565b611032565b34801561058b57600080fd5b5061024861059a366004612406565b61106a565b3480156105ab57600080fd5b506102e0600c5481565b3480156105c157600080fd5b506102e0600d5481565b3480156105d757600080fd5b506102ad6105e63660046124a1565b6110de565b3480156105f757600080fd5b506102ad6106063660046126e1565b611300565b34801561061757600080fd5b5061021e61062636600461270e565b6001600160a01b03918216600090815260056020908152604080832093909416825291909152205460ff1690565b6102e06106623660046124c3565b61136c565b6102ad610675366004612406565b611386565b6000610685826115e3565b92915050565b60606000805461069a9061273c565b80601f01602080910402602001604051908101604052809291908181526020018280546106c69061273c565b80156107135780601f106106e857610100808354040283529160200191610713565b820191906000526020600020905b8154815290600101906020018083116106f657829003601f168201915b5050505050905090565b600061072882611608565b506000908152600460205260409020546001600160a01b031690565b600061074f82610c4e565b9050806001600160a01b0316836001600160a01b0316036107c15760405162461bcd60e51b815260206004820152602160248201527f4552433732313a20617070726f76616c20746f2063757272656e74206f776e656044820152603960f91b60648201526084015b60405180910390fd5b336001600160a01b03821614806107dd57506107dd8133610626565b61084f5760405162461bcd60e51b815260206004820152603d60248201527f4552433732313a20617070726f76652063616c6c6572206973206e6f7420746f60448201527f6b656e206f776e6572206f7220617070726f76656420666f7220616c6c00000060648201526084016107b8565b6108598383611667565b505050565b610869335b826116d5565b6108855760405162461bcd60e51b81526004016107b890612776565b61085983838361176d565b600061089b83610cae565b82106108fd5760405162461bcd60e51b815260206004820152602b60248201527f455243373231456e756d657261626c653a206f776e657220696e646578206f7560448201526a74206f6620626f756e647360a81b60648201526084016107b8565b506001600160a01b03919091166000908152600660209081526040808320938352929052205490565b61085983838360405180602001604052806000815250611032565b61094a33610863565b6109665760405162461bcd60e51b81526004016107b890612776565b61096f816118de565b50565b6040516331a9108f60e11b815260048101839052829033903090636352211e90602401602060405180830381865afa1580156109b2573d6000803e3d6000fd5b505050506040513d601f19601f820116820180604052508101906109d691906127c3565b6001600160a01b0316146109fc5760405162461bcd60e51b81526004016107b8906127e0565b60008381526010602052604090206001810154831315610a6c5760405162461bcd60e51b815260206004820152602560248201527f644e46543a20576974686472617720616d6f756e7420657863656564732064656044820152641c1bdcda5d60da1b60648201526084016107b8565b600f5460405163f3fef3a360e01b8152336004820152602481018590526001600160a01b039091169063f3fef3a390604401600060405180830381600087803b158015610ab857600080fd5b505af1158015610acc573d6000803e3d6000fd5b5050505082816001016000828254610ae4919061282b565b9091555050805483908290600090610afd908490612852565b9091555050604051838152849033907f97c68706573f736c58fd91ea1dd5982061ea2b11e1ec1647ca0a9e7da2b3ecad906020015b60405180910390a350505050565b600f546001600160a01b031615610b995760405162461bcd60e51b815260206004820152601960248201527f644e46543a20506f6f6c20697320616c7265616479207365740000000000000060448201526064016107b8565b600f80546001600160a01b0319166001600160a01b0392909216919091179055565b6000610bc660085490565b8210610c295760405162461bcd60e51b815260206004820152602c60248201527f455243373231456e756d657261626c653a20676c6f62616c20696e646578206f60448201526b7574206f6620626f756e647360a01b60648201526084016107b8565b60088281548110610c3c57610c3c612865565b90600052602060002001549050919050565b6000818152600260205260408120546001600160a01b0316806106855760405162461bcd60e51b8152602060048201526018602482015277115490cdcc8c4e881a5b9d985b1a59081d1bdad95b88125160421b60448201526064016107b8565b60006001600160a01b038216610d185760405162461bcd60e51b815260206004820152602960248201527f4552433732313a2061646472657373207a65726f206973206e6f7420612076616044820152683634b21037bbb732b960b91b60648201526084016107b8565b506001600160a01b031660009081526003602052604090205490565b6040516331a9108f60e11b815260048101839052829033903090636352211e90602401602060405180830381865afa158015610d74573d6000803e3d6000fd5b505050506040513d601f19601f82011682018060405250810190610d9891906127c3565b6001600160a01b031614610dbe5760405162461bcd60e51b81526004016107b8906127e0565b60008381526010602052604090208054831115610e2e5760405162461bcd60e51b815260206004820152602860248201527f644e46543a20416d6f756e7420746f2072656465656d2065786365656473207760448201526734ba34323930bbb760c11b60648201526084016107b8565b82816000016000828254610e42919061287b565b9091555050600e54600f546040516323b872dd60e01b81523360048201526001600160a01b039182166024820152604481018690529116906323b872dd906064016020604051808303816000875af1158015610ea2573d6000803e3d6000fd5b505050506040513d601f19601f82011682018060405250810190610ec6919061288e565b50600f546040516301e9a69560e41b8152336004820152602481018590526001600160a01b0390911690631e9a695090604401600060405180830381600087803b158015610f1357600080fd5b505af1158015610f27573d6000803e3d6000fd5b50506040518581528692503391507f978afd9cd3f8b45b5bc6b990498f81efbcd4bbb929648dd2eb337276971de0f290602001610b32565b60606001805461069a9061273c565b610f79338383611981565b5050565b600f546001600160a01b03163314610fa75760405162461bcd60e51b81526004016107b8906128ab565b600c54821015610fb757600c8290555b600d54811115610f7957600d5550565b600f546000906001600160a01b03163314610ff45760405162461bcd60e51b81526004016107b8906128ab565b6000610fff85611a47565b60008181526010602052604090819020908601516002820155855181559091506110298285611b45565b50949350505050565b61103c33836116d5565b6110585760405162461bcd60e51b81526004016107b890612776565b61106484848484611d4c565b50505050565b606061107582611608565b600061108c60408051602081019091526000815290565b905060008151116110ac57604051806020016040528060008152506110d7565b806110b684611d7f565b6040516020016110c79291906128ef565b6040516020818303038152906040525b9392505050565b6000828152601060205260409020805482111561113d5760405162461bcd60e51b815260206004820152601f60248201527f644e46543a204465706f73697420657863656564732077697468647261776e0060448201526064016107b8565b600e546040516323b872dd60e01b8152336004820152306024820152604481018490526001600160a01b03909116906323b872dd906064016020604051808303816000875af1158015611194573d6000803e3d6000fd5b505050506040513d601f19601f820116820180604052508101906111b8919061288e565b50600e54600f5460405163095ea7b360e01b81526001600160a01b0391821660048201526024810185905291169063095ea7b3906044016020604051808303816000875af115801561120e573d6000803e3d6000fd5b505050506040513d601f19601f82011682018060405250810190611232919061288e565b50600f5460405163b6b55f2560e01b8152600481018490526001600160a01b039091169063b6b55f2590602401600060405180830381600087803b15801561127957600080fd5b505af115801561128d573d6000803e3d6000fd5b50505050818160010160008282546112a5919061291e565b90915550508054829082906000906112be90849061287b565b9091555050604051828152839033907fb2b57d77f3386e7108afb8ee9a58008631e884cb4ff8cc775d3d5b6c77a44262906020015b60405180910390a3505050565b600f546001600160a01b0316331461132a5760405162461bcd60e51b81526004016107b8906128ab565b60009182526010602090815260409283902082518155908201516001820155918101516002830155606001516003909101805460ff1916911515919091179055565b60008061137883611a47565b905061068581600b54611b45565b6040516331a9108f60e11b815260048101829052819033903090636352211e90602401602060405180830381865afa1580156113c6573d6000803e3d6000fd5b505050506040513d601f19601f820116820180604052508101906113ea91906127c3565b6001600160a01b0316146114105760405162461bcd60e51b81526004016107b8906127e0565b610f79826000611b45565b6114278484848461155b565b60018111156114965760405162461bcd60e51b815260206004820152603560248201527f455243373231456e756d657261626c653a20636f6e7365637574697665207472604482015274185b9cd9995c9cc81b9bdd081cdd5c1c1bdc9d1959605a1b60648201526084016107b8565b816001600160a01b0385166114f2576114ed81600880546000838152600960205260408120829055600182018355919091527ff3f7a9fe364faab93b216da50a3214154f22a0a2b415b23a84c8169e8b636ee30155565b611515565b836001600160a01b0316856001600160a01b031614611515576115158582611e12565b6001600160a01b0384166115315761152c81611eaf565b611554565b846001600160a01b0316846001600160a01b031614611554576115548482611f5e565b5050505050565b6001811115611064576001600160a01b038416156115a1576001600160a01b0384166000908152600360205260408120805483929061159b90849061287b565b90915550505b6001600160a01b03831615611064576001600160a01b038316600090815260036020526040812080548392906115d8908490612852565b909155505050505050565b60006001600160e01b0319821663780e9d6360e01b1480610685575061068582611fa2565b6000818152600260205260409020546001600160a01b031661096f5760405162461bcd60e51b8152602060048201526018602482015277115490cdcc8c4e881a5b9d985b1a59081d1bdad95b88125160421b60448201526064016107b8565b600081815260046020526040902080546001600160a01b0319166001600160a01b038416908117909155819061169c82610c4e565b6001600160a01b03167f8c5be1e5ebec7d5bd14f71427d1e84f3dd0314c0f7b2291e5b200ac8c7c3b92560405160405180910390a45050565b6000806116e183610c4e565b600f549091506001600160a01b03858116911614806117115750806001600160a01b0316846001600160a01b0316145b8061174157506001600160a01b0380821660009081526005602090815260408083209388168352929052205460ff165b806117655750836001600160a01b031661175a8461071d565b6001600160a01b0316145b949350505050565b826001600160a01b031661178082610c4e565b6001600160a01b0316146117a65760405162461bcd60e51b81526004016107b890612946565b6001600160a01b0382166118085760405162461bcd60e51b8152602060048201526024808201527f4552433732313a207472616e7366657220746f20746865207a65726f206164646044820152637265737360e01b60648201526084016107b8565b6118158383836001611ff2565b826001600160a01b031661182882610c4e565b6001600160a01b03161461184e5760405162461bcd60e51b81526004016107b890612946565b600081815260046020908152604080832080546001600160a01b03199081169091556001600160a01b0387811680865260038552838620805460001901905590871680865283862080546001019055868652600290945282852080549092168417909155905184937fddf252ad1be2c89b69c2b068fc378daa952ba7f163c4a11628f55a4df523b3ef91a4505050565b60006118e982610c4e565b90506118f9816000846001611ff2565b61190282610c4e565b600083815260046020908152604080832080546001600160a01b03199081169091556001600160a01b0385168085526003845282852080546000190190558785526002909352818420805490911690555192935084927fddf252ad1be2c89b69c2b068fc378daa952ba7f163c4a11628f55a4df523b3ef908390a45050565b816001600160a01b0316836001600160a01b0316036119e25760405162461bcd60e51b815260206004820152601960248201527f4552433732313a20617070726f766520746f2063616c6c65720000000000000060448201526064016107b8565b6001600160a01b03838116600081815260056020908152604080832094871680845294825291829020805460ff191686151590811790915591519182527f17307eab39ab6107e8899845ad3d59bd9653f200f220920489ca2b5937696c3191016112f3565b600a5461012c611a5660085490565b10611a985760405162461bcd60e51b815260206004820152601260248201527113585e081cdd5c1c1b1e481c995858da195960721b60448201526064016107b8565b611aa28282611ffe565b6001600a6000828254611ab59190612852565b9091555050600081815260106020526040902060085461012c600c54611adb9190612852565b611ae5919061287b565b611af0906001612852565b60028201819055600c541115611b09576002810154600c555b60405182906001600160a01b038516907ff2b290a76feb54be358b555507421d765609171aefa0646f109a653228ff81b890600090a350919050565b60003411611ba45760405162461bcd60e51b815260206004820152602660248201527f596f75206e65656420746f2073656e6420736f6d652045544820746f206d696e6044820152651d08191e585960d21b60648201526084016107b8565b600f54604051633ee440f360e21b8152600481018390526000916001600160a01b03169063fb9103cc90349060240160206040518083038185885af1158015611bf1573d6000803e3d6000fd5b50505050506040513d601f19601f82011682018060405250810190611c16919061298b565b600e54600f5460405163095ea7b360e01b81526001600160a01b03918216600482015260248101849052929350169063095ea7b3906044016020604051808303816000875af1158015611c6d573d6000803e3d6000fd5b505050506040513d601f19601f82011682018060405250810190611c91919061288e565b50600f5460405163b6b55f2560e01b8152600481018390526001600160a01b039091169063b6b55f2590602401600060405180830381600087803b158015611cd857600080fd5b505af1158015611cec573d6000803e3d6000fd5b50505060008481526010602052604081206001018054849350909190611d1390849061291e565b9091555050604051818152839033907f3a7ec3c4655340144c5d88cd1e88cf7146e64e9a6d3db1b306f130db3579fdb4906020016112f3565b611d5784848461176d565b611d6384848484612197565b6110645760405162461bcd60e51b81526004016107b8906129a4565b60606000611d8c83612298565b600101905060008167ffffffffffffffff811115611dac57611dac612527565b6040519080825280601f01601f191660200182016040528015611dd6576020820181803683370190505b5090508181016020015b600019016f181899199a1a9b1b9c1cb0b131b232b360811b600a86061a8153600a8504945084611de057509392505050565b60006001611e1f84610cae565b611e29919061287b565b600083815260076020526040902054909150808214611e7c576001600160a01b03841660009081526006602090815260408083208584528252808320548484528184208190558352600790915290208190555b5060009182526007602090815260408084208490556001600160a01b039094168352600681528383209183525290812055565b600854600090611ec19060019061287b565b60008381526009602052604081205460088054939450909284908110611ee957611ee9612865565b906000526020600020015490508060088381548110611f0a57611f0a612865565b6000918252602080832090910192909255828152600990915260408082208490558582528120556008805480611f4257611f426129f6565b6001900381819060005260206000200160009055905550505050565b6000611f6983610cae565b6001600160a01b039093166000908152600660209081526040808320868452825280832085905593825260079052919091209190915550565b60006001600160e01b031982166380ac58cd60e01b1480611fd357506001600160e01b03198216635b5e139f60e01b145b8061068557506301ffc9a760e01b6001600160e01b0319831614610685565b6110648484848461141b565b6001600160a01b0382166120545760405162461bcd60e51b815260206004820181905260248201527f4552433732313a206d696e7420746f20746865207a65726f206164647265737360448201526064016107b8565b6000818152600260205260409020546001600160a01b0316156120b95760405162461bcd60e51b815260206004820152601c60248201527f4552433732313a20746f6b656e20616c7265616479206d696e7465640000000060448201526064016107b8565b6120c7600083836001611ff2565b6000818152600260205260409020546001600160a01b03161561212c5760405162461bcd60e51b815260206004820152601c60248201527f4552433732313a20746f6b656e20616c7265616479206d696e7465640000000060448201526064016107b8565b6001600160a01b038216600081815260036020908152604080832080546001019055848352600290915280822080546001600160a01b0319168417905551839291907fddf252ad1be2c89b69c2b068fc378daa952ba7f163c4a11628f55a4df523b3ef908290a45050565b60006001600160a01b0384163b1561228d57604051630a85bd0160e11b81526001600160a01b0385169063150b7a02906121db903390899088908890600401612a0c565b6020604051808303816000875af1925050508015612216575060408051601f3d908101601f1916820190925261221391810190612a49565b60015b612273573d808015612244576040519150601f19603f3d011682016040523d82523d6000602084013e612249565b606091505b50805160000361226b5760405162461bcd60e51b81526004016107b8906129a4565b805181602001fd5b6001600160e01b031916630a85bd0160e11b149050611765565b506001949350505050565b60008072184f03e93ff9f4daa797ed6e38ed64bf6a1f0160401b83106122d75772184f03e93ff9f4daa797ed6e38ed64bf6a1f0160401b830492506040015b6d04ee2d6d415b85acef81000000008310612303576d04ee2d6d415b85acef8100000000830492506020015b662386f26fc10000831061232157662386f26fc10000830492506010015b6305f5e1008310612339576305f5e100830492506008015b612710831061234d57612710830492506004015b6064831061235f576064830492506002015b600a83106106855760010192915050565b6001600160e01b03198116811461096f57600080fd5b60006020828403121561239857600080fd5b81356110d781612370565b60005b838110156123be5781810151838201526020016123a6565b50506000910152565b600081518084526123df8160208601602086016123a3565b601f01601f19169290920160200192915050565b6020815260006110d760208301846123c7565b60006020828403121561241857600080fd5b5035919050565b6001600160a01b038116811461096f57600080fd5b6000806040838503121561244757600080fd5b82356124528161241f565b946020939093013593505050565b60008060006060848603121561247557600080fd5b83356124808161241f565b925060208401356124908161241f565b929592945050506040919091013590565b600080604083850312156124b457600080fd5b50508035926020909101359150565b6000602082840312156124d557600080fd5b81356110d78161241f565b801515811461096f57600080fd5b6000806040838503121561250157600080fd5b823561250c8161241f565b9150602083013561251c816124e0565b809150509250929050565b634e487b7160e01b600052604160045260246000fd5b604051601f8201601f1916810167ffffffffffffffff8111828210171561256657612566612527565b604052919050565b60006080828403121561258057600080fd5b6040516080810181811067ffffffffffffffff821117156125a3576125a3612527565b806040525080915082358152602083013560208201526040830135604082015260608301356125d1816124e0565b6060919091015292915050565b600080600060c084860312156125f357600080fd5b83356125fe8161241f565b925061260d856020860161256e565b915060a084013590509250925092565b6000806000806080858703121561263357600080fd5b843561263e8161241f565b935060208581013561264f8161241f565b935060408601359250606086013567ffffffffffffffff8082111561267357600080fd5b818801915088601f83011261268757600080fd5b81358181111561269957612699612527565b6126ab601f8201601f1916850161253d565b915080825289848285010111156126c157600080fd5b808484018584013760008482840101525080935050505092959194509250565b60008060a083850312156126f457600080fd5b82359150612705846020850161256e565b90509250929050565b6000806040838503121561272157600080fd5b823561272c8161241f565b9150602083013561251c8161241f565b600181811c9082168061275057607f821691505b60208210810361277057634e487b7160e01b600052602260045260246000fd5b50919050565b6020808252602d908201527f4552433732313a2063616c6c6572206973206e6f7420746f6b656e206f776e6560408201526c1c881bdc88185c1c1c9bdd9959609a1b606082015260800190565b6000602082840312156127d557600080fd5b81516110d78161241f565b6020808252818101527f644e46543a204f6e6c792063616c6c61626c65206279204e4654206f776e6572604082015260600190565b634e487b7160e01b600052601160045260246000fd5b818103600083128015838313168383128216171561284b5761284b612815565b5092915050565b8082018082111561068557610685612815565b634e487b7160e01b600052603260045260246000fd5b8181038181111561068557610685612815565b6000602082840312156128a057600080fd5b81516110d7816124e0565b60208082526024908201527f644e46543a204f6e6c792063616c6c61626c6520627920506f6f6c20636f6e746040820152631c9858dd60e21b606082015260800190565b600083516129018184602088016123a3565b8351908301906129158183602088016123a3565b01949350505050565b808201828112600083128015821682158216171561293e5761293e612815565b505092915050565b60208082526025908201527f4552433732313a207472616e736665722066726f6d20696e636f72726563742060408201526437bbb732b960d91b606082015260800190565b60006020828403121561299d57600080fd5b5051919050565b60208082526032908201527f4552433732313a207472616e7366657220746f206e6f6e20455243373231526560408201527131b2b4bb32b91034b6b83632b6b2b73a32b960711b606082015260800190565b634e487b7160e01b600052603160045260246000fd5b6001600160a01b0385811682528416602082015260408101839052608060608201819052600090612a3f908301846123c7565b9695505050505050565b600060208284031215612a5b57600080fd5b81516110d78161237056fea2646970667358221220043ccc9a0c7d8e319142ef55eec2bf0229260ccdb39ed83b1907994c2af2fe1a64736f6c63430008110033",
    "linkReferences": {}
  },
  "methodIdentifiers": {
    "DEPOSIT_MINIMUM()": "ae34b6e1",
    "MAX_SUPPLY()": "32cb6b0c",
    "MAX_XP()": "d9dee3d1",
    "MIN_XP()": "cc672ae2",
    "approve(address,uint256)": "095ea7b3",
    "balanceOf(address)": "70a08231",
    "burn(uint256)": "42966c68",
    "deposit(uint256,uint256)": "e2bbb158",
    "dyad()": "add95a51",
    "getApproved(uint256)": "081812fc",
    "idToNft(uint256)": "483afb2d",
    "isApprovedForAll(address,address)": "e985e9c5",
    "mintDyad(uint256)": "fb9103cc",
    "mintNft(address)": "e9c2e14b",
    "mintNftCopy(address,(uint256,int256,uint256,bool),uint256)": "b1871a0b",
    "name()": "06fdde03",
    "numberOfMints()": "959f7857",
    "ownerOf(uint256)": "6352211e",
    "pool()": "16f0115b",
    "redeem(uint256,uint256)": "7cbc2373",
    "safeTransferFrom(address,address,uint256)": "42842e0e",
    "safeTransferFrom(address,address,uint256,bytes)": "b88d4fde",
    "setApprovalForAll(address,bool)": "a22cb465",
    "setPool(address)": "4437152a",
    "supportsInterface(bytes4)": "01ffc9a7",
    "symbol()": "95d89b41",
    "tokenByIndex(uint256)": "4f6ccce7",
    "tokenOfOwnerByIndex(address,uint256)": "2f745c59",
    "tokenURI(uint256)": "c87b56dd",
    "totalSupply()": "18160ddd",
    "transferFrom(address,address,uint256)": "23b872dd",
    "updateNft(uint256,(uint256,int256,uint256,bool))": "e7e63314",
    "updateXP(uint256,uint256)": "b0082cdf",
    "withdraw(uint256,uint256)": "441a3e70"
  },
  "id": 29
}