{
  "abi": [
    {
      "inputs": [
        {
          "internalType": "address",
          "name": "_dyad",
          "type": "address"
        },
        {
          "internalType": "uint256",
          "name": "_depositMinimum",
          "type": "uint256"
        },
        {
          "internalType": "uint256",
          "name": "_blocksBetweenSyncs",
          "type": "uint256"
        },
        {
          "internalType": "uint256",
          "name": "_minCollaterizationRatio",
          "type": "uint256"
        },
        {
          "internalType": "uint256",
          "name": "_maxSupply",
          "type": "uint256"
        },
        {
          "internalType": "address",
          "name": "_oracle",
          "type": "address"
        },
        {
          "internalType": "address[]",
          "name": "_insiders",
          "type": "address[]"
        }
      ],
      "stateMutability": "nonpayable",
      "type": "constructor"
    },
    {
      "anonymous": false,
      "inputs": [
        {
          "indexed": true,
          "internalType": "address",
          "name": "owner",
          "type": "address"
        },
        {
          "indexed": true,
          "internalType": "address",
          "name": "approved",
          "type": "address"
        },
        {
          "indexed": true,
          "internalType": "uint256",
          "name": "tokenId",
          "type": "uint256"
        }
      ],
      "name": "Approval",
      "type": "event"
    },
    {
      "anonymous": false,
      "inputs": [
        {
          "indexed": true,
          "internalType": "address",
          "name": "owner",
          "type": "address"
        },
        {
          "indexed": true,
          "internalType": "address",
          "name": "operator",
          "type": "address"
        },
        {
          "indexed": false,
          "internalType": "bool",
          "name": "approved",
          "type": "bool"
        }
      ],
      "name": "ApprovalForAll",
      "type": "event"
    },
    {
      "anonymous": false,
      "inputs": [
        {
          "indexed": true,
          "internalType": "address",
          "name": "to",
          "type": "address"
        },
        {
          "indexed": true,
          "internalType": "uint256",
          "name": "id",
          "type": "uint256"
        },
        {
          "indexed": false,
          "internalType": "uint256",
          "name": "amount",
          "type": "uint256"
        }
      ],
      "name": "DyadDeposited",
      "type": "event"
    },
    {
      "anonymous": false,
      "inputs": [
        {
          "indexed": true,
          "internalType": "address",
          "name": "to",
          "type": "address"
        },
        {
          "indexed": true,
          "internalType": "uint256",
          "name": "id",
          "type": "uint256"
        },
        {
          "indexed": false,
          "internalType": "uint256",
          "name": "amount",
          "type": "uint256"
        }
      ],
      "name": "DyadMinted",
      "type": "event"
    },
    {
      "anonymous": false,
      "inputs": [
        {
          "indexed": true,
          "internalType": "address",
          "name": "to",
          "type": "address"
        },
        {
          "indexed": true,
          "internalType": "uint256",
          "name": "id",
          "type": "uint256"
        },
        {
          "indexed": false,
          "internalType": "uint256",
          "name": "amount",
          "type": "uint256"
        }
      ],
      "name": "DyadRedeemed",
      "type": "event"
    },
    {
      "anonymous": false,
      "inputs": [
        {
          "indexed": true,
          "internalType": "address",
          "name": "to",
          "type": "address"
        },
        {
          "indexed": true,
          "internalType": "uint256",
          "name": "id",
          "type": "uint256"
        },
        {
          "indexed": false,
          "internalType": "uint256",
          "name": "amount",
          "type": "uint256"
        }
      ],
      "name": "DyadWithdrawn",
      "type": "event"
    },
    {
      "anonymous": false,
      "inputs": [
        {
          "indexed": true,
          "internalType": "uint256",
          "name": "id",
          "type": "uint256"
        },
        {
          "indexed": true,
          "internalType": "address",
          "name": "from",
          "type": "address"
        },
        {
          "indexed": true,
          "internalType": "address",
          "name": "to",
          "type": "address"
        }
      ],
      "name": "NftClaimed",
      "type": "event"
    },
    {
      "anonymous": false,
      "inputs": [
        {
          "indexed": true,
          "internalType": "address",
          "name": "to",
          "type": "address"
        },
        {
          "indexed": true,
          "internalType": "uint256",
          "name": "id",
          "type": "uint256"
        }
      ],
      "name": "NftMinted",
      "type": "event"
    },
    {
      "anonymous": false,
      "inputs": [
        {
          "indexed": false,
          "internalType": "uint256",
          "name": "newEthPrice",
          "type": "uint256"
        }
      ],
      "name": "Synced",
      "type": "event"
    },
    {
      "anonymous": false,
      "inputs": [
        {
          "indexed": true,
          "internalType": "address",
          "name": "from",
          "type": "address"
        },
        {
          "indexed": true,
          "internalType": "address",
          "name": "to",
          "type": "address"
        },
        {
          "indexed": true,
          "internalType": "uint256",
          "name": "tokenId",
          "type": "uint256"
        }
      ],
      "name": "Transfer",
      "type": "event"
    },
    {
      "inputs": [],
      "name": "BLOCKS_BETWEEN_SYNCS",
      "outputs": [
        {
          "internalType": "uint256",
          "name": "",
          "type": "uint256"
        }
      ],
      "stateMutability": "view",
      "type": "function"
    },
    {
      "inputs": [],
      "name": "DEPOSIT_MINIMUM",
      "outputs": [
        {
          "internalType": "uint256",
          "name": "",
          "type": "uint256"
        }
      ],
      "stateMutability": "view",
      "type": "function"
    },
    {
      "inputs": [],
      "name": "MAX_SUPPLY",
      "outputs": [
        {
          "internalType": "uint256",
          "name": "",
          "type": "uint256"
        }
      ],
      "stateMutability": "view",
      "type": "function"
    },
    {
      "inputs": [],
      "name": "MIN_COLLATERIZATION_RATIO",
      "outputs": [
        {
          "internalType": "uint256",
          "name": "",
          "type": "uint256"
        }
      ],
      "stateMutability": "view",
      "type": "function"
    },
    {
      "inputs": [
        {
          "internalType": "address",
          "name": "to",
          "type": "address"
        },
        {
          "internalType": "uint256",
          "name": "tokenId",
          "type": "uint256"
        }
      ],
      "name": "approve",
      "outputs": [],
      "stateMutability": "nonpayable",
      "type": "function"
    },
    {
      "inputs": [
        {
          "internalType": "address",
          "name": "owner",
          "type": "address"
        }
      ],
      "name": "balanceOf",
      "outputs": [
        {
          "internalType": "uint256",
          "name": "",
          "type": "uint256"
        }
      ],
      "stateMutability": "view",
      "type": "function"
    },
    {
      "inputs": [
        {
          "internalType": "uint256",
          "name": "tokenId",
          "type": "uint256"
        }
      ],
      "name": "burn",
      "outputs": [],
      "stateMutability": "nonpayable",
      "type": "function"
    },
    {
      "inputs": [
        {
          "internalType": "uint256",
          "name": "id",
          "type": "uint256"
        },
        {
          "internalType": "uint256",
          "name": "amount",
          "type": "uint256"
        }
      ],
      "name": "deposit",
      "outputs": [
        {
          "internalType": "uint256",
          "name": "",
          "type": "uint256"
        }
      ],
      "stateMutability": "nonpayable",
      "type": "function"
    },
    {
      "inputs": [],
      "name": "dyad",
      "outputs": [
        {
          "internalType": "contract DYAD",
          "name": "",
          "type": "address"
        }
      ],
      "stateMutability": "view",
      "type": "function"
    },
    {
      "inputs": [
        {
          "internalType": "uint256",
          "name": "tokenId",
          "type": "uint256"
        }
      ],
      "name": "getApproved",
      "outputs": [
        {
          "internalType": "address",
          "name": "",
          "type": "address"
        }
      ],
      "stateMutability": "view",
      "type": "function"
    },
    {
      "inputs": [
        {
          "internalType": "uint256",
          "name": "",
          "type": "uint256"
        }
      ],
      "name": "idToNft",
      "outputs": [
        {
          "internalType": "uint256",
          "name": "withdrawn",
          "type": "uint256"
        },
        {
          "internalType": "int256",
          "name": "deposit",
          "type": "int256"
        },
        {
          "internalType": "uint256",
          "name": "xp",
          "type": "uint256"
        },
        {
          "internalType": "bool",
          "name": "isLiquidatable",
          "type": "bool"
        }
      ],
      "stateMutability": "view",
      "type": "function"
    },
    {
      "inputs": [
        {
          "internalType": "address",
          "name": "owner",
          "type": "address"
        },
        {
          "internalType": "address",
          "name": "operator",
          "type": "address"
        }
      ],
      "name": "isApprovedForAll",
      "outputs": [
        {
          "internalType": "bool",
          "name": "",
          "type": "bool"
        }
      ],
      "stateMutability": "view",
      "type": "function"
    },
    {
      "inputs": [],
      "name": "lastEthPrice",
      "outputs": [
        {
          "internalType": "uint256",
          "name": "",
          "type": "uint256"
        }
      ],
      "stateMutability": "view",
      "type": "function"
    },
    {
      "inputs": [],
      "name": "lastSyncedBlock",
      "outputs": [
        {
          "internalType": "uint256",
          "name": "",
          "type": "uint256"
        }
      ],
      "stateMutability": "view",
      "type": "function"
    },
    {
      "inputs": [
        {
          "internalType": "uint256",
          "name": "id",
          "type": "uint256"
        },
        {
          "internalType": "address",
          "name": "to",
          "type": "address"
        }
      ],
      "name": "liquidate",
      "outputs": [
        {
          "internalType": "uint256",
          "name": "",
          "type": "uint256"
        }
      ],
      "stateMutability": "payable",
      "type": "function"
    },
    {
      "inputs": [],
      "name": "maxXp",
      "outputs": [
        {
          "internalType": "uint256",
          "name": "",
          "type": "uint256"
        }
      ],
      "stateMutability": "view",
      "type": "function"
    },
    {
      "inputs": [],
      "name": "minXp",
      "outputs": [
        {
          "internalType": "uint256",
          "name": "",
          "type": "uint256"
        }
      ],
      "stateMutability": "view",
      "type": "function"
    },
    {
      "inputs": [
        {
          "internalType": "uint256",
          "name": "id",
          "type": "uint256"
        }
      ],
      "name": "mintDyad",
      "outputs": [
        {
          "internalType": "uint256",
          "name": "amount",
          "type": "uint256"
        }
      ],
      "stateMutability": "payable",
      "type": "function"
    },
    {
      "inputs": [
        {
          "internalType": "address",
          "name": "to",
          "type": "address"
        }
      ],
      "name": "mintNft",
      "outputs": [
        {
          "internalType": "uint256",
          "name": "",
          "type": "uint256"
        }
      ],
      "stateMutability": "payable",
      "type": "function"
    },
    {
      "inputs": [
        {
          "internalType": "uint256",
          "name": "_from",
          "type": "uint256"
        },
        {
          "internalType": "uint256",
          "name": "_to",
          "type": "uint256"
        },
        {
          "internalType": "uint256",
          "name": "amount",
          "type": "uint256"
        }
      ],
      "name": "moveDeposit",
      "outputs": [
        {
          "internalType": "uint256",
          "name": "",
          "type": "uint256"
        }
      ],
      "stateMutability": "nonpayable",
      "type": "function"
    },
    {
      "inputs": [],
      "name": "name",
      "outputs": [
        {
          "internalType": "string",
          "name": "",
          "type": "string"
        }
      ],
      "stateMutability": "view",
      "type": "function"
    },
    {
      "inputs": [],
      "name": "numberOfMints",
      "outputs": [
        {
          "internalType": "uint256",
          "name": "",
          "type": "uint256"
        }
      ],
      "stateMutability": "view",
      "type": "function"
    },
    {
      "inputs": [
        {
          "internalType": "uint256",
          "name": "tokenId",
          "type": "uint256"
        }
      ],
      "name": "ownerOf",
      "outputs": [
        {
          "internalType": "address",
          "name": "",
          "type": "address"
        }
      ],
      "stateMutability": "view",
      "type": "function"
    },
    {
      "inputs": [
        {
          "internalType": "uint256",
          "name": "id",
          "type": "uint256"
        },
        {
          "internalType": "uint256",
          "name": "amount",
          "type": "uint256"
        }
      ],
      "name": "redeem",
      "outputs": [
        {
          "internalType": "uint256",
          "name": "",
          "type": "uint256"
        }
      ],
      "stateMutability": "nonpayable",
      "type": "function"
    },
    {
      "inputs": [
        {
          "internalType": "address",
          "name": "from",
          "type": "address"
        },
        {
          "internalType": "address",
          "name": "to",
          "type": "address"
        },
        {
          "internalType": "uint256",
          "name": "tokenId",
          "type": "uint256"
        }
      ],
      "name": "safeTransferFrom",
      "outputs": [],
      "stateMutability": "nonpayable",
      "type": "function"
    },
    {
      "inputs": [
        {
          "internalType": "address",
          "name": "from",
          "type": "address"
        },
        {
          "internalType": "address",
          "name": "to",
          "type": "address"
        },
        {
          "internalType": "uint256",
          "name": "tokenId",
          "type": "uint256"
        },
        {
          "internalType": "bytes",
          "name": "data",
          "type": "bytes"
        }
      ],
      "name": "safeTransferFrom",
      "outputs": [],
      "stateMutability": "nonpayable",
      "type": "function"
    },
    {
      "inputs": [
        {
          "internalType": "address",
          "name": "operator",
          "type": "address"
        },
        {
          "internalType": "bool",
          "name": "approved",
          "type": "bool"
        }
      ],
      "name": "setApprovalForAll",
      "outputs": [],
      "stateMutability": "nonpayable",
      "type": "function"
    },
    {
      "inputs": [
        {
          "internalType": "bytes4",
          "name": "interfaceId",
          "type": "bytes4"
        }
      ],
      "name": "supportsInterface",
      "outputs": [
        {
          "internalType": "bool",
          "name": "",
          "type": "bool"
        }
      ],
      "stateMutability": "view",
      "type": "function"
    },
    {
      "inputs": [],
      "name": "symbol",
      "outputs": [
        {
          "internalType": "string",
          "name": "",
          "type": "string"
        }
      ],
      "stateMutability": "view",
      "type": "function"
    },
    {
      "inputs": [
        {
          "internalType": "uint256",
          "name": "id",
          "type": "uint256"
        }
      ],
      "name": "sync",
      "outputs": [
        {
          "internalType": "uint256",
          "name": "",
          "type": "uint256"
        }
      ],
      "stateMutability": "nonpayable",
      "type": "function"
    },
    {
      "inputs": [
        {
          "internalType": "uint256",
          "name": "index",
          "type": "uint256"
        }
      ],
      "name": "tokenByIndex",
      "outputs": [
        {
          "internalType": "uint256",
          "name": "",
          "type": "uint256"
        }
      ],
      "stateMutability": "view",
      "type": "function"
    },
    {
      "inputs": [
        {
          "internalType": "address",
          "name": "owner",
          "type": "address"
        },
        {
          "internalType": "uint256",
          "name": "index",
          "type": "uint256"
        }
      ],
      "name": "tokenOfOwnerByIndex",
      "outputs": [
        {
          "internalType": "uint256",
          "name": "",
          "type": "uint256"
        }
      ],
      "stateMutability": "view",
      "type": "function"
    },
    {
      "inputs": [
        {
          "internalType": "uint256",
          "name": "tokenId",
          "type": "uint256"
        }
      ],
      "name": "tokenURI",
      "outputs": [
        {
          "internalType": "string",
          "name": "",
          "type": "string"
        }
      ],
      "stateMutability": "view",
      "type": "function"
    },
    {
      "inputs": [],
      "name": "totalSupply",
      "outputs": [
        {
          "internalType": "uint256",
          "name": "",
          "type": "uint256"
        }
      ],
      "stateMutability": "view",
      "type": "function"
    },
    {
      "inputs": [
        {
          "internalType": "address",
          "name": "from",
          "type": "address"
        },
        {
          "internalType": "address",
          "name": "to",
          "type": "address"
        },
        {
          "internalType": "uint256",
          "name": "tokenId",
          "type": "uint256"
        }
      ],
      "name": "transferFrom",
      "outputs": [],
      "stateMutability": "nonpayable",
      "type": "function"
    },
    {
      "inputs": [
        {
          "internalType": "uint256",
          "name": "id",
          "type": "uint256"
        },
        {
          "internalType": "uint256",
          "name": "amount",
          "type": "uint256"
        }
      ],
      "name": "withdraw",
      "outputs": [
        {
          "internalType": "uint256",
          "name": "",
          "type": "uint256"
        }
      ],
      "stateMutability": "nonpayable",
      "type": "function"
    }
  ],
  "bytecode": {
    "object": "0x6101006040523480156200001257600080fd5b506040516200489a3803806200489a833981016040819052620000359162000911565b60405180604001604052806008815260200167111650510813919560c21b815250604051806040016040528060048152602001631913919560e21b815250816000908162000084919062000ac1565b50600162000093828262000ac1565b50506001600a5550601180546001600160a01b03808a166001600160a01b0319928316179092556012805492851692909116919091179055620000d56200015f565b600b5560c084905260a086905260e08590526080839052600e839055620000fe83600262000ba3565b600f5560005b815181101562000151576200013b82828151811062000127576200012762000bc3565b6020026020010151620001e760201b60201c565b5080620001488162000bd9565b91505062000104565b505050505050505062000ca4565b600080601260009054906101000a90046001600160a01b03166001600160a01b031663feaf968c6040518163ffffffff1660e01b815260040160a060405180830381865afa158015620001b6573d6000803e3d6000fd5b505050506040513d601f19601f82011682018060405250810190620001dc919062000c0d565b509195945050505050565b608051600090620001f760085490565b106200023f5760405162461bcd60e51b815260206004820152601260248201527113585e081cdd5c1c1b1e481c995858da195960721b60448201526064015b60405180910390fd5b50600c805490600190600062000256838562000c62565b909155506200026890508282620002eb565b600081815260106020526040902060016200028260085490565b6200028e919062000c78565b6080516200029e90600262000ba3565b620002aa919062000c78565b600282015560405182906001600160a01b038516907ff2b290a76feb54be358b555507421d765609171aefa0646f109a653228ff81b890600090a350919050565b6001600160a01b038216620003435760405162461bcd60e51b815260206004820181905260248201527f4552433732313a206d696e7420746f20746865207a65726f2061646472657373604482015260640162000236565b6000818152600260205260409020546001600160a01b031615620003aa5760405162461bcd60e51b815260206004820152601c60248201527f4552433732313a20746f6b656e20616c7265616479206d696e74656400000000604482015260640162000236565b620003ba6000838360016200048c565b6000818152600260205260409020546001600160a01b031615620004215760405162461bcd60e51b815260206004820152601c60248201527f4552433732313a20746f6b656e20616c7265616479206d696e74656400000000604482015260640162000236565b6001600160a01b038216600081815260036020908152604080832080546001019055848352600290915280822080546001600160a01b0319168417905551839291907fddf252ad1be2c89b69c2b068fc378daa952ba7f163c4a11628f55a4df523b3ef908290a45050565b620004a584848484620004ab60201b62001b001760201c565b50505050565b620004c4848484846200060f60201b62001c401760201c565b60018111156200053d5760405162461bcd60e51b815260206004820152603560248201527f455243373231456e756d657261626c653a20636f6e736563757469766520747260448201527f616e7366657273206e6f7420737570706f727465640000000000000000000000606482015260840162000236565b816001600160a01b0385166200059c576200059681600880546000838152600960205260408120829055600182018355919091527ff3f7a9fe364faab93b216da50a3214154f22a0a2b415b23a84c8169e8b636ee30155565b620005c2565b836001600160a01b0316856001600160a01b031614620005c257620005c285826200069e565b6001600160a01b038416620005e257620005dc816200074b565b62000608565b846001600160a01b0316846001600160a01b031614620006085762000608848262000805565b5050505050565b6001811115620004a5576001600160a01b0384161562000659576001600160a01b038416600090815260036020526040812080548392906200065390849062000c78565b90915550505b6001600160a01b03831615620004a5576001600160a01b038316600090815260036020526040812080548392906200069390849062000c62565b909155505050505050565b60006001620006b8846200085660201b620010e51760201c565b620006c4919062000c78565b60008381526007602052604090205490915080821462000718576001600160a01b03841660009081526006602090815260408083208584528252808320548484528184208190558352600790915290208190555b5060009182526007602090815260408084208490556001600160a01b039094168352600681528383209183525290812055565b6008546000906200075f9060019062000c78565b600083815260096020526040812054600880549394509092849081106200078a576200078a62000bc3565b906000526020600020015490508060088381548110620007ae57620007ae62000bc3565b6000918252602080832090910192909255828152600990915260408082208490558582528120556008805480620007e957620007e962000c8e565b6001900381819060005260206000200160009055905550505050565b60006200081d836200085660201b620010e51760201c565b6001600160a01b039093166000908152600660209081526040808320868452825280832085905593825260079052919091209190915550565b60006001600160a01b038216620008c25760405162461bcd60e51b815260206004820152602960248201527f4552433732313a2061646472657373207a65726f206973206e6f7420612076616044820152683634b21037bbb732b960b91b606482015260840162000236565b506001600160a01b031660009081526003602052604090205490565b80516001600160a01b0381168114620008f657600080fd5b919050565b634e487b7160e01b600052604160045260246000fd5b600080600080600080600060e0888a0312156200092d57600080fd5b6200093888620008de565b965060208089015196506040890151955060608901519450608089015193506200096560a08a01620008de565b60c08a01519093506001600160401b03808211156200098357600080fd5b818b0191508b601f8301126200099857600080fd5b815181811115620009ad57620009ad620008fb565b8060051b604051601f19603f83011681018181108582111715620009d557620009d5620008fb565b60405291825284820192508381018501918e831115620009f457600080fd5b938501935b8285101562000a1d5762000a0d85620008de565b84529385019392850192620009f9565b80965050505050505092959891949750929550565b600181811c9082168062000a4757607f821691505b60208210810362000a6857634e487b7160e01b600052602260045260246000fd5b50919050565b601f82111562000abc57600081815260208120601f850160051c8101602086101562000a975750805b601f850160051c820191505b8181101562000ab85782815560010162000aa3565b5050505b505050565b81516001600160401b0381111562000add5762000add620008fb565b62000af58162000aee845462000a32565b8462000a6e565b602080601f83116001811462000b2d576000841562000b145750858301515b600019600386901b1c1916600185901b17855562000ab8565b600085815260208120601f198616915b8281101562000b5e5788860151825594840194600190910190840162000b3d565b508582101562000b7d5787850151600019600388901b60f8161c191681555b5050505050600190811b01905550565b634e487b7160e01b600052601160045260246000fd5b808202811582820484141762000bbd5762000bbd62000b8d565b92915050565b634e487b7160e01b600052603260045260246000fd5b60006001820162000bee5762000bee62000b8d565b5060010190565b80516001600160501b0381168114620008f657600080fd5b600080600080600060a0868803121562000c2657600080fd5b62000c318662000bf5565b945060208601519350604086015192506060860151915062000c566080870162000bf5565b90509295509295909350565b8082018082111562000bbd5762000bbd62000b8d565b8181038181111562000bbd5762000bbd62000b8d565b634e487b7160e01b600052603160045260246000fd5b60805160a05160c05160e051613b9962000d01600039600081816104fa01526113c10152600081816103960152610c4f0152600081816105ef015261189801526000818161034c0152818161262f01526126e60152613b996000f3fe60806040526004361061020f5760003560e01c80636352211e11610118578063ae34b6e1116100a0578063e2bbb1581161006f578063e2bbb15814610671578063e985e9c514610691578063e9c2e14b146106da578063f0cb3d67146106ed578063fb9103cc1461070d57600080fd5b8063ae34b6e1146105dd578063b1357bf914610611578063b88d4fde14610631578063c87b56dd1461065157600080fd5b80637cbc2373116100e75780637cbc237314610552578063959f78571461057257806395d89b4114610588578063a22cb4651461059d578063add95a51146105bd57600080fd5b80636352211e146104c85780636fd180c5146104e85780637038fc4e1461051c57806370a082311461053257600080fd5b806333d5ac9b1161019b57806342966c681161016a57806342966c68146103ee578063441a3e701461040e578063483afb2d1461042e5780634f6ccce7146104955780635fae8b3d146104b557600080fd5b806333d5ac9b1461036e57806335f2faf014610384578063413217b7146103b857806342842e0e146103ce57600080fd5b806318160ddd116101e257806318160ddd146102c557806323b872dd146102e45780632dd0115d146103045780632f745c591461031a57806332cb6b0c1461033a57600080fd5b806301ffc9a71461021457806306fdde0314610249578063081812fc1461026b578063095ea7b3146102a3575b600080fd5b34801561022057600080fd5b5061023461022f36600461345f565b610720565b60405190151581526020015b60405180910390f35b34801561025557600080fd5b5061025e610731565b60405161024091906134cc565b34801561027757600080fd5b5061028b6102863660046134df565b6107c3565b6040516001600160a01b039091168152602001610240565b3480156102af57600080fd5b506102c36102be36600461350d565b6107ea565b005b3480156102d157600080fd5b506008545b604051908152602001610240565b3480156102f057600080fd5b506102c36102ff366004613539565b610904565b34801561031057600080fd5b506102d6600e5481565b34801561032657600080fd5b506102d661033536600461350d565b610936565b34801561034657600080fd5b506102d67f000000000000000000000000000000000000000000000000000000000000000081565b34801561037a57600080fd5b506102d6600d5481565b34801561039057600080fd5b506102d67f000000000000000000000000000000000000000000000000000000000000000081565b3480156103c457600080fd5b506102d6600f5481565b3480156103da57600080fd5b506102c36103e9366004613539565b6109cc565b3480156103fa57600080fd5b506102c36104093660046134df565b6109e7565b34801561041a57600080fd5b506102d661042936600461357a565b610a18565b34801561043a57600080fd5b506104736104493660046134df565b60106020526000908152604090208054600182015460028301546003909301549192909160ff1684565b6040805194855260208501939093529183015215156060820152608001610240565b3480156104a157600080fd5b506102d66104b03660046134df565b610e93565b6102d66104c336600461359c565b610f26565b3480156104d457600080fd5b5061028b6104e33660046134df565b611085565b3480156104f457600080fd5b506102d67f000000000000000000000000000000000000000000000000000000000000000081565b34801561052857600080fd5b506102d6600b5481565b34801561053e57600080fd5b506102d661054d3660046135cc565b6110e5565b34801561055e57600080fd5b506102d661056d36600461357a565b61116b565b34801561057e57600080fd5b506102d6600c5481565b34801561059457600080fd5b5061025e611397565b3480156105a957600080fd5b506102c36105b83660046135f7565b6113a6565b3480156105c957600080fd5b5060115461028b906001600160a01b031681565b3480156105e957600080fd5b506102d67f000000000000000000000000000000000000000000000000000000000000000081565b34801561061d57600080fd5b506102d661062c3660046134df565b6113b5565b34801561063d57600080fd5b506102c361064c36600461363b565b6115f5565b34801561065d57600080fd5b5061025e61066c3660046134df565b61162d565b34801561067d57600080fd5b506102d661068c36600461357a565b6116a1565b34801561069d57600080fd5b506102346106ac36600461371b565b6001600160a01b03918216600090815260056020908152604080832093909416825291909152205460ff1690565b6102d66106e83660046135cc565b61182c565b3480156106f957600080fd5b506102d6610708366004613749565b6118e9565b6102d661071b3660046134df565b611a54565b600061072b82611cc8565b92915050565b60606000805461074090613775565b80601f016020809104026020016040519081016040528092919081815260200182805461076c90613775565b80156107b95780601f1061078e576101008083540402835291602001916107b9565b820191906000526020600020905b81548152906001019060200180831161079c57829003601f168201915b5050505050905090565b60006107ce82611ced565b506000908152600460205260409020546001600160a01b031690565b60006107f582611085565b9050806001600160a01b0316836001600160a01b0316036108675760405162461bcd60e51b815260206004820152602160248201527f4552433732313a20617070726f76616c20746f2063757272656e74206f776e656044820152603960f91b60648201526084015b60405180910390fd5b336001600160a01b0382161480610883575061088381336106ac565b6108f55760405162461bcd60e51b815260206004820152603d60248201527f4552433732313a20617070726f76652063616c6c6572206973206e6f7420746f60448201527f6b656e206f776e6572206f7220617070726f76656420666f7220616c6c000000606482015260840161085e565b6108ff8383611d4c565b505050565b61090f335b82611dba565b61092b5760405162461bcd60e51b815260040161085e906137a9565b6108ff838383611e39565b6000610941836110e5565b82106109a35760405162461bcd60e51b815260206004820152602b60248201527f455243373231456e756d657261626c653a206f776e657220696e646578206f7560448201526a74206f6620626f756e647360a81b606482015260840161085e565b506001600160a01b03919091166000908152600660209081526040808320938352929052205490565b6108ff838383604051806020016040528060008152506115f5565b6109f033610909565b610a0c5760405162461bcd60e51b815260040161085e906137a9565b610a1581611faa565b50565b6000610a2261204d565b6040516331a9108f60e11b815260048101849052839033903090636352211e90602401602060405180830381865afa158015610a62573d6000803e3d6000fd5b505050506040513d601f19601f82011682018060405250810190610a8691906137f6565b6001600160a01b031614610aac5760405162461bcd60e51b815260040161085e90613813565b8280600003610acd5760405162461bcd60e51b815260040161085e9061384a565b60008581526010602052604090206001810154851315610b2f5760405162461bcd60e51b815260206004820152601960248201527f644e46543a2057697468647261776c203e206465706f73697400000000000000604482015260640161085e565b6011546040516370a0823160e01b815230600482015260009187916001600160a01b03909116906370a0823190602401602060405180830381865afa158015610b7c573d6000803e3d6000fd5b505050506040513d601f19601f82011682018060405250810190610ba09190613881565b610baa91906138b0565b9050600081601160009054906101000a90046001600160a01b03166001600160a01b03166318160ddd6040518163ffffffff1660e01b8152600401602060405180830381865afa158015610c02573d6000803e3d6000fd5b505050506040513d601f19601f82011682018060405250810190610c269190613881565b610c3091906138b0565b9050600081610c41846127106138c3565b610c4b91906138da565b90507f0000000000000000000000000000000000000000000000000000000000000000811015610cb65760405162461bcd60e51b8152602060048201526016602482015275644e46543a20435220697320756e646572203135302560501b604482015260640161085e565b8354600090610cc6908a906138fc565b90506000610cd360085490565b6011546040516370a0823160e01b81523060048201526001600160a01b03909116906370a0823190602401602060405180830381865afa158015610d1b573d6000803e3d6000fd5b505050506040513d601f19601f82011682018060405250810190610d3f9190613881565b610d4991906138da565b905080821115610da55760405162461bcd60e51b815260206004820152602160248201527f644e46543a204e65772057697468647261776c203e20617665726167652054566044820152601360fa1b606482015260840161085e565b8186556001860180548b9190600090610dbf90849061390f565b909155505060115460405163a9059cbb60e01b8152336004820152602481018c90526000916001600160a01b03169063a9059cbb906044016020604051808303816000875af1158015610e16573d6000803e3d6000fd5b505050506040513d601f19601f82011682018060405250810190610e3a9190613936565b905080610e4657600080fd5b6040518b81528c9033907f97c68706573f736c58fd91ea1dd5982061ea2b11e1ec1647ca0a9e7da2b3ecad9060200160405180910390a38a995050505050505050505061072b6001600a55565b6000610e9e60085490565b8210610f015760405162461bcd60e51b815260206004820152602c60248201527f455243373231456e756d657261626c653a20676c6f62616c20696e646578206f60448201526b7574206f6620626f756e647360a01b606482015260840161085e565b60088281548110610f1457610f14613953565b90600052602060002001549050919050565b6000610f3061204d565b816001600160a01b038116610f875760405162461bcd60e51b815260206004820152601c60248201527f644e46543a20416464726573732063616e6e6f74206265207a65726f00000000604482015260640161085e565b60008481526010602090815260409182902082516080810184528154815260018201549281019290925260028101549282019290925260039091015460ff1615156060820181905261101b5760405162461bcd60e51b815260206004820152601d60248201527f644e46543a204e4654206973206e6f74206c6971756964617461626c65000000604482015260640161085e565b836001600160a01b031661102e86611085565b6001600160a01b0316867f62f2b0e4889a8f1f033f49a00b0f19dde517bdf2fd1a73367a71f4b188769cc460405160405180910390a461106d85611faa565b61107784826120a6565b9250505061072b6001600a55565b6000818152600260205260408120546001600160a01b03168061072b5760405162461bcd60e51b8152602060048201526018602482015277115490cdcc8c4e881a5b9d985b1a59081d1bdad95b88125160421b604482015260640161085e565b60006001600160a01b03821661114f5760405162461bcd60e51b815260206004820152602960248201527f4552433732313a2061646472657373207a65726f206973206e6f7420612076616044820152683634b21037bbb732b960b91b606482015260840161085e565b506001600160a01b031660009081526003602052604090205490565b600061117561204d565b6040516331a9108f60e11b815260048101849052839033903090636352211e90602401602060405180830381865afa1580156111b5573d6000803e3d6000fd5b505050506040513d601f19601f820116820180604052508101906111d991906137f6565b6001600160a01b0316146111ff5760405162461bcd60e51b815260040161085e90613813565b82806000036112205760405162461bcd60e51b815260040161085e9061384a565b6000858152601060205260409020805485111561128a5760405162461bcd60e51b815260206004820152602260248201527f644e46543a20416d6f756e7420746f2072656465656d203e20776974686472616044820152613bb760f11b606482015260840161085e565b8481600001600082825461129e91906138b0565b9091555050601154604051630852cd8d60e31b8152600481018790526001600160a01b03909116906342966c6890602401600060405180830381600087803b1580156112e957600080fd5b505af11580156112fd573d6000803e3d6000fd5b505050506000600b54866305f5e10061131691906138c3565b61132091906138da565b604051909150339082156108fc029083906000818181858888f19350505050158015611350573d6000803e3d6000fd5b50604051868152879033907f978afd9cd3f8b45b5bc6b990498f81efbcd4bbb929648dd2eb337276971de0f29060200160405180910390a3935050505061072b6001600a55565b60606001805461074090613775565b6113b133838361211c565b5050565b60006113bf61204d565b7f0000000000000000000000000000000000000000000000000000000000000000600d546113ed91906138fc565b4310156114355760405162461bcd60e51b8152602060048201526016602482015275644e46543a20546f6f20736f6f6e20746f2073796e6360501b604482015260640161085e565b43600d5560006114436121ea565b90506000600b54821161145757600061145a565b60015b90506000600b548361271061146f91906138c3565b61147991906138da565b9050600082600181111561148f5761148f613969565b146114a8576114a0612710826138b0565b9050806114b8565b6114b4816127106138b0565b9050805b5060006114c682848861226f565b905060018360018111156114dc576114dc613969565b1461154457601154604051630852cd8d60e31b8152600481018390526001600160a01b03909116906342966c6890602401600060405180830381600087803b15801561152757600080fd5b505af115801561153b573d6000803e3d6000fd5b505050506115a9565b6011546040516340c10f1960e01b8152306004820152602481018390526001600160a01b03909116906340c10f1990604401600060405180830381600087803b15801561159057600080fd5b505af11580156115a4573d6000803e3d6000fd5b505050505b600b8490556040518481527fff14d8520387b9b85d2a017dc41ae15db04a22d4c67deac04eb45048631ffa869060200160405180910390a193505050506115f06001600a55565b919050565b6115ff3383611dba565b61161b5760405162461bcd60e51b815260040161085e906137a9565b61162784848484612567565b50505050565b606061163882611ced565b600061164f60408051602081019091526000815290565b9050600081511161166f576040518060200160405280600081525061169a565b806116798461259a565b60405160200161168a92919061397f565b6040516020818303038152906040525b9392505050565b60006116ab61204d565b81806000036116cc5760405162461bcd60e51b815260040161085e9061384a565b6000848152601060205260409020805484111561172b5760405162461bcd60e51b815260206004820152601960248201527f644e46543a204465706f736974203e2077697468647261776e00000000000000604482015260640161085e565b8381600101600082825461173f91906139ae565b90915550508054849082906000906117589084906138b0565b90915550506011546040516323b872dd60e01b8152336004820152306024820152604481018690526000916001600160a01b0316906323b872dd906064016020604051808303816000875af11580156117b5573d6000803e3d6000fd5b505050506040513d601f19601f820116820180604052508101906117d99190613936565b9050806117e557600080fd5b604051858152869033907fb2b57d77f3386e7108afb8ee9a58008631e884cb4ff8cc775d3d5b6c77a442629060200160405180910390a384935050505061072b6001600a55565b6000816001600160a01b0381166118855760405162461bcd60e51b815260206004820152601c60248201527f644e46543a20416464726573732063616e6e6f74206265207a65726f00000000604482015260640161085e565b60006118908461262b565b90506118bc817f0000000000000000000000000000000000000000000000000000000000000000612757565b50600081815260106020526040902060020154600e548110156118df57600e8190555b5091505b50919050565b60006118f361204d565b6040516331a9108f60e11b815260048101859052849033903090636352211e90602401602060405180830381865afa158015611933573d6000803e3d6000fd5b505050506040513d601f19601f8201168201806040525081019061195791906137f6565b6001600160a01b03161461197d5760405162461bcd60e51b815260040161085e90613813565b828060000361199e5760405162461bcd60e51b815260040161085e9061384a565b60008681526010602052604090206001810154851315611a005760405162461bcd60e51b815260206004820152601e60248201527f644e46543a20416d6f756e7420746f206d6f7665203e206465706f7369740000604482015260640161085e565b600086815260106020526040812060018301805491928892611a2390849061390f565b9250508190555085816001016000828254611a3e91906139ae565b90915550869550505050505061169a6001600a55565b6000611a5e61204d565b6040516331a9108f60e11b815260048101839052829033903090636352211e90602401602060405180830381865afa158015611a9e573d6000803e3d6000fd5b505050506040513d601f19601f82011682018060405250810190611ac291906137f6565b6001600160a01b031614611ae85760405162461bcd60e51b815260040161085e90613813565b611af3836000612757565b9150506115f06001600a55565b611b0c84848484611c40565b6001811115611b7b5760405162461bcd60e51b815260206004820152603560248201527f455243373231456e756d657261626c653a20636f6e7365637574697665207472604482015274185b9cd9995c9cc81b9bdd081cdd5c1c1bdc9d1959605a1b606482015260840161085e565b816001600160a01b038516611bd757611bd281600880546000838152600960205260408120829055600182018355919091527ff3f7a9fe364faab93b216da50a3214154f22a0a2b415b23a84c8169e8b636ee30155565b611bfa565b836001600160a01b0316856001600160a01b031614611bfa57611bfa85826128df565b6001600160a01b038416611c1657611c118161297c565b611c39565b846001600160a01b0316846001600160a01b031614611c3957611c398482612a2b565b5050505050565b6001811115611627576001600160a01b03841615611c86576001600160a01b03841660009081526003602052604081208054839290611c809084906138b0565b90915550505b6001600160a01b03831615611627576001600160a01b03831660009081526003602052604081208054839290611cbd9084906138fc565b909155505050505050565b60006001600160e01b0319821663780e9d6360e01b148061072b575061072b82612a6f565b6000818152600260205260409020546001600160a01b0316610a155760405162461bcd60e51b8152602060048201526018602482015277115490cdcc8c4e881a5b9d985b1a59081d1bdad95b88125160421b604482015260640161085e565b600081815260046020526040902080546001600160a01b0319166001600160a01b0384169081179091558190611d8182611085565b6001600160a01b03167f8c5be1e5ebec7d5bd14f71427d1e84f3dd0314c0f7b2291e5b200ac8c7c3b92560405160405180910390a45050565b600080611dc683611085565b9050806001600160a01b0316846001600160a01b03161480611e0d57506001600160a01b0380821660009081526005602090815260408083209388168352929052205460ff165b80611e315750836001600160a01b0316611e26846107c3565b6001600160a01b0316145b949350505050565b826001600160a01b0316611e4c82611085565b6001600160a01b031614611e725760405162461bcd60e51b815260040161085e906139d6565b6001600160a01b038216611ed45760405162461bcd60e51b8152602060048201526024808201527f4552433732313a207472616e7366657220746f20746865207a65726f206164646044820152637265737360e01b606482015260840161085e565b611ee18383836001612abf565b826001600160a01b0316611ef482611085565b6001600160a01b031614611f1a5760405162461bcd60e51b815260040161085e906139d6565b600081815260046020908152604080832080546001600160a01b03199081169091556001600160a01b0387811680865260038552838620805460001901905590871680865283862080546001019055868652600290945282852080549092168417909155905184937fddf252ad1be2c89b69c2b068fc378daa952ba7f163c4a11628f55a4df523b3ef91a4505050565b6000611fb582611085565b9050611fc5816000846001612abf565b611fce82611085565b600083815260046020908152604080832080546001600160a01b03199081169091556001600160a01b0385168085526003845282852080546000190190558785526002909352818420805490911690555192935084927fddf252ad1be2c89b69c2b068fc378daa952ba7f163c4a11628f55a4df523b3ef908390a45050565b6002600a540361209f5760405162461bcd60e51b815260206004820152601f60248201527f5265656e7472616e637947756172643a207265656e7472616e742063616c6c00604482015260640161085e565b6002600a55565b6000806120b28461262b565b6000818152601060209081526040822090860151929350918113156120e25784602001516120df90613a1b565b90505b60006120ee8483612757565b905085602001518161210091906139ae565b6001840155505060408401516002820155925190925550919050565b816001600160a01b0316836001600160a01b03160361217d5760405162461bcd60e51b815260206004820152601960248201527f4552433732313a20617070726f766520746f2063616c6c657200000000000000604482015260640161085e565b6001600160a01b03838116600081815260056020908152604080832094871680845294825291829020805460ff191686151590811790915591519182527f17307eab39ab6107e8899845ad3d59bd9653f200f220920489ca2b5937696c31910160405180910390a3505050565b600080601260009054906101000a90046001600160a01b03166001600160a01b031663feaf968c6040518163ffffffff1660e01b815260040160a060405180830381865afa158015612240573d6000803e3d6000fd5b505050506040513d601f19601f820116820180604052508101906122649190613a51565b509195945050505050565b6000806122f2601160009054906101000a90046001600160a01b03166001600160a01b03166318160ddd6040518163ffffffff1660e01b8152600401602060405180830381865afa1580156122c8573d6000803e3d6000fd5b505050506040513d601f19601f820116820180604052508101906122ec9190613881565b86612acb565b905060006123008585612ae4565b600f5460208201519192506000199160000361231e57600160208401525b600061232960085490565b905060005b8181101561255357600061234182610e93565b9050600086602001518760000151848151811061236057612360613953565b602002602001015161271061237591906138c3565b61237f91906138da565b9050600061238d8983612acb565b60008481526010602090815260408083208151608081018352815481526001820154938101939093526002810154918301919091526003015460ff1615156060820152919250808e60018111156123e6576123e6613969565b1480156123f7575060008260200151135b15612448578960400151868151811061241257612412613953565b602002602001015183606461242791906138c3565b61243191906138da565b9050848d03612448576124456002826138c3565b90505b60008e600181111561245c5761245c613969565b036124a1578282602001818151612473919061390f565b905250612488670de0b6b3a7640000826138da565b8260400181815161249991906138fc565b9052506124b7565b82826020018181516124b391906139ae565b9052505b60008260200151126124d1576000606083018190526124db565b6001606083018190525b5060008581526010602090815260409182902084518155908401516001820155908301516002820181905560608401516003909201805460ff19169215159290921790915589111561252f57816040015198505b878260400151111561254357816040015197505b856001019550505050505061232e565b5050600e91909155600f5550949350505050565b612572848484611e39565b61257e84848484612d56565b6116275760405162461bcd60e51b815260040161085e90613aa1565b606060006125a783612e57565b600101905060008167ffffffffffffffff8111156125c7576125c7613625565b6040519080825280601f01601f1916602001820160405280156125f1576020820181803683370190505b5090508181016020015b600019016f181899199a1a9b1b9c1cb0b131b232b360811b600a86061a8153600a8504945084156118df576125fb565b60007f000000000000000000000000000000000000000000000000000000000000000061265760085490565b106126995760405162461bcd60e51b815260206004820152601260248201527113585e081cdd5c1c1b1e481c995858da195960721b604482015260640161085e565b50600c80549060019060006126ae83856138fc565b909155506126be90508282612f2f565b600081815260106020526040902060016126d760085490565b6126e191906138b0565b61270c7f000000000000000000000000000000000000000000000000000000000000000060026138c3565b61271691906138b0565b600282015560405182906001600160a01b038516907ff2b290a76feb54be358b555507421d765609171aefa0646f109a653228ff81b890600090a350919050565b600080341161279f5760405162461bcd60e51b81526020600482015260146024820152730644e46543a206d73672e76616c7565203d3d20360641b604482015260640161085e565b60006305f5e100346127af6121ea565b6127b991906138c3565b6127c391906138da565b9050828110156128155760405162461bcd60e51b815260206004820152601960248201527f506f6f6c3a206e657744796164203c206d696e416d6f756e7400000000000000604482015260640161085e565b6011546040516340c10f1960e01b8152306004820152602481018390526001600160a01b03909116906340c10f1990604401600060405180830381600087803b15801561286157600080fd5b505af1158015612875573d6000803e3d6000fd5b5050506000858152601060205260408120600101805484935090919061289c9084906139ae565b9091555050604051818152849033907f3a7ec3c4655340144c5d88cd1e88cf7146e64e9a6d3db1b306f130db3579fdb49060200160405180910390a39392505050565b600060016128ec846110e5565b6128f691906138b0565b600083815260076020526040902054909150808214612949576001600160a01b03841660009081526006602090815260408083208584528252808320548484528184208190558352600790915290208190555b5060009182526007602090815260408084208490556001600160a01b039094168352600681528383209183525290812055565b60085460009061298e906001906138b0565b600083815260096020526040812054600880549394509092849081106129b6576129b6613953565b9060005260206000200154905080600883815481106129d7576129d7613953565b6000918252602080832090910192909255828152600990915260408082208490558582528120556008805480612a0f57612a0f613af3565b6001900381819060005260206000200160009055905550505050565b6000612a36836110e5565b6001600160a01b039093166000908152600660209081526040808320868452825280832085905593825260079052919091209190915550565b60006001600160e01b031982166380ac58cd60e01b1480612aa057506001600160e01b03198216635b5e139f60e01b145b8061072b57506301ffc9a760e01b6001600160e01b031983161461072b565b61162784848484611b00565b6000612710612ada83856138c3565b61169a91906138da565b612b0860405180606001604052806060815260200160008152602001606081525090565b6000612b1360085490565b90506000601160009054906101000a90046001600160a01b03166001600160a01b03166318160ddd6040518163ffffffff1660e01b8152600401602060405180830381865afa158015612b6a573d6000803e3d6000fd5b505050506040513d601f19601f82011682018060405250810190612b8e9190613881565b90506000808367ffffffffffffffff811115612bac57612bac613625565b604051908082528060200260200182016040528015612bd5578160200160208202803683370190505b50905060008467ffffffffffffffff811115612bf357612bf3613625565b604051908082528060200260200182016040528015612c1c578160200160208202803683370190505b50905060005b85811015612d30576000612c3582610e93565b60008181526010602090815260408083208151608081018352815481526001820154938101939093526002810154918301919091526003015460ff1615156060820152919250612c878c838b8b6130c8565b905060018c6001811115612c9d57612c9d613969565b148015612ca95750828b145b15612ccf578051612cbc906105dc612acb565b81518290612ccb9083906138fc565b9052505b8060000151868581518110612ce657612ce6613953565b60209081029190910101528051612cfd90886138fc565b96508060200151858581518110612d1657612d16613953565b602002602001018181525050836001019350505050612c22565b506040805160608101825292835260208301939093529181019190915295945050505050565b60006001600160a01b0384163b15612e4c57604051630a85bd0160e11b81526001600160a01b0385169063150b7a0290612d9a903390899088908890600401613b09565b6020604051808303816000875af1925050508015612dd5575060408051601f3d908101601f19168201909252612dd291810190613b46565b60015b612e32573d808015612e03576040519150601f19603f3d011682016040523d82523d6000602084013e612e08565b606091505b508051600003612e2a5760405162461bcd60e51b815260040161085e90613aa1565b805181602001fd5b6001600160e01b031916630a85bd0160e11b149050611e31565b506001949350505050565b60008072184f03e93ff9f4daa797ed6e38ed64bf6a1f0160401b8310612e965772184f03e93ff9f4daa797ed6e38ed64bf6a1f0160401b830492506040015b6d04ee2d6d415b85acef81000000008310612ec2576d04ee2d6d415b85acef8100000000830492506020015b662386f26fc100008310612ee057662386f26fc10000830492506010015b6305f5e1008310612ef8576305f5e100830492506008015b6127108310612f0c57612710830492506004015b60648310612f1e576064830492506002015b600a831061072b5760010192915050565b6001600160a01b038216612f855760405162461bcd60e51b815260206004820181905260248201527f4552433732313a206d696e7420746f20746865207a65726f2061646472657373604482015260640161085e565b6000818152600260205260409020546001600160a01b031615612fea5760405162461bcd60e51b815260206004820152601c60248201527f4552433732313a20746f6b656e20616c7265616479206d696e74656400000000604482015260640161085e565b612ff8600083836001612abf565b6000818152600260205260409020546001600160a01b03161561305d5760405162461bcd60e51b815260206004820152601c60248201527f4552433732313a20746f6b656e20616c7265616479206d696e74656400000000604482015260640161085e565b6001600160a01b038216600081815260036020908152604080832080546001019055848352600290915280822080546001600160a01b0319168417905551839291907fddf252ad1be2c89b69c2b068fc378daa952ba7f163c4a11628f55a4df523b3ef908290a45050565b6040805180820190915260008082526020820152600080600086602001511315613241576000600e54600f546130fe91906138b0565b90508060000361310c575060015b600081600e54896040015161312191906138b0565b61312d906127106138c3565b61313791906138da565b905060008860200151896000015161314f91906138fc565b9050600061315d89896138da565b905060008161316e846127106138c3565b61317891906138da565b905060008c600181111561318e5761318e613969565b14801561319c5750614e2081115b156131a65750614e205b6131b96131b46064866138da565b61325c565b955060008c60018111156131cf576131cf613969565b036131e3576131e08661012c6138b0565b95505b60006131f08460016138fc565b60208d0151613201906127106138c3565b61320b91906138da565b905060008d600181111561322157613221613969565b1461322c578061322e565b815b61323890886138c3565b97505050505050505b60408051808201909152918252602082015295945050505050565b600060648211156132c55760405162461bcd60e51b815260206004820152602d60248201527f506f6f6c4c6962726172793a207870206f7574206f662072616e67652028302060448201526c3c3d207870203c3d203130302960981b606482015260840161085e565b603d8210156132d657506032919050565b604080516105008101825260338082526020820181905291810182905260608101919091526034608080830191909152603560a080840182905260c0840191909152603660e084015260376101008401526039610120840152603a610140840152603c610160840152603f61018084015260426101a084015260456101c0840152604a6101e0840152604f6102008401526055610220840152605c6102408401526063610260840152606c61028084015260766102a08401526102c0830191909152608b6102e0830152609661030083015261032082015260ab61034082015260b561036082015260bf61038082015260c86103a082015260cf6103c082015260d66103e082015260dc61040082015260e161042082015260e661044082015260e961046082015260ec61048082015260ef6104a082015260f16104c082015260f26104e08201528061342a603d856138b0565b6028811061343a5761343a613953565b602002015160ff169392505050565b6001600160e01b031981168114610a1557600080fd5b60006020828403121561347157600080fd5b813561169a81613449565b60005b8381101561349757818101518382015260200161347f565b50506000910152565b600081518084526134b881602086016020860161347c565b601f01601f19169290920160200192915050565b60208152600061169a60208301846134a0565b6000602082840312156134f157600080fd5b5035919050565b6001600160a01b0381168114610a1557600080fd5b6000806040838503121561352057600080fd5b823561352b816134f8565b946020939093013593505050565b60008060006060848603121561354e57600080fd5b8335613559816134f8565b92506020840135613569816134f8565b929592945050506040919091013590565b6000806040838503121561358d57600080fd5b50508035926020909101359150565b600080604083850312156135af57600080fd5b8235915060208301356135c1816134f8565b809150509250929050565b6000602082840312156135de57600080fd5b813561169a816134f8565b8015158114610a1557600080fd5b6000806040838503121561360a57600080fd5b8235613615816134f8565b915060208301356135c1816135e9565b634e487b7160e01b600052604160045260246000fd5b6000806000806080858703121561365157600080fd5b843561365c816134f8565b9350602085013561366c816134f8565b925060408501359150606085013567ffffffffffffffff8082111561369057600080fd5b818701915087601f8301126136a457600080fd5b8135818111156136b6576136b6613625565b604051601f8201601f19908116603f011681019083821181831017156136de576136de613625565b816040528281528a60208487010111156136f757600080fd5b82602086016020830137600060208483010152809550505050505092959194509250565b6000806040838503121561372e57600080fd5b8235613739816134f8565b915060208301356135c1816134f8565b60008060006060848603121561375e57600080fd5b505081359360208301359350604090920135919050565b600181811c9082168061378957607f821691505b6020821081036118e357634e487b7160e01b600052602260045260246000fd5b6020808252602d908201527f4552433732313a2063616c6c6572206973206e6f7420746f6b656e206f776e6560408201526c1c881bdc88185c1c1c9bdd9959609a1b606082015260800190565b60006020828403121561380857600080fd5b815161169a816134f8565b6020808252601c908201527f644e46543a2043616c6c61626c6520627920644e4654206f776e657200000000604082015260600190565b6020808252601b908201527f644e46543a20416d6f756e742063616e6e6f74206265207a65726f0000000000604082015260600190565b60006020828403121561389357600080fd5b5051919050565b634e487b7160e01b600052601160045260246000fd5b8181038181111561072b5761072b61389a565b808202811582820484141761072b5761072b61389a565b6000826138f757634e487b7160e01b600052601260045260246000fd5b500490565b8082018082111561072b5761072b61389a565b818103600083128015838313168383128216171561392f5761392f61389a565b5092915050565b60006020828403121561394857600080fd5b815161169a816135e9565b634e487b7160e01b600052603260045260246000fd5b634e487b7160e01b600052602160045260246000fd5b6000835161399181846020880161347c565b8351908301906139a581836020880161347c565b01949350505050565b80820182811260008312801582168215821617156139ce576139ce61389a565b505092915050565b60208082526025908201527f4552433732313a207472616e736665722066726f6d20696e636f72726563742060408201526437bbb732b960d91b606082015260800190565b6000600160ff1b8201613a3057613a3061389a565b5060000390565b805169ffffffffffffffffffff811681146115f057600080fd5b600080600080600060a08688031215613a6957600080fd5b613a7286613a37565b9450602086015193506040860151925060608601519150613a9560808701613a37565b90509295509295909350565b60208082526032908201527f4552433732313a207472616e7366657220746f206e6f6e20455243373231526560408201527131b2b4bb32b91034b6b83632b6b2b73a32b960711b606082015260800190565b634e487b7160e01b600052603160045260246000fd5b6001600160a01b0385811682528416602082015260408101839052608060608201819052600090613b3c908301846134a0565b9695505050505050565b600060208284031215613b5857600080fd5b815161169a8161344956fea26469706673582212200b26bb30a543d4122115f09a2759d85d5137866b684bbbe36f61e45a7e9ba43664736f6c63430008110033",
    "linkReferences": {}
  },
  "methodIdentifiers": {
    "BLOCKS_BETWEEN_SYNCS()": "6fd180c5",
    "DEPOSIT_MINIMUM()": "ae34b6e1",
    "MAX_SUPPLY()": "32cb6b0c",
    "MIN_COLLATERIZATION_RATIO()": "35f2faf0",
    "approve(address,uint256)": "095ea7b3",
    "balanceOf(address)": "70a08231",
    "burn(uint256)": "42966c68",
    "deposit(uint256,uint256)": "e2bbb158",
    "dyad()": "add95a51",
    "getApproved(uint256)": "081812fc",
    "idToNft(uint256)": "483afb2d",
    "isApprovedForAll(address,address)": "e985e9c5",
    "lastEthPrice()": "7038fc4e",
    "lastSyncedBlock()": "33d5ac9b",
    "liquidate(uint256,address)": "5fae8b3d",
    "maxXp()": "413217b7",
    "minXp()": "2dd0115d",
    "mintDyad(uint256)": "fb9103cc",
    "mintNft(address)": "e9c2e14b",
    "moveDeposit(uint256,uint256,uint256)": "f0cb3d67",
    "name()": "06fdde03",
    "numberOfMints()": "959f7857",
    "ownerOf(uint256)": "6352211e",
    "redeem(uint256,uint256)": "7cbc2373",
    "safeTransferFrom(address,address,uint256)": "42842e0e",
    "safeTransferFrom(address,address,uint256,bytes)": "b88d4fde",
    "setApprovalForAll(address,bool)": "a22cb465",
    "supportsInterface(bytes4)": "01ffc9a7",
    "symbol()": "95d89b41",
    "sync(uint256)": "b1357bf9",
    "tokenByIndex(uint256)": "4f6ccce7",
    "tokenOfOwnerByIndex(address,uint256)": "2f745c59",
    "tokenURI(uint256)": "c87b56dd",
    "totalSupply()": "18160ddd",
    "transferFrom(address,address,uint256)": "23b872dd",
    "withdraw(uint256,uint256)": "441a3e70"
  },
  "id": 37
}