{
  "abi": [
    {
      "inputs": [
        {
          "internalType": "address",
          "name": "_dyad",
          "type": "address"
        },
        {
          "internalType": "address",
          "name": "_oracle",
          "type": "address"
        },
        {
          "internalType": "address",
          "name": "_owner",
          "type": "address"
        }
      ],
      "stateMutability": "nonpayable",
      "type": "constructor"
    },
    {
      "inputs": [],
      "name": "CrTooHigh",
      "type": "error"
    },
    {
      "inputs": [],
      "name": "CrTooLow",
      "type": "error"
    },
    {
      "inputs": [],
      "name": "IncompleteRound",
      "type": "error"
    },
    {
      "inputs": [],
      "name": "IncorrectEthValue",
      "type": "error"
    },
    {
      "inputs": [],
      "name": "InsiderMintsExceeded",
      "type": "error"
    },
    {
      "inputs": [],
      "name": "MissingPermission",
      "type": "error"
    },
    {
      "inputs": [],
      "name": "NotOwner",
      "type": "error"
    },
    {
      "inputs": [],
      "name": "PublicMintsExceeded",
      "type": "error"
    },
    {
      "inputs": [],
      "name": "StaleData",
      "type": "error"
    },
    {
      "inputs": [],
      "name": "TooMuchEth",
      "type": "error"
    },
    {
      "anonymous": false,
      "inputs": [
        {
          "indexed": true,
          "internalType": "address",
          "name": "owner",
          "type": "address"
        },
        {
          "indexed": true,
          "internalType": "address",
          "name": "approved",
          "type": "address"
        },
        {
          "indexed": true,
          "internalType": "uint256",
          "name": "tokenId",
          "type": "uint256"
        }
      ],
      "name": "Approval",
      "type": "event"
    },
    {
      "anonymous": false,
      "inputs": [
        {
          "indexed": true,
          "internalType": "address",
          "name": "owner",
          "type": "address"
        },
        {
          "indexed": true,
          "internalType": "address",
          "name": "operator",
          "type": "address"
        },
        {
          "indexed": false,
          "internalType": "bool",
          "name": "approved",
          "type": "bool"
        }
      ],
      "name": "ApprovalForAll",
      "type": "event"
    },
    {
      "anonymous": false,
      "inputs": [
        {
          "indexed": true,
          "internalType": "uint256",
          "name": "id",
          "type": "uint256"
        },
        {
          "indexed": false,
          "internalType": "uint256",
          "name": "amount",
          "type": "uint256"
        }
      ],
      "name": "Deposit",
      "type": "event"
    },
    {
      "anonymous": false,
      "inputs": [
        {
          "indexed": true,
          "internalType": "uint256",
          "name": "id",
          "type": "uint256"
        },
        {
          "indexed": true,
          "internalType": "address",
          "name": "operator",
          "type": "address"
        }
      ],
      "name": "Grant",
      "type": "event"
    },
    {
      "anonymous": false,
      "inputs": [
        {
          "indexed": true,
          "internalType": "uint256",
          "name": "id",
          "type": "uint256"
        },
        {
          "indexed": true,
          "internalType": "address",
          "name": "to",
          "type": "address"
        }
      ],
      "name": "Liquidate",
      "type": "event"
    },
    {
      "anonymous": false,
      "inputs": [
        {
          "indexed": true,
          "internalType": "uint256",
          "name": "from",
          "type": "uint256"
        },
        {
          "indexed": true,
          "internalType": "address",
          "name": "to",
          "type": "address"
        },
        {
          "indexed": false,
          "internalType": "uint256",
          "name": "amount",
          "type": "uint256"
        }
      ],
      "name": "MintDyad",
      "type": "event"
    },
    {
      "anonymous": false,
      "inputs": [
        {
          "indexed": true,
          "internalType": "uint256",
          "name": "id",
          "type": "uint256"
        },
        {
          "indexed": true,
          "internalType": "address",
          "name": "to",
          "type": "address"
        }
      ],
      "name": "MintNft",
      "type": "event"
    },
    {
      "anonymous": false,
      "inputs": [
        {
          "indexed": true,
          "internalType": "address",
          "name": "user",
          "type": "address"
        },
        {
          "indexed": true,
          "internalType": "address",
          "name": "newOwner",
          "type": "address"
        }
      ],
      "name": "OwnershipTransferred",
      "type": "event"
    },
    {
      "anonymous": false,
      "inputs": [
        {
          "indexed": true,
          "internalType": "uint256",
          "name": "from",
          "type": "uint256"
        },
        {
          "indexed": false,
          "internalType": "uint256",
          "name": "amount",
          "type": "uint256"
        },
        {
          "indexed": true,
          "internalType": "address",
          "name": "to",
          "type": "address"
        },
        {
          "indexed": false,
          "internalType": "uint256",
          "name": "eth",
          "type": "uint256"
        }
      ],
      "name": "Redeem",
      "type": "event"
    },
    {
      "anonymous": false,
      "inputs": [
        {
          "indexed": true,
          "internalType": "uint256",
          "name": "id",
          "type": "uint256"
        },
        {
          "indexed": true,
          "internalType": "address",
          "name": "operator",
          "type": "address"
        }
      ],
      "name": "Revoke",
      "type": "event"
    },
    {
      "anonymous": false,
      "inputs": [
        {
          "indexed": true,
          "internalType": "address",
          "name": "from",
          "type": "address"
        },
        {
          "indexed": true,
          "internalType": "address",
          "name": "to",
          "type": "address"
        },
        {
          "indexed": true,
          "internalType": "uint256",
          "name": "tokenId",
          "type": "uint256"
        }
      ],
      "name": "Transfer",
      "type": "event"
    },
    {
      "anonymous": false,
      "inputs": [
        {
          "indexed": true,
          "internalType": "uint256",
          "name": "from",
          "type": "uint256"
        },
        {
          "indexed": true,
          "internalType": "address",
          "name": "to",
          "type": "address"
        },
        {
          "indexed": false,
          "internalType": "uint256",
          "name": "amount",
          "type": "uint256"
        }
      ],
      "name": "Withdraw",
      "type": "event"
    },
    {
      "inputs": [],
      "name": "INSIDER_MINTS",
      "outputs": [
        {
          "internalType": "uint256",
          "name": "",
          "type": "uint256"
        }
      ],
      "stateMutability": "view",
      "type": "function"
    },
    {
      "inputs": [],
      "name": "MIN_COLLATERIZATION_RATIO",
      "outputs": [
        {
          "internalType": "uint256",
          "name": "",
          "type": "uint256"
        }
      ],
      "stateMutability": "view",
      "type": "function"
    },
    {
      "inputs": [],
      "name": "PUBLIC_MINTS",
      "outputs": [
        {
          "internalType": "uint256",
          "name": "",
          "type": "uint256"
        }
      ],
      "stateMutability": "view",
      "type": "function"
    },
    {
      "inputs": [
        {
          "internalType": "address",
          "name": "to",
          "type": "address"
        },
        {
          "internalType": "uint256",
          "name": "tokenId",
          "type": "uint256"
        }
      ],
      "name": "approve",
      "outputs": [],
      "stateMutability": "nonpayable",
      "type": "function"
    },
    {
      "inputs": [
        {
          "internalType": "address",
          "name": "owner",
          "type": "address"
        }
      ],
      "name": "balanceOf",
      "outputs": [
        {
          "internalType": "uint256",
          "name": "",
          "type": "uint256"
        }
      ],
      "stateMutability": "view",
      "type": "function"
    },
    {
      "inputs": [
        {
          "internalType": "uint256",
          "name": "id",
          "type": "uint256"
        }
      ],
      "name": "deposit",
      "outputs": [],
      "stateMutability": "payable",
      "type": "function"
    },
    {
      "inputs": [],
      "name": "dyad",
      "outputs": [
        {
          "internalType": "contract Dyad",
          "name": "",
          "type": "address"
        }
      ],
      "stateMutability": "view",
      "type": "function"
    },
    {
      "inputs": [
        {
          "internalType": "uint256",
          "name": "tokenId",
          "type": "uint256"
        }
      ],
      "name": "getApproved",
      "outputs": [
        {
          "internalType": "address",
          "name": "",
          "type": "address"
        }
      ],
      "stateMutability": "view",
      "type": "function"
    },
    {
      "inputs": [
        {
          "internalType": "uint256",
          "name": "id",
          "type": "uint256"
        },
        {
          "internalType": "address",
          "name": "operator",
          "type": "address"
        }
      ],
      "name": "grant",
      "outputs": [],
      "stateMutability": "nonpayable",
      "type": "function"
    },
    {
      "inputs": [
        {
          "internalType": "uint256",
          "name": "id",
          "type": "uint256"
        },
        {
          "internalType": "address",
          "name": "operator",
          "type": "address"
        }
      ],
      "name": "hasPermission",
      "outputs": [
        {
          "internalType": "bool",
          "name": "",
          "type": "bool"
        }
      ],
      "stateMutability": "view",
      "type": "function"
    },
    {
      "inputs": [
        {
          "internalType": "uint256",
          "name": "",
          "type": "uint256"
        }
      ],
      "name": "id2dyad",
      "outputs": [
        {
          "internalType": "uint256",
          "name": "",
          "type": "uint256"
        }
      ],
      "stateMutability": "view",
      "type": "function"
    },
    {
      "inputs": [
        {
          "internalType": "uint256",
          "name": "",
          "type": "uint256"
        }
      ],
      "name": "id2eth",
      "outputs": [
        {
          "internalType": "uint256",
          "name": "",
          "type": "uint256"
        }
      ],
      "stateMutability": "view",
      "type": "function"
    },
    {
      "inputs": [
        {
          "internalType": "uint256",
          "name": "",
          "type": "uint256"
        }
      ],
      "name": "id2lastOwnershipChange",
      "outputs": [
        {
          "internalType": "uint256",
          "name": "",
          "type": "uint256"
        }
      ],
      "stateMutability": "view",
      "type": "function"
    },
    {
      "inputs": [
        {
          "internalType": "uint256",
          "name": "",
          "type": "uint256"
        },
        {
          "internalType": "address",
          "name": "",
          "type": "address"
        }
      ],
      "name": "id2permission",
      "outputs": [
        {
          "internalType": "bool",
          "name": "hasPermission",
          "type": "bool"
        },
        {
          "internalType": "uint248",
          "name": "lastUpdated",
          "type": "uint248"
        }
      ],
      "stateMutability": "view",
      "type": "function"
    },
    {
      "inputs": [],
      "name": "insiderMints",
      "outputs": [
        {
          "internalType": "uint256",
          "name": "",
          "type": "uint256"
        }
      ],
      "stateMutability": "view",
      "type": "function"
    },
    {
      "inputs": [
        {
          "internalType": "address",
          "name": "owner",
          "type": "address"
        },
        {
          "internalType": "address",
          "name": "operator",
          "type": "address"
        }
      ],
      "name": "isApprovedForAll",
      "outputs": [
        {
          "internalType": "bool",
          "name": "",
          "type": "bool"
        }
      ],
      "stateMutability": "view",
      "type": "function"
    },
    {
      "inputs": [
        {
          "internalType": "uint256",
          "name": "id",
          "type": "uint256"
        },
        {
          "internalType": "address",
          "name": "to",
          "type": "address"
        }
      ],
      "name": "liquidate",
      "outputs": [],
      "stateMutability": "payable",
      "type": "function"
    },
    {
      "inputs": [
        {
          "internalType": "uint256",
          "name": "from",
          "type": "uint256"
        },
        {
          "internalType": "address",
          "name": "to",
          "type": "address"
        },
        {
          "internalType": "uint256",
          "name": "amount",
          "type": "uint256"
        }
      ],
      "name": "mintDyad",
      "outputs": [],
      "stateMutability": "nonpayable",
      "type": "function"
    },
    {
      "inputs": [
        {
          "internalType": "address",
          "name": "to",
          "type": "address"
        }
      ],
      "name": "mintInsiderNft",
      "outputs": [
        {
          "internalType": "uint256",
          "name": "",
          "type": "uint256"
        }
      ],
      "stateMutability": "nonpayable",
      "type": "function"
    },
    {
      "inputs": [
        {
          "internalType": "address",
          "name": "to",
          "type": "address"
        }
      ],
      "name": "mintNft",
      "outputs": [
        {
          "internalType": "uint256",
          "name": "",
          "type": "uint256"
        }
      ],
      "stateMutability": "payable",
      "type": "function"
    },
    {
      "inputs": [],
      "name": "name",
      "outputs": [
        {
          "internalType": "string",
          "name": "",
          "type": "string"
        }
      ],
      "stateMutability": "view",
      "type": "function"
    },
    {
      "inputs": [],
      "name": "oracle",
      "outputs": [
        {
          "internalType": "contract IAggregatorV3",
          "name": "",
          "type": "address"
        }
      ],
      "stateMutability": "view",
      "type": "function"
    },
    {
      "inputs": [],
      "name": "owner",
      "outputs": [
        {
          "internalType": "address",
          "name": "",
          "type": "address"
        }
      ],
      "stateMutability": "view",
      "type": "function"
    },
    {
      "inputs": [
        {
          "internalType": "uint256",
          "name": "tokenId",
          "type": "uint256"
        }
      ],
      "name": "ownerOf",
      "outputs": [
        {
          "internalType": "address",
          "name": "",
          "type": "address"
        }
      ],
      "stateMutability": "view",
      "type": "function"
    },
    {
      "inputs": [],
      "name": "publicMints",
      "outputs": [
        {
          "internalType": "uint256",
          "name": "",
          "type": "uint256"
        }
      ],
      "stateMutability": "view",
      "type": "function"
    },
    {
      "inputs": [
        {
          "internalType": "uint256",
          "name": "from",
          "type": "uint256"
        },
        {
          "internalType": "address",
          "name": "to",
          "type": "address"
        },
        {
          "internalType": "uint256",
          "name": "amount",
          "type": "uint256"
        }
      ],
      "name": "redeem",
      "outputs": [
        {
          "internalType": "uint256",
          "name": "",
          "type": "uint256"
        }
      ],
      "stateMutability": "nonpayable",
      "type": "function"
    },
    {
      "inputs": [
        {
          "internalType": "uint256",
          "name": "id",
          "type": "uint256"
        },
        {
          "internalType": "address",
          "name": "operator",
          "type": "address"
        }
      ],
      "name": "revoke",
      "outputs": [],
      "stateMutability": "nonpayable",
      "type": "function"
    },
    {
      "inputs": [
        {
          "internalType": "address",
          "name": "from",
          "type": "address"
        },
        {
          "internalType": "address",
          "name": "to",
          "type": "address"
        },
        {
          "internalType": "uint256",
          "name": "tokenId",
          "type": "uint256"
        }
      ],
      "name": "safeTransferFrom",
      "outputs": [],
      "stateMutability": "nonpayable",
      "type": "function"
    },
    {
      "inputs": [
        {
          "internalType": "address",
          "name": "from",
          "type": "address"
        },
        {
          "internalType": "address",
          "name": "to",
          "type": "address"
        },
        {
          "internalType": "uint256",
          "name": "tokenId",
          "type": "uint256"
        },
        {
          "internalType": "bytes",
          "name": "data",
          "type": "bytes"
        }
      ],
      "name": "safeTransferFrom",
      "outputs": [],
      "stateMutability": "nonpayable",
      "type": "function"
    },
    {
      "inputs": [
        {
          "internalType": "address",
          "name": "operator",
          "type": "address"
        },
        {
          "internalType": "bool",
          "name": "approved",
          "type": "bool"
        }
      ],
      "name": "setApprovalForAll",
      "outputs": [],
      "stateMutability": "nonpayable",
      "type": "function"
    },
    {
      "inputs": [
        {
          "internalType": "bytes4",
          "name": "interfaceId",
          "type": "bytes4"
        }
      ],
      "name": "supportsInterface",
      "outputs": [
        {
          "internalType": "bool",
          "name": "",
          "type": "bool"
        }
      ],
      "stateMutability": "view",
      "type": "function"
    },
    {
      "inputs": [],
      "name": "symbol",
      "outputs": [
        {
          "internalType": "string",
          "name": "",
          "type": "string"
        }
      ],
      "stateMutability": "view",
      "type": "function"
    },
    {
      "inputs": [
        {
          "internalType": "uint256",
          "name": "index",
          "type": "uint256"
        }
      ],
      "name": "tokenByIndex",
      "outputs": [
        {
          "internalType": "uint256",
          "name": "",
          "type": "uint256"
        }
      ],
      "stateMutability": "view",
      "type": "function"
    },
    {
      "inputs": [
        {
          "internalType": "address",
          "name": "owner",
          "type": "address"
        },
        {
          "internalType": "uint256",
          "name": "index",
          "type": "uint256"
        }
      ],
      "name": "tokenOfOwnerByIndex",
      "outputs": [
        {
          "internalType": "uint256",
          "name": "",
          "type": "uint256"
        }
      ],
      "stateMutability": "view",
      "type": "function"
    },
    {
      "inputs": [
        {
          "internalType": "uint256",
          "name": "tokenId",
          "type": "uint256"
        }
      ],
      "name": "tokenURI",
      "outputs": [
        {
          "internalType": "string",
          "name": "",
          "type": "string"
        }
      ],
      "stateMutability": "view",
      "type": "function"
    },
    {
      "inputs": [],
      "name": "totalSupply",
      "outputs": [
        {
          "internalType": "uint256",
          "name": "",
          "type": "uint256"
        }
      ],
      "stateMutability": "view",
      "type": "function"
    },
    {
      "inputs": [
        {
          "internalType": "address",
          "name": "from",
          "type": "address"
        },
        {
          "internalType": "address",
          "name": "to",
          "type": "address"
        },
        {
          "internalType": "uint256",
          "name": "tokenId",
          "type": "uint256"
        }
      ],
      "name": "transferFrom",
      "outputs": [],
      "stateMutability": "nonpayable",
      "type": "function"
    },
    {
      "inputs": [
        {
          "internalType": "address",
          "name": "newOwner",
          "type": "address"
        }
      ],
      "name": "transferOwnership",
      "outputs": [],
      "stateMutability": "nonpayable",
      "type": "function"
    },
    {
      "inputs": [
        {
          "internalType": "uint256",
          "name": "from",
          "type": "uint256"
        },
        {
          "internalType": "address",
          "name": "to",
          "type": "address"
        },
        {
          "internalType": "uint256",
          "name": "amount",
          "type": "uint256"
        }
      ],
      "name": "withdraw",
      "outputs": [],
      "stateMutability": "nonpayable",
      "type": "function"
    }
  ],
  "bytecode": {
    "object": "0x60806040523480156200001157600080fd5b5060405162003a1238038062003a12833981016040819052620000349162000132565b8060405180604001604052806008815260200167111e58590813919560c21b815250604051806040016040528060048152602001631913919560e21b815250816000908162000084919062000221565b50600162000093828262000221565b5050600a80546001600160a01b0319166001600160a01b0384169081179091556040519091506000907f8be0079c531659141344cd1fd0a4f28419497f9722a3daafe3b4186f6b6457e0908290a35050601180546001600160a01b039384166001600160a01b03199182161790915560128054929093169116179055620002ed565b80516001600160a01b03811681146200012d57600080fd5b919050565b6000806000606084860312156200014857600080fd5b620001538462000115565b9250620001636020850162000115565b9150620001736040850162000115565b90509250925092565b634e487b7160e01b600052604160045260246000fd5b600181811c90821680620001a757607f821691505b602082108103620001c857634e487b7160e01b600052602260045260246000fd5b50919050565b601f8211156200021c57600081815260208120601f850160051c81016020861015620001f75750805b601f850160051c820191505b81811015620002185782815560010162000203565b5050505b505050565b81516001600160401b038111156200023d576200023d6200017c565b62000255816200024e845462000192565b84620001ce565b602080601f8311600181146200028d5760008415620002745750858301515b600019600386901b1c1916600185901b17855562000218565b600085815260208120601f198616915b82811015620002be578886015182559484019460019091019084016200029d565b5085821015620002dd5787850151600019600388901b60f8161c191681555b5050505050600190811b01905550565b61371580620002fd6000396000f3fe6080604052600436106102a05760003560e01c80636352211e1161016e578063b6b55f25116100cb578063d87801611161007f578063e985e9c511610064578063e985e9c5146107dd578063e9c2e14b14610833578063f2fde38b1461084657600080fd5b8063d87801611461079d578063e63697c8146107bd57600080fd5b8063c0f91b8a116100b0578063c0f91b8a14610723578063c87b56dd14610750578063cf748df91461077057600080fd5b8063b6b55f25146106f0578063b88d4fde1461070357600080fd5b806395d89b4111610122578063a22cb46511610107578063a22cb46514610676578063add95a5114610696578063b3c6fb9c146106c357600080fd5b806395d89b41146105c757806399976134146105dc57600080fd5b80637dc0d1d0116101535780637dc0d1d01461054d578063887d7c3e1461057a5780638da5cb5b1461059a57600080fd5b80636352211e1461050d57806370a082311461052d57600080fd5b8063211572461161021c57806335f2faf0116101d05780634cf15858116101b55780634cf15858146104ba5780634f6ccce7146104da5780635fae8b3d146104fa57600080fd5b806335f2faf01461047e57806342842e0e1461049a57600080fd5b806323b872dd1161020157806323b872dd14610428578063279e4a63146104485780632f745c591461045e57600080fd5b806321157246146103fc5780632336296a1461041257600080fd5b80630b56f8b61161027357806318160ddd1161025857806318160ddd146103b15780631bb85b4f146103c657806320d154da146103dc57600080fd5b80630b56f8b614610363578063176c0abd1461039157600080fd5b806301ffc9a7146102a557806306fdde03146102da578063081812fc146102fc578063095ea7b314610341575b600080fd5b3480156102b157600080fd5b506102c56102c0366004613114565b610866565b60405190151581526020015b60405180910390f35b3480156102e657600080fd5b506102ef6108c2565b6040516102d1919061319f565b34801561030857600080fd5b5061031c6103173660046131b2565b610954565b60405173ffffffffffffffffffffffffffffffffffffffff90911681526020016102d1565b34801561034d57600080fd5b5061036161035c3660046131ef565b610988565b005b34801561036f57600080fd5b5061038361037e366004613219565b610b19565b6040519081526020016102d1565b34801561039d57600080fd5b506103616103ac366004613234565b610bfa565b3480156103bd57600080fd5b50600854610383565b3480156103d257600080fd5b506103836106a481565b3480156103e857600080fd5b506103616103f7366004613269565b610d8c565b34801561040857600080fd5b5061038361012c81565b34801561041e57600080fd5b50610383600c5481565b34801561043457600080fd5b50610361610443366004613295565b610e45565b34801561045457600080fd5b50610383600b5481565b34801561046a57600080fd5b506103836104793660046131ef565b610ee6565b34801561048a57600080fd5b506103836729a2241af62c000081565b3480156104a657600080fd5b506103616104b5366004613295565b610fb5565b3480156104c657600080fd5b506102c56104d5366004613269565b610fd0565b3480156104e657600080fd5b506103836104f53660046131b2565b6110b1565b610361610508366004613269565b61116f565b34801561051957600080fd5b5061031c6105283660046131b2565b611280565b34801561053957600080fd5b50610383610548366004613219565b61130c565b34801561055957600080fd5b5060125461031c9073ffffffffffffffffffffffffffffffffffffffff1681565b34801561058657600080fd5b50610361610595366004613269565b6113da565b3480156105a657600080fd5b50600a5461031c9073ffffffffffffffffffffffffffffffffffffffff1681565b3480156105d357600080fd5b506102ef6114dc565b3480156105e857600080fd5b5061063f6105f7366004613269565b600f60209081526000928352604080842090915290825290205460ff81169061010090047effffffffffffffffffffffffffffffffffffffffffffffffffffffffffffff1682565b6040805192151583527effffffffffffffffffffffffffffffffffffffffffffffffffffffffffffff9091166020830152016102d1565b34801561068257600080fd5b506103616106913660046132c1565b6114eb565b3480156106a257600080fd5b5060115461031c9073ffffffffffffffffffffffffffffffffffffffff1681565b3480156106cf57600080fd5b506103836106de3660046131b2565b60106020526000908152604090205481565b6103616106fe3660046131b2565b6114fa565b34801561070f57600080fd5b5061036161071e36600461332c565b6115a8565b34801561072f57600080fd5b5061038361073e3660046131b2565b600d6020526000908152604090205481565b34801561075c57600080fd5b506102ef61076b3660046131b2565b611650565b34801561077c57600080fd5b5061038361078b3660046131b2565b600e6020526000908152604090205481565b3480156107a957600080fd5b506103836107b8366004613234565b6116c3565b3480156107c957600080fd5b506103616107d8366004613234565b61187f565b3480156107e957600080fd5b506102c56107f8366004613426565b73ffffffffffffffffffffffffffffffffffffffff918216600090815260056020908152604080832093909416825291909152205460ff1690565b610383610841366004613219565b611997565b34801561085257600080fd5b50610361610861366004613219565b611a34565b60007fffffffff0000000000000000000000000000000000000000000000000000000082167f780e9d630000000000000000000000000000000000000000000000000000000014806108bc57506108bc82611b26565b92915050565b6060600080546108d190613450565b80601f01602080910402602001604051908101604052809291908181526020018280546108fd90613450565b801561094a5780601f1061091f5761010080835404028352916020019161094a565b820191906000526020600020905b81548152906001019060200180831161092d57829003601f168201915b5050505050905090565b600061095f82611c09565b5060009081526004602052604090205473ffffffffffffffffffffffffffffffffffffffff1690565b600061099382611280565b90508073ffffffffffffffffffffffffffffffffffffffff168373ffffffffffffffffffffffffffffffffffffffff1603610a55576040517f08c379a000000000000000000000000000000000000000000000000000000000815260206004820152602160248201527f4552433732313a20617070726f76616c20746f2063757272656e74206f776e6560448201527f720000000000000000000000000000000000000000000000000000000000000060648201526084015b60405180910390fd5b3373ffffffffffffffffffffffffffffffffffffffff82161480610a7e5750610a7e81336107f8565b610b0a576040517f08c379a000000000000000000000000000000000000000000000000000000000815260206004820152603d60248201527f4552433732313a20617070726f76652063616c6c6572206973206e6f7420746f60448201527f6b656e206f776e6572206f7220617070726f76656420666f7220616c6c0000006064820152608401610a4c565b610b148383611c97565b505050565b600a5460009073ffffffffffffffffffffffffffffffffffffffff163314610b9d576040517f08c379a000000000000000000000000000000000000000000000000000000000815260206004820152600c60248201527f554e415554484f52495a454400000000000000000000000000000000000000006044820152606401610a4c565b61012c600b60008154610baf906134d2565b91829055501115610bec576040517f9652890b00000000000000000000000000000000000000000000000000000000815260040160405180910390fd5b6108bc82611d37565b919050565b82610c058133610fd0565b610c3b576040517f3f904dc000000000000000000000000000000000000000000000000000000000815260040160405180910390fd5b6000848152600e602052604081208054849290610c5990849061350a565b909155506729a2241af62c00009050610c7185611d98565b1015610ca9576040517f40da557a00000000000000000000000000000000000000000000000000000000815260040160405180910390fd5b6011546040517f40c10f1900000000000000000000000000000000000000000000000000000000815273ffffffffffffffffffffffffffffffffffffffff858116600483015260248201859052909116906340c10f1990604401600060405180830381600087803b158015610d1d57600080fd5b505af1158015610d31573d6000803e3d6000fd5b505050508273ffffffffffffffffffffffffffffffffffffffff16847fc7a0f9746296432bab185f8f0020c7c9489291fd5cfac7593c7665f72bc9d9c484604051610d7e91815260200190565b60405180910390a350505050565b8133610d9782611280565b73ffffffffffffffffffffffffffffffffffffffff1614610de4576040517f30cd747100000000000000000000000000000000000000000000000000000000815260040160405180910390fd5b6000838152600f6020908152604080832073ffffffffffffffffffffffffffffffffffffffff8616808552925280832083905551909185917fd5d64031e0f55cf42bc3b7d0462f8404a4d63f7ccf84be9510cd6a5300552e429190a3505050565b610e4f3382611e10565b610edb576040517f08c379a000000000000000000000000000000000000000000000000000000000815260206004820152602d60248201527f4552433732313a2063616c6c6572206973206e6f7420746f6b656e206f776e6560448201527f72206f7220617070726f766564000000000000000000000000000000000000006064820152608401610a4c565b610b14838383611ed0565b6000610ef18361130c565b8210610f7f576040517f08c379a000000000000000000000000000000000000000000000000000000000815260206004820152602b60248201527f455243373231456e756d657261626c653a206f776e657220696e646578206f7560448201527f74206f6620626f756e64730000000000000000000000000000000000000000006064820152608401610a4c565b5073ffffffffffffffffffffffffffffffffffffffff919091166000908152600660209081526040808320938352929052205490565b610b14838383604051806020016040528060008152506115a8565b60008173ffffffffffffffffffffffffffffffffffffffff16610ff284611280565b73ffffffffffffffffffffffffffffffffffffffff1614806110aa57506000838152600f6020908152604080832073ffffffffffffffffffffffffffffffffffffffff8616845290915290205460ff1680156110aa5750600083815260106020908152604080832054600f835281842073ffffffffffffffffffffffffffffffffffffffff871685529092529091205461010090047effffffffffffffffffffffffffffffffffffffffffffffffffffffffffffff16115b9392505050565b60006110bc60085490565b821061114a576040517f08c379a000000000000000000000000000000000000000000000000000000000815260206004820152602c60248201527f455243373231456e756d657261626c653a20676c6f62616c20696e646578206f60448201527f7574206f6620626f756e647300000000000000000000000000000000000000006064820152608401610a4c565b6008828154811061115d5761115d61351d565b90600052602060002001549050919050565b6729a2241af62c000061118183611d98565b106111b8576040517f05e666e800000000000000000000000000000000000000000000000000000000815260040160405180910390fd5b6000828152600d6020526040812080543492906111d690849061350a565b909155506729a2241af62c000090506111ee83611d98565b1015611226576040517f40da557a00000000000000000000000000000000000000000000000000000000815260040160405180910390fd5b61123961123283611280565b8284611ed0565b60405173ffffffffffffffffffffffffffffffffffffffff82169083907f9d57e76bcd4b88b0969cb0e0333b5da0931cb34b689f331b40e564e3f76a2f5a90600090a35050565b60008181526002602052604081205473ffffffffffffffffffffffffffffffffffffffff16806108bc576040517f08c379a000000000000000000000000000000000000000000000000000000000815260206004820152601860248201527f4552433732313a20696e76616c696420746f6b656e20494400000000000000006044820152606401610a4c565b600073ffffffffffffffffffffffffffffffffffffffff82166113b1576040517f08c379a000000000000000000000000000000000000000000000000000000000815260206004820152602960248201527f4552433732313a2061646472657373207a65726f206973206e6f74206120766160448201527f6c6964206f776e657200000000000000000000000000000000000000000000006064820152608401610a4c565b5073ffffffffffffffffffffffffffffffffffffffff1660009081526003602052604090205490565b81336113e582611280565b73ffffffffffffffffffffffffffffffffffffffff1614611432576040517f30cd747100000000000000000000000000000000000000000000000000000000815260040160405180910390fd5b604080518082018252600181527effffffffffffffffffffffffffffffffffffffffffffffffffffffffffffff43811660208084019182526000888152600f825285812073ffffffffffffffffffffffffffffffffffffffff89168083529252858120945192519093166101000291151560ff16919091179092559151909185917fae114a60e55fc87cd2337e3dd95e4e5d97b626c4025f203a9c2c1b3b610032e19190a3505050565b6060600180546108d190613450565b6114f63383836121d8565b5050565b6000818152600d6020526040902054611513348261350a565b9050670de0b6b3a7640000811115611557576040517fe177b91900000000000000000000000000000000000000000000000000000000815260040160405180910390fd5b6000828152600d6020526040908190208290555182907fa3af609bf46297028ce551832669030f9effef2b02606d02cbbcc40fe6b47c559061159c9034815260200190565b60405180910390a25050565b6115b23383611e10565b61163e576040517f08c379a000000000000000000000000000000000000000000000000000000000815260206004820152602d60248201527f4552433732313a2063616c6c6572206973206e6f7420746f6b656e206f776e6560448201527f72206f7220617070726f766564000000000000000000000000000000000000006064820152608401610a4c565b61164a84848484612305565b50505050565b606061165b82611c09565b600061167260408051602081019091526000815290565b9050600081511161169257604051806020016040528060008152506110aa565b8061169c846123a8565b6040516020016116ad92919061354c565b6040516020818303038152906040529392505050565b6000836116d08133610fd0565b611706576040517f3f904dc000000000000000000000000000000000000000000000000000000000815260040160405180910390fd5b6011546040517f9dc29fac0000000000000000000000000000000000000000000000000000000081523360048201526024810185905273ffffffffffffffffffffffffffffffffffffffff90911690639dc29fac90604401600060405180830381600087803b15801561177857600080fd5b505af115801561178c573d6000803e3d6000fd5b5050506000868152600e6020526040812080548693509091906117b090849061357b565b90915550600090506117c0612466565b6117ce856305f5e10061358e565b6117d891906135a5565b905080600d600088815260200190815260200160002060008282546117fd919061357b565b90915550611823905073ffffffffffffffffffffffffffffffffffffffff8616826125a6565b604080518581526020810183905273ffffffffffffffffffffffffffffffffffffffff87169188917fdd2d8631d27ce277aa03636f75ad665aa9f13516ec654fce871f889eb15cf6c7910160405180910390a395945050505050565b8261188a8133610fd0565b6118c0576040517f3f904dc000000000000000000000000000000000000000000000000000000000815260040160405180910390fd5b6000848152600d6020526040812080548492906118de90849061357b565b909155506729a2241af62c000090506118f685611d98565b101561192e576040517f40da557a00000000000000000000000000000000000000000000000000000000815260040160405180910390fd5b61194e73ffffffffffffffffffffffffffffffffffffffff8416836125a6565b8273ffffffffffffffffffffffffffffffffffffffff16847f9da6493a92039daf47d1f2d7a782299c5994c6323eb1e972f69c432089ec52bf84604051610d7e91815260200190565b60006106a4600c600081546119ab906134d2565b918290555011156119e8576040517ff7e5317900000000000000000000000000000000000000000000000000000000815260040160405180910390fd5b3467016345785d8a000014611a29576040517fab0a033b00000000000000000000000000000000000000000000000000000000815260040160405180910390fd5b610bec6000346125a6565b600a5473ffffffffffffffffffffffffffffffffffffffff163314611ab5576040517f08c379a000000000000000000000000000000000000000000000000000000000815260206004820152600c60248201527f554e415554484f52495a454400000000000000000000000000000000000000006044820152606401610a4c565b600a80547fffffffffffffffffffffffff00000000000000000000000000000000000000001673ffffffffffffffffffffffffffffffffffffffff831690811790915560405133907f8be0079c531659141344cd1fd0a4f28419497f9722a3daafe3b4186f6b6457e090600090a350565b60007fffffffff0000000000000000000000000000000000000000000000000000000082167f80ac58cd000000000000000000000000000000000000000000000000000000001480611bb957507fffffffff0000000000000000000000000000000000000000000000000000000082167f5b5e139f00000000000000000000000000000000000000000000000000000000145b806108bc57507f01ffc9a7000000000000000000000000000000000000000000000000000000007fffffffff000000000000000000000000000000000000000000000000000000008316146108bc565b60008181526002602052604090205473ffffffffffffffffffffffffffffffffffffffff16611c94576040517f08c379a000000000000000000000000000000000000000000000000000000000815260206004820152601860248201527f4552433732313a20696e76616c696420746f6b656e20494400000000000000006044820152606401610a4c565b50565b600081815260046020526040902080547fffffffffffffffffffffffff00000000000000000000000000000000000000001673ffffffffffffffffffffffffffffffffffffffff84169081179091558190611cf182611280565b73ffffffffffffffffffffffffffffffffffffffff167f8c5be1e5ebec7d5bd14f71427d1e84f3dd0314c0f7b2291e5b200ac8c7c3b92560405160405180910390a45050565b600080611d4360085490565b9050611d4f838261261b565b60405173ffffffffffffffffffffffffffffffffffffffff84169082907f97e1dc560b408f366de12df1bd5ca8ef322d846959ccec261e46f96562d9cf0090600090a392915050565b6000818152600e6020526040812054808203611dd657507fffffffffffffffffffffffffffffffffffffffffffffffffffffffffffffffff92915050565b6110aa816305f5e100611de7612466565b6000878152600d6020526040902054611e00919061358e565b611e0a91906135a5565b90612635565b600080611e1c83611280565b90508073ffffffffffffffffffffffffffffffffffffffff168473ffffffffffffffffffffffffffffffffffffffff161480611e8a575073ffffffffffffffffffffffffffffffffffffffff80821660009081526005602090815260408083209388168352929052205460ff165b80611ec857508373ffffffffffffffffffffffffffffffffffffffff16611eb084610954565b73ffffffffffffffffffffffffffffffffffffffff16145b949350505050565b8273ffffffffffffffffffffffffffffffffffffffff16611ef082611280565b73ffffffffffffffffffffffffffffffffffffffff1614611f93576040517f08c379a000000000000000000000000000000000000000000000000000000000815260206004820152602560248201527f4552433732313a207472616e736665722066726f6d20696e636f72726563742060448201527f6f776e65720000000000000000000000000000000000000000000000000000006064820152608401610a4c565b73ffffffffffffffffffffffffffffffffffffffff8216612035576040517f08c379a0000000000000000000000000000000000000000000000000000000008152602060048201526024808201527f4552433732313a207472616e7366657220746f20746865207a65726f2061646460448201527f72657373000000000000000000000000000000000000000000000000000000006064820152608401610a4c565b612042838383600161264a565b8273ffffffffffffffffffffffffffffffffffffffff1661206282611280565b73ffffffffffffffffffffffffffffffffffffffff1614612105576040517f08c379a000000000000000000000000000000000000000000000000000000000815260206004820152602560248201527f4552433732313a207472616e736665722066726f6d20696e636f72726563742060448201527f6f776e65720000000000000000000000000000000000000000000000000000006064820152608401610a4c565b600081815260046020908152604080832080547fffffffffffffffffffffffff000000000000000000000000000000000000000090811690915573ffffffffffffffffffffffffffffffffffffffff8781168086526003855283862080547fffffffffffffffffffffffffffffffffffffffffffffffffffffffffffffffff01905590871680865283862080546001019055868652600290945282852080549092168417909155905184937fddf252ad1be2c89b69c2b068fc378daa952ba7f163c4a11628f55a4df523b3ef91a4505050565b8173ffffffffffffffffffffffffffffffffffffffff168373ffffffffffffffffffffffffffffffffffffffff160361226d576040517f08c379a000000000000000000000000000000000000000000000000000000000815260206004820152601960248201527f4552433732313a20617070726f766520746f2063616c6c6572000000000000006044820152606401610a4c565b73ffffffffffffffffffffffffffffffffffffffff83811660008181526005602090815260408083209487168084529482529182902080547fffffffffffffffffffffffffffffffffffffffffffffffffffffffffffffff001686151590811790915591519182527f17307eab39ab6107e8899845ad3d59bd9653f200f220920489ca2b5937696c31910160405180910390a3505050565b612310848484611ed0565b61231c8484848461266c565b61164a576040517f08c379a000000000000000000000000000000000000000000000000000000000815260206004820152603260248201527f4552433732313a207472616e7366657220746f206e6f6e20455243373231526560448201527f63656976657220696d706c656d656e74657200000000000000000000000000006064820152608401610a4c565b606060006123b58361285f565b600101905060008167ffffffffffffffff8111156123d5576123d56132fd565b6040519080825280601f01601f1916602001820160405280156123ff576020820181803683370190505b5090508181016020015b7fffffffffffffffffffffffffffffffffffffffffffffffffffffffffffffffff017f3031323334353637383961626364656600000000000000000000000000000000600a86061a8153600a850494508461240957509392505050565b6000806000806000601260009054906101000a900473ffffffffffffffffffffffffffffffffffffffff1673ffffffffffffffffffffffffffffffffffffffff1663feaf968c6040518163ffffffff1660e01b815260040160a060405180830381865afa1580156124db573d6000803e3d6000fd5b505050506040513d601f19601f820116820180604052508101906124ff91906135fa565b94509450509350935081600003612542576040517f8ad52bdd00000000000000000000000000000000000000000000000000000000815260040160405180910390fd5b8369ffffffffffffffffffff168169ffffffffffffffffffff161015612594576040517f6ead710b00000000000000000000000000000000000000000000000000000000815260040160405180910390fd5b61259d83612941565b94505050505090565b600080600080600085875af1905080610b14576040517f08c379a000000000000000000000000000000000000000000000000000000000815260206004820152601360248201527f4554485f5452414e534645525f4641494c4544000000000000000000000000006044820152606401610a4c565b6114f68282604051806020016040528060008152506129b1565b60006110aa83670de0b6b3a764000084612a54565b61265684848484612a90565b5060009081526010602052604090204390555050565b600073ffffffffffffffffffffffffffffffffffffffff84163b15612854576040517f150b7a0200000000000000000000000000000000000000000000000000000000815273ffffffffffffffffffffffffffffffffffffffff85169063150b7a02906126e390339089908890889060040161364a565b6020604051808303816000875af192505050801561273c575060408051601f3d9081017fffffffffffffffffffffffffffffffffffffffffffffffffffffffffffffffe016820190925261273991810190613693565b60015b612809573d80801561276a576040519150601f19603f3d011682016040523d82523d6000602084013e61276f565b606091505b508051600003612801576040517f08c379a000000000000000000000000000000000000000000000000000000000815260206004820152603260248201527f4552433732313a207472616e7366657220746f206e6f6e20455243373231526560448201527f63656976657220696d706c656d656e74657200000000000000000000000000006064820152608401610a4c565b805181602001fd5b7fffffffff00000000000000000000000000000000000000000000000000000000167f150b7a0200000000000000000000000000000000000000000000000000000000149050611ec8565b506001949350505050565b6000807a184f03e93ff9f4daa797ed6e38ed64bf6a1f01000000000000000083106128a8577a184f03e93ff9f4daa797ed6e38ed64bf6a1f010000000000000000830492506040015b6d04ee2d6d415b85acef810000000083106128d4576d04ee2d6d415b85acef8100000000830492506020015b662386f26fc1000083106128f257662386f26fc10000830492506010015b6305f5e100831061290a576305f5e100830492506008015b612710831061291e57612710830492506004015b60648310612930576064830492506002015b600a83106108bc5760010192915050565b6000808212156129ad576040517f08c379a000000000000000000000000000000000000000000000000000000000815260206004820181905260248201527f53616665436173743a2076616c7565206d75737420626520706f7369746976656044820152606401610a4c565b5090565b6129bb8383612c40565b6129c8600084848461266c565b610b14576040517f08c379a000000000000000000000000000000000000000000000000000000000815260206004820152603260248201527f4552433732313a207472616e7366657220746f206e6f6e20455243373231526560448201527f63656976657220696d706c656d656e74657200000000000000000000000000006064820152608401610a4c565b6000827fffffffffffffffffffffffffffffffffffffffffffffffffffffffffffffffff0484118302158202612a8957600080fd5b5091020490565b612a9c84848484612e73565b6001811115612b2d576040517f08c379a000000000000000000000000000000000000000000000000000000000815260206004820152603560248201527f455243373231456e756d657261626c653a20636f6e736563757469766520747260448201527f616e7366657273206e6f7420737570706f7274656400000000000000000000006064820152608401610a4c565b8173ffffffffffffffffffffffffffffffffffffffff8516612b9657612b9181600880546000838152600960205260408120829055600182018355919091527ff3f7a9fe364faab93b216da50a3214154f22a0a2b415b23a84c8169e8b636ee30155565b612bd3565b8373ffffffffffffffffffffffffffffffffffffffff168573ffffffffffffffffffffffffffffffffffffffff1614612bd357612bd38582612f2f565b73ffffffffffffffffffffffffffffffffffffffff8416612bfc57612bf781612fe6565b612c39565b8473ffffffffffffffffffffffffffffffffffffffff168473ffffffffffffffffffffffffffffffffffffffff1614612c3957612c398482613095565b5050505050565b73ffffffffffffffffffffffffffffffffffffffff8216612cbd576040517f08c379a000000000000000000000000000000000000000000000000000000000815260206004820181905260248201527f4552433732313a206d696e7420746f20746865207a65726f20616464726573736044820152606401610a4c565b60008181526002602052604090205473ffffffffffffffffffffffffffffffffffffffff1615612d49576040517f08c379a000000000000000000000000000000000000000000000000000000000815260206004820152601c60248201527f4552433732313a20746f6b656e20616c7265616479206d696e746564000000006044820152606401610a4c565b612d5760008383600161264a565b60008181526002602052604090205473ffffffffffffffffffffffffffffffffffffffff1615612de3576040517f08c379a000000000000000000000000000000000000000000000000000000000815260206004820152601c60248201527f4552433732313a20746f6b656e20616c7265616479206d696e746564000000006044820152606401610a4c565b73ffffffffffffffffffffffffffffffffffffffff8216600081815260036020908152604080832080546001019055848352600290915280822080547fffffffffffffffffffffffff0000000000000000000000000000000000000000168417905551839291907fddf252ad1be2c89b69c2b068fc378daa952ba7f163c4a11628f55a4df523b3ef908290a45050565b600181111561164a5773ffffffffffffffffffffffffffffffffffffffff841615612ed35773ffffffffffffffffffffffffffffffffffffffff841660009081526003602052604081208054839290612ecd90849061357b565b90915550505b73ffffffffffffffffffffffffffffffffffffffff83161561164a5773ffffffffffffffffffffffffffffffffffffffff831660009081526003602052604081208054839290612f2490849061350a565b909155505050505050565b60006001612f3c8461130c565b612f46919061357b565b600083815260076020526040902054909150808214612fa65773ffffffffffffffffffffffffffffffffffffffff841660009081526006602090815260408083208584528252808320548484528184208190558352600790915290208190555b50600091825260076020908152604080842084905573ffffffffffffffffffffffffffffffffffffffff9094168352600681528383209183525290812055565b600854600090612ff89060019061357b565b600083815260096020526040812054600880549394509092849081106130205761302061351d565b9060005260206000200154905080600883815481106130415761304161351d565b6000918252602080832090910192909255828152600990915260408082208490558582528120556008805480613079576130796136b0565b6001900381819060005260206000200160009055905550505050565b60006130a08361130c565b73ffffffffffffffffffffffffffffffffffffffff9093166000908152600660209081526040808320868452825280832085905593825260079052919091209190915550565b7fffffffff0000000000000000000000000000000000000000000000000000000081168114611c9457600080fd5b60006020828403121561312657600080fd5b81356110aa816130e6565b60005b8381101561314c578181015183820152602001613134565b50506000910152565b6000815180845261316d816020860160208601613131565b601f017fffffffffffffffffffffffffffffffffffffffffffffffffffffffffffffffe0169290920160200192915050565b6020815260006110aa6020830184613155565b6000602082840312156131c457600080fd5b5035919050565b803573ffffffffffffffffffffffffffffffffffffffff81168114610bf557600080fd5b6000806040838503121561320257600080fd5b61320b836131cb565b946020939093013593505050565b60006020828403121561322b57600080fd5b6110aa826131cb565b60008060006060848603121561324957600080fd5b83359250613259602085016131cb565b9150604084013590509250925092565b6000806040838503121561327c57600080fd5b8235915061328c602084016131cb565b90509250929050565b6000806000606084860312156132aa57600080fd5b6132b3846131cb565b9250613259602085016131cb565b600080604083850312156132d457600080fd5b6132dd836131cb565b9150602083013580151581146132f257600080fd5b809150509250929050565b7f4e487b7100000000000000000000000000000000000000000000000000000000600052604160045260246000fd5b6000806000806080858703121561334257600080fd5b61334b856131cb565b9350613359602086016131cb565b925060408501359150606085013567ffffffffffffffff8082111561337d57600080fd5b818701915087601f83011261339157600080fd5b8135818111156133a3576133a36132fd565b604051601f82017fffffffffffffffffffffffffffffffffffffffffffffffffffffffffffffffe0908116603f011681019083821181831017156133e9576133e96132fd565b816040528281528a602084870101111561340257600080fd5b82602086016020830137600060208483010152809550505050505092959194509250565b6000806040838503121561343957600080fd5b613442836131cb565b915061328c602084016131cb565b600181811c9082168061346457607f821691505b60208210810361349d577f4e487b7100000000000000000000000000000000000000000000000000000000600052602260045260246000fd5b50919050565b7f4e487b7100000000000000000000000000000000000000000000000000000000600052601160045260246000fd5b60007fffffffffffffffffffffffffffffffffffffffffffffffffffffffffffffffff8203613503576135036134a3565b5060010190565b808201808211156108bc576108bc6134a3565b7f4e487b7100000000000000000000000000000000000000000000000000000000600052603260045260246000fd5b6000835161355e818460208801613131565b835190830190613572818360208801613131565b01949350505050565b818103818111156108bc576108bc6134a3565b80820281158282048414176108bc576108bc6134a3565b6000826135db577f4e487b7100000000000000000000000000000000000000000000000000000000600052601260045260246000fd5b500490565b805169ffffffffffffffffffff81168114610bf557600080fd5b600080600080600060a0868803121561361257600080fd5b61361b866135e0565b945060208601519350604086015192506060860151915061363e608087016135e0565b90509295509295909350565b600073ffffffffffffffffffffffffffffffffffffffff8087168352808616602084015250836040830152608060608301526136896080830184613155565b9695505050505050565b6000602082840312156136a557600080fd5b81516110aa816130e6565b7f4e487b7100000000000000000000000000000000000000000000000000000000600052603160045260246000fdfea2646970667358221220fc22b7e568e104cd5078c99a35ca9f4d0db067f84393fbac66a9a71c619bcb4864736f6c63430008110033",
    "linkReferences": {}
  },
  "methodIdentifiers": {
    "INSIDER_MINTS()": "21157246",
    "MIN_COLLATERIZATION_RATIO()": "35f2faf0",
    "PUBLIC_MINTS()": "1bb85b4f",
    "approve(address,uint256)": "095ea7b3",
    "balanceOf(address)": "70a08231",
    "deposit(uint256)": "b6b55f25",
    "dyad()": "add95a51",
    "getApproved(uint256)": "081812fc",
    "grant(uint256,address)": "887d7c3e",
    "hasPermission(uint256,address)": "4cf15858",
    "id2dyad(uint256)": "cf748df9",
    "id2eth(uint256)": "c0f91b8a",
    "id2lastOwnershipChange(uint256)": "b3c6fb9c",
    "id2permission(uint256,address)": "99976134",
    "insiderMints()": "279e4a63",
    "isApprovedForAll(address,address)": "e985e9c5",
    "liquidate(uint256,address)": "5fae8b3d",
    "mintDyad(uint256,address,uint256)": "176c0abd",
    "mintInsiderNft(address)": "0b56f8b6",
    "mintNft(address)": "e9c2e14b",
    "name()": "06fdde03",
    "oracle()": "7dc0d1d0",
    "owner()": "8da5cb5b",
    "ownerOf(uint256)": "6352211e",
    "publicMints()": "2336296a",
    "redeem(uint256,address,uint256)": "d8780161",
    "revoke(uint256,address)": "20d154da",
    "safeTransferFrom(address,address,uint256)": "42842e0e",
    "safeTransferFrom(address,address,uint256,bytes)": "b88d4fde",
    "setApprovalForAll(address,bool)": "a22cb465",
    "supportsInterface(bytes4)": "01ffc9a7",
    "symbol()": "95d89b41",
    "tokenByIndex(uint256)": "4f6ccce7",
    "tokenOfOwnerByIndex(address,uint256)": "2f745c59",
    "tokenURI(uint256)": "c87b56dd",
    "totalSupply()": "18160ddd",
    "transferFrom(address,address,uint256)": "23b872dd",
    "transferOwnership(address)": "f2fde38b",
    "withdraw(uint256,address,uint256)": "e63697c8"
  },
  "id": 38
}