{
  "abi": [
    {
      "inputs": [
        {
          "internalType": "address",
          "name": "_dyad",
          "type": "address"
        },
        {
          "internalType": "address",
          "name": "_oracle",
          "type": "address"
        },
        {
          "internalType": "uint256",
          "name": "_minMintDyadDeposit",
          "type": "uint256"
        },
        {
          "internalType": "address",
          "name": "_owner",
          "type": "address"
        }
      ],
      "stateMutability": "nonpayable",
      "type": "constructor"
    },
    {
      "inputs": [],
      "name": "CrTooHigh",
      "type": "error"
    },
    {
      "inputs": [],
      "name": "CrTooLow",
      "type": "error"
    },
    {
      "inputs": [],
      "name": "DepositTooLow",
      "type": "error"
    },
    {
      "inputs": [],
      "name": "InTimeout",
      "type": "error"
    },
    {
      "inputs": [],
      "name": "IncompleteRound",
      "type": "error"
    },
    {
      "inputs": [],
      "name": "InsiderMintsExceeded",
      "type": "error"
    },
    {
      "inputs": [],
      "name": "InvalidNft",
      "type": "error"
    },
    {
      "inputs": [],
      "name": "MissingPermission",
      "type": "error"
    },
    {
      "inputs": [],
      "name": "NotLiquidatable",
      "type": "error"
    },
    {
      "inputs": [],
      "name": "NotOwner",
      "type": "error"
    },
    {
      "inputs": [],
      "name": "PublicMintsExceeded",
      "type": "error"
    },
    {
      "inputs": [],
      "name": "SamePrice",
      "type": "error"
    },
    {
      "inputs": [],
      "name": "StaleData",
      "type": "error"
    },
    {
      "inputs": [],
      "name": "ZeroDeposit",
      "type": "error"
    },
    {
      "inputs": [],
      "name": "ZeroShares",
      "type": "error"
    },
    {
      "anonymous": false,
      "inputs": [
        {
          "indexed": true,
          "internalType": "uint256",
          "name": "id",
          "type": "uint256"
        },
        {
          "indexed": false,
          "internalType": "uint256",
          "name": "amount",
          "type": "uint256"
        }
      ],
      "name": "Added",
      "type": "event"
    },
    {
      "anonymous": false,
      "inputs": [
        {
          "indexed": true,
          "internalType": "address",
          "name": "owner",
          "type": "address"
        },
        {
          "indexed": true,
          "internalType": "address",
          "name": "approved",
          "type": "address"
        },
        {
          "indexed": true,
          "internalType": "uint256",
          "name": "tokenId",
          "type": "uint256"
        }
      ],
      "name": "Approval",
      "type": "event"
    },
    {
      "anonymous": false,
      "inputs": [
        {
          "indexed": true,
          "internalType": "address",
          "name": "owner",
          "type": "address"
        },
        {
          "indexed": true,
          "internalType": "address",
          "name": "operator",
          "type": "address"
        },
        {
          "indexed": false,
          "internalType": "bool",
          "name": "approved",
          "type": "bool"
        }
      ],
      "name": "ApprovalForAll",
      "type": "event"
    },
    {
      "anonymous": false,
      "inputs": [
        {
          "indexed": true,
          "internalType": "uint256",
          "name": "id",
          "type": "uint256"
        },
        {
          "indexed": true,
          "internalType": "address",
          "name": "operator",
          "type": "address"
        }
      ],
      "name": "Granted",
      "type": "event"
    },
    {
      "anonymous": false,
      "inputs": [
        {
          "indexed": true,
          "internalType": "address",
          "name": "from",
          "type": "address"
        },
        {
          "indexed": true,
          "internalType": "address",
          "name": "to",
          "type": "address"
        },
        {
          "indexed": true,
          "internalType": "uint256",
          "name": "id",
          "type": "uint256"
        }
      ],
      "name": "Liquidated",
      "type": "event"
    },
    {
      "anonymous": false,
      "inputs": [
        {
          "indexed": true,
          "internalType": "address",
          "name": "to",
          "type": "address"
        },
        {
          "indexed": true,
          "internalType": "uint256",
          "name": "id",
          "type": "uint256"
        }
      ],
      "name": "Minted",
      "type": "event"
    },
    {
      "anonymous": false,
      "inputs": [
        {
          "indexed": true,
          "internalType": "uint256",
          "name": "from",
          "type": "uint256"
        },
        {
          "indexed": true,
          "internalType": "uint256",
          "name": "to",
          "type": "uint256"
        },
        {
          "indexed": false,
          "internalType": "uint256",
          "name": "amount",
          "type": "uint256"
        }
      ],
      "name": "Moved",
      "type": "event"
    },
    {
      "anonymous": false,
      "inputs": [
        {
          "indexed": true,
          "internalType": "address",
          "name": "user",
          "type": "address"
        },
        {
          "indexed": true,
          "internalType": "address",
          "name": "newOwner",
          "type": "address"
        }
      ],
      "name": "OwnershipTransferred",
      "type": "event"
    },
    {
      "anonymous": false,
      "inputs": [
        {
          "indexed": false,
          "internalType": "uint256",
          "name": "supplyDelta",
          "type": "uint256"
        }
      ],
      "name": "Rebased",
      "type": "event"
    },
    {
      "anonymous": false,
      "inputs": [
        {
          "indexed": true,
          "internalType": "address",
          "name": "from",
          "type": "address"
        },
        {
          "indexed": false,
          "internalType": "uint256",
          "name": "amount",
          "type": "uint256"
        },
        {
          "indexed": true,
          "internalType": "address",
          "name": "to",
          "type": "address"
        },
        {
          "indexed": false,
          "internalType": "uint256",
          "name": "eth",
          "type": "uint256"
        }
      ],
      "name": "Redeemed",
      "type": "event"
    },
    {
      "anonymous": false,
      "inputs": [
        {
          "indexed": true,
          "internalType": "uint256",
          "name": "id",
          "type": "uint256"
        },
        {
          "indexed": false,
          "internalType": "uint256",
          "name": "amount",
          "type": "uint256"
        }
      ],
      "name": "Removed",
      "type": "event"
    },
    {
      "anonymous": false,
      "inputs": [
        {
          "indexed": true,
          "internalType": "uint256",
          "name": "id",
          "type": "uint256"
        },
        {
          "indexed": true,
          "internalType": "address",
          "name": "operator",
          "type": "address"
        }
      ],
      "name": "Revoked",
      "type": "event"
    },
    {
      "anonymous": false,
      "inputs": [
        {
          "indexed": true,
          "internalType": "address",
          "name": "from",
          "type": "address"
        },
        {
          "indexed": true,
          "internalType": "address",
          "name": "to",
          "type": "address"
        },
        {
          "indexed": true,
          "internalType": "uint256",
          "name": "tokenId",
          "type": "uint256"
        }
      ],
      "name": "Transfer",
      "type": "event"
    },
    {
      "anonymous": false,
      "inputs": [
        {
          "indexed": true,
          "internalType": "uint256",
          "name": "from",
          "type": "uint256"
        },
        {
          "indexed": true,
          "internalType": "address",
          "name": "to",
          "type": "address"
        },
        {
          "indexed": false,
          "internalType": "uint256",
          "name": "amount",
          "type": "uint256"
        }
      ],
      "name": "Withdrawn",
      "type": "event"
    },
    {
      "inputs": [],
      "name": "INSIDER_MINTS",
      "outputs": [
        {
          "internalType": "uint256",
          "name": "",
          "type": "uint256"
        }
      ],
      "stateMutability": "view",
      "type": "function"
    },
    {
      "inputs": [],
      "name": "MIN_COLLATERIZATION_RATIO",
      "outputs": [
        {
          "internalType": "uint256",
          "name": "",
          "type": "uint256"
        }
      ],
      "stateMutability": "view",
      "type": "function"
    },
    {
      "inputs": [],
      "name": "MIN_DYAD_DEPOSIT",
      "outputs": [
        {
          "internalType": "uint256",
          "name": "",
          "type": "uint256"
        }
      ],
      "stateMutability": "view",
      "type": "function"
    },
    {
      "inputs": [],
      "name": "MIN_MINT_DYAD_DEPOSIT",
      "outputs": [
        {
          "internalType": "uint256",
          "name": "",
          "type": "uint256"
        }
      ],
      "stateMutability": "view",
      "type": "function"
    },
    {
      "inputs": [],
      "name": "PUBLIC_MINTS",
      "outputs": [
        {
          "internalType": "uint256",
          "name": "",
          "type": "uint256"
        }
      ],
      "stateMutability": "view",
      "type": "function"
    },
    {
      "inputs": [],
      "name": "TIMEOUT",
      "outputs": [
        {
          "internalType": "uint256",
          "name": "",
          "type": "uint256"
        }
      ],
      "stateMutability": "view",
      "type": "function"
    },
    {
      "inputs": [
        {
          "internalType": "address",
          "name": "to",
          "type": "address"
        }
      ],
      "name": "_mint",
      "outputs": [
        {
          "internalType": "uint256",
          "name": "",
          "type": "uint256"
        }
      ],
      "stateMutability": "nonpayable",
      "type": "function"
    },
    {
      "inputs": [
        {
          "internalType": "address",
          "name": "to",
          "type": "address"
        },
        {
          "internalType": "uint256",
          "name": "tokenId",
          "type": "uint256"
        }
      ],
      "name": "approve",
      "outputs": [],
      "stateMutability": "nonpayable",
      "type": "function"
    },
    {
      "inputs": [
        {
          "internalType": "address",
          "name": "owner",
          "type": "address"
        }
      ],
      "name": "balanceOf",
      "outputs": [
        {
          "internalType": "uint256",
          "name": "",
          "type": "uint256"
        }
      ],
      "stateMutability": "view",
      "type": "function"
    },
    {
      "inputs": [
        {
          "internalType": "uint256",
          "name": "id",
          "type": "uint256"
        },
        {
          "internalType": "uint256",
          "name": "amount",
          "type": "uint256"
        }
      ],
      "name": "depositDyad",
      "outputs": [
        {
          "internalType": "uint256",
          "name": "",
          "type": "uint256"
        }
      ],
      "stateMutability": "nonpayable",
      "type": "function"
    },
    {
      "inputs": [
        {
          "internalType": "uint256",
          "name": "id",
          "type": "uint256"
        }
      ],
      "name": "depositEth",
      "outputs": [
        {
          "internalType": "uint256",
          "name": "",
          "type": "uint256"
        }
      ],
      "stateMutability": "payable",
      "type": "function"
    },
    {
      "inputs": [],
      "name": "dyad",
      "outputs": [
        {
          "internalType": "contract Dyad",
          "name": "",
          "type": "address"
        }
      ],
      "stateMutability": "view",
      "type": "function"
    },
    {
      "inputs": [],
      "name": "ethPrice",
      "outputs": [
        {
          "internalType": "uint256",
          "name": "",
          "type": "uint256"
        }
      ],
      "stateMutability": "view",
      "type": "function"
    },
    {
      "inputs": [
        {
          "internalType": "uint256",
          "name": "tokenId",
          "type": "uint256"
        }
      ],
      "name": "getApproved",
      "outputs": [
        {
          "internalType": "address",
          "name": "",
          "type": "address"
        }
      ],
      "stateMutability": "view",
      "type": "function"
    },
    {
      "inputs": [
        {
          "internalType": "uint256",
          "name": "id",
          "type": "uint256"
        },
        {
          "internalType": "address",
          "name": "operator",
          "type": "address"
        }
      ],
      "name": "grant",
      "outputs": [],
      "stateMutability": "nonpayable",
      "type": "function"
    },
    {
      "inputs": [
        {
          "internalType": "uint256",
          "name": "id",
          "type": "uint256"
        },
        {
          "internalType": "address",
          "name": "operator",
          "type": "address"
        }
      ],
      "name": "hasPermission",
      "outputs": [
        {
          "internalType": "bool",
          "name": "",
          "type": "bool"
        }
      ],
      "stateMutability": "view",
      "type": "function"
    },
    {
      "inputs": [
        {
          "internalType": "uint256",
          "name": "",
          "type": "uint256"
        }
      ],
      "name": "id2lastDeposit",
      "outputs": [
        {
          "internalType": "uint256",
          "name": "",
          "type": "uint256"
        }
      ],
      "stateMutability": "view",
      "type": "function"
    },
    {
      "inputs": [
        {
          "internalType": "uint256",
          "name": "",
          "type": "uint256"
        }
      ],
      "name": "id2lastOwnershipChange",
      "outputs": [
        {
          "internalType": "uint256",
          "name": "",
          "type": "uint256"
        }
      ],
      "stateMutability": "view",
      "type": "function"
    },
    {
      "inputs": [
        {
          "internalType": "uint256",
          "name": "",
          "type": "uint256"
        },
        {
          "internalType": "address",
          "name": "",
          "type": "address"
        }
      ],
      "name": "id2permission",
      "outputs": [
        {
          "internalType": "bool",
          "name": "hasPermission",
          "type": "bool"
        },
        {
          "internalType": "uint248",
          "name": "lastUpdated",
          "type": "uint248"
        }
      ],
      "stateMutability": "view",
      "type": "function"
    },
    {
      "inputs": [
        {
          "internalType": "uint256",
          "name": "",
          "type": "uint256"
        }
      ],
      "name": "id2shares",
      "outputs": [
        {
          "internalType": "uint256",
          "name": "",
          "type": "uint256"
        }
      ],
      "stateMutability": "view",
      "type": "function"
    },
    {
      "inputs": [
        {
          "internalType": "uint256",
          "name": "",
          "type": "uint256"
        }
      ],
      "name": "id2withdrawn",
      "outputs": [
        {
          "internalType": "uint256",
          "name": "",
          "type": "uint256"
        }
      ],
      "stateMutability": "view",
      "type": "function"
    },
    {
      "inputs": [],
      "name": "insiderMints",
      "outputs": [
        {
          "internalType": "uint256",
          "name": "",
          "type": "uint256"
        }
      ],
      "stateMutability": "view",
      "type": "function"
    },
    {
      "inputs": [
        {
          "internalType": "address",
          "name": "owner",
          "type": "address"
        },
        {
          "internalType": "address",
          "name": "operator",
          "type": "address"
        }
      ],
      "name": "isApprovedForAll",
      "outputs": [
        {
          "internalType": "bool",
          "name": "",
          "type": "bool"
        }
      ],
      "stateMutability": "view",
      "type": "function"
    },
    {
      "inputs": [
        {
          "internalType": "uint256",
          "name": "id",
          "type": "uint256"
        },
        {
          "internalType": "address",
          "name": "to",
          "type": "address"
        }
      ],
      "name": "liquidate",
      "outputs": [],
      "stateMutability": "payable",
      "type": "function"
    },
    {
      "inputs": [
        {
          "internalType": "address",
          "name": "to",
          "type": "address"
        }
      ],
      "name": "mint",
      "outputs": [
        {
          "internalType": "uint256",
          "name": "",
          "type": "uint256"
        }
      ],
      "stateMutability": "payable",
      "type": "function"
    },
    {
      "inputs": [
        {
          "internalType": "uint256",
          "name": "from",
          "type": "uint256"
        },
        {
          "internalType": "uint256",
          "name": "to",
          "type": "uint256"
        },
        {
          "internalType": "uint256",
          "name": "shares",
          "type": "uint256"
        }
      ],
      "name": "move",
      "outputs": [],
      "stateMutability": "nonpayable",
      "type": "function"
    },
    {
      "inputs": [],
      "name": "name",
      "outputs": [
        {
          "internalType": "string",
          "name": "",
          "type": "string"
        }
      ],
      "stateMutability": "view",
      "type": "function"
    },
    {
      "inputs": [],
      "name": "oracle",
      "outputs": [
        {
          "internalType": "contract IAggregatorV3",
          "name": "",
          "type": "address"
        }
      ],
      "stateMutability": "view",
      "type": "function"
    },
    {
      "inputs": [],
      "name": "owner",
      "outputs": [
        {
          "internalType": "address",
          "name": "",
          "type": "address"
        }
      ],
      "stateMutability": "view",
      "type": "function"
    },
    {
      "inputs": [
        {
          "internalType": "uint256",
          "name": "tokenId",
          "type": "uint256"
        }
      ],
      "name": "ownerOf",
      "outputs": [
        {
          "internalType": "address",
          "name": "",
          "type": "address"
        }
      ],
      "stateMutability": "view",
      "type": "function"
    },
    {
      "inputs": [],
      "name": "publicMints",
      "outputs": [
        {
          "internalType": "uint256",
          "name": "",
          "type": "uint256"
        }
      ],
      "stateMutability": "view",
      "type": "function"
    },
    {
      "inputs": [
        {
          "internalType": "uint256",
          "name": "from",
          "type": "uint256"
        },
        {
          "internalType": "address",
          "name": "to",
          "type": "address"
        },
        {
          "internalType": "uint256",
          "name": "amount",
          "type": "uint256"
        }
      ],
      "name": "redeemDeposit",
      "outputs": [
        {
          "internalType": "uint256",
          "name": "",
          "type": "uint256"
        }
      ],
      "stateMutability": "nonpayable",
      "type": "function"
    },
    {
      "inputs": [
        {
          "internalType": "uint256",
          "name": "from",
          "type": "uint256"
        },
        {
          "internalType": "address",
          "name": "to",
          "type": "address"
        },
        {
          "internalType": "uint256",
          "name": "amount",
          "type": "uint256"
        }
      ],
      "name": "redeemDyad",
      "outputs": [
        {
          "internalType": "uint256",
          "name": "",
          "type": "uint256"
        }
      ],
      "stateMutability": "nonpayable",
      "type": "function"
    },
    {
      "inputs": [
        {
          "internalType": "uint256",
          "name": "id",
          "type": "uint256"
        },
        {
          "internalType": "address",
          "name": "operator",
          "type": "address"
        }
      ],
      "name": "revoke",
      "outputs": [],
      "stateMutability": "nonpayable",
      "type": "function"
    },
    {
      "inputs": [
        {
          "internalType": "address",
          "name": "from",
          "type": "address"
        },
        {
          "internalType": "address",
          "name": "to",
          "type": "address"
        },
        {
          "internalType": "uint256",
          "name": "tokenId",
          "type": "uint256"
        }
      ],
      "name": "safeTransferFrom",
      "outputs": [],
      "stateMutability": "nonpayable",
      "type": "function"
    },
    {
      "inputs": [
        {
          "internalType": "address",
          "name": "from",
          "type": "address"
        },
        {
          "internalType": "address",
          "name": "to",
          "type": "address"
        },
        {
          "internalType": "uint256",
          "name": "tokenId",
          "type": "uint256"
        },
        {
          "internalType": "bytes",
          "name": "data",
          "type": "bytes"
        }
      ],
      "name": "safeTransferFrom",
      "outputs": [],
      "stateMutability": "nonpayable",
      "type": "function"
    },
    {
      "inputs": [
        {
          "internalType": "address",
          "name": "operator",
          "type": "address"
        },
        {
          "internalType": "bool",
          "name": "approved",
          "type": "bool"
        }
      ],
      "name": "setApprovalForAll",
      "outputs": [],
      "stateMutability": "nonpayable",
      "type": "function"
    },
    {
      "inputs": [
        {
          "internalType": "bytes4",
          "name": "interfaceId",
          "type": "bytes4"
        }
      ],
      "name": "supportsInterface",
      "outputs": [
        {
          "internalType": "bool",
          "name": "",
          "type": "bool"
        }
      ],
      "stateMutability": "view",
      "type": "function"
    },
    {
      "inputs": [],
      "name": "symbol",
      "outputs": [
        {
          "internalType": "string",
          "name": "",
          "type": "string"
        }
      ],
      "stateMutability": "view",
      "type": "function"
    },
    {
      "inputs": [
        {
          "internalType": "uint256",
          "name": "index",
          "type": "uint256"
        }
      ],
      "name": "tokenByIndex",
      "outputs": [
        {
          "internalType": "uint256",
          "name": "",
          "type": "uint256"
        }
      ],
      "stateMutability": "view",
      "type": "function"
    },
    {
      "inputs": [
        {
          "internalType": "address",
          "name": "owner",
          "type": "address"
        },
        {
          "internalType": "uint256",
          "name": "index",
          "type": "uint256"
        }
      ],
      "name": "tokenOfOwnerByIndex",
      "outputs": [
        {
          "internalType": "uint256",
          "name": "",
          "type": "uint256"
        }
      ],
      "stateMutability": "view",
      "type": "function"
    },
    {
      "inputs": [
        {
          "internalType": "uint256",
          "name": "tokenId",
          "type": "uint256"
        }
      ],
      "name": "tokenURI",
      "outputs": [
        {
          "internalType": "string",
          "name": "",
          "type": "string"
        }
      ],
      "stateMutability": "view",
      "type": "function"
    },
    {
      "inputs": [],
      "name": "totalDeposit",
      "outputs": [
        {
          "internalType": "uint256",
          "name": "",
          "type": "uint256"
        }
      ],
      "stateMutability": "view",
      "type": "function"
    },
    {
      "inputs": [],
      "name": "totalShares",
      "outputs": [
        {
          "internalType": "uint256",
          "name": "",
          "type": "uint256"
        }
      ],
      "stateMutability": "view",
      "type": "function"
    },
    {
      "inputs": [],
      "name": "totalSupply",
      "outputs": [
        {
          "internalType": "uint256",
          "name": "",
          "type": "uint256"
        }
      ],
      "stateMutability": "view",
      "type": "function"
    },
    {
      "inputs": [
        {
          "internalType": "address",
          "name": "from",
          "type": "address"
        },
        {
          "internalType": "address",
          "name": "to",
          "type": "address"
        },
        {
          "internalType": "uint256",
          "name": "tokenId",
          "type": "uint256"
        }
      ],
      "name": "transferFrom",
      "outputs": [],
      "stateMutability": "nonpayable",
      "type": "function"
    },
    {
      "inputs": [
        {
          "internalType": "address",
          "name": "newOwner",
          "type": "address"
        }
      ],
      "name": "transferOwnership",
      "outputs": [],
      "stateMutability": "nonpayable",
      "type": "function"
    },
    {
      "inputs": [
        {
          "internalType": "uint256",
          "name": "from",
          "type": "uint256"
        },
        {
          "internalType": "address",
          "name": "to",
          "type": "address"
        },
        {
          "internalType": "uint256",
          "name": "amount",
          "type": "uint256"
        }
      ],
      "name": "withdraw",
      "outputs": [],
      "stateMutability": "nonpayable",
      "type": "function"
    }
  ],
  "bytecode": {
    "object": "0x60c06040523480156200001157600080fd5b5060405162004ba338038062004ba3833981016040819052620000349162000309565b8060405180604001604052806008815260200167111e58590813919560c21b815250604051806040016040528060048152602001631913919560e21b815250816000908162000084919062000402565b50600162000093828262000402565b5050600a80546001600160a01b0319166001600160a01b0384169081179091556040519091506000907f8be0079c531659141344cd1fd0a4f28419497f9722a3daafe3b4186f6b6457e0908290a350601580546001600160a01b03199081166001600160a01b0387811691909117909255601680549091169185169190911790556080829052620001398267016345785d8a000062000154602090811b6200259017901c565b60a0526200014662000172565b600b55506200053b92505050565b60006200016b8383670de0b6b3a764000062000272565b9392505050565b6000806000806000601660009054906101000a90046001600160a01b03166001600160a01b031663feaf968c6040518163ffffffff1660e01b815260040160a060405180830381865afa158015620001ce573d6000803e3d6000fd5b505050506040513d601f19601f82011682018060405250810190620001f49190620004e6565b945094505093509350816000036200021f57604051638ad52bdd60e01b815260040160405180910390fd5b836001600160501b0316816001600160501b031610156200025357604051636ead710b60e01b815260040160405180910390fd5b62000269836200029160201b620025a51760201c565b94505050505090565b60008260001904841183021582026200028a57600080fd5b5091020490565b600080821215620002e85760405162461bcd60e51b815260206004820181905260248201527f53616665436173743a2076616c7565206d75737420626520706f736974697665604482015260640160405180910390fd5b5090565b80516001600160a01b03811681146200030457600080fd5b919050565b600080600080608085870312156200032057600080fd5b6200032b85620002ec565b93506200033b60208601620002ec565b9250604085015191506200035260608601620002ec565b905092959194509250565b634e487b7160e01b600052604160045260246000fd5b600181811c908216806200038857607f821691505b602082108103620003a957634e487b7160e01b600052602260045260246000fd5b50919050565b601f821115620003fd57600081815260208120601f850160051c81016020861015620003d85750805b601f850160051c820191505b81811015620003f957828155600101620003e4565b5050505b505050565b81516001600160401b038111156200041e576200041e6200035d565b62000436816200042f845462000373565b84620003af565b602080601f8311600181146200046e5760008415620004555750858301515b600019600386901b1c1916600185901b178555620003f9565b600085815260208120601f198616915b828110156200049f578886015182559484019460019091019084016200047e565b5085821015620004be5787850151600019600388901b60f8161c191681555b5050505050600190811b01905550565b80516001600160501b03811681146200030457600080fd5b600080600080600060a08688031215620004ff57600080fd5b6200050a86620004ce565b94506020860151935060408601519250606086015191506200052f60808701620004ce565b90509295509295909350565b60805160a0516146346200056f60003960008181610636015261338201526000818161058c015261196a01526146346000f3fe6080604052600436106103135760003560e01c80635fae8b3d1161019a578063add95a51116100e1578063e985e9c51161008a578063f6153ccd11610064578063f6153ccd146109ba578063fa7c9bcf146109d0578063ff186b2e146109f057600080fd5b8063e985e9c51461092e578063f2fde38b14610984578063f56f48f2146109a457600080fd5b8063c87b56dd116100bb578063c87b56dd146108ce578063e1e7c5fe146108ee578063e63697c81461090e57600080fd5b8063add95a5114610854578063b3c6fb9c14610881578063b88d4fde146108ae57600080fd5b80638da5cb5b11610143578063999761341161011d578063999761341461077a578063a22cb46514610814578063a4d235f11461083457600080fd5b80638da5cb5b1461070b57806395d89b411461073857806397d6be931461074d57600080fd5b806370a082311161017457806370a082311461069e5780637dc0d1d0146106be578063887d7c3e146106eb57600080fd5b80635fae8b3d146106585780636352211e1461066b5780636a6278421461068b57600080fd5b80632336296a1161025e578063397b8024116102075780634cf15858116101e15780634cf15858146105e45780634f6ccce71461060457806350290d181461062457600080fd5b8063397b80241461057a5780633a98ef39146105ae57806342842e0e146105c457600080fd5b80632f745c59116102385780632f745c5914610511578063346a34d91461053157806335f2faf01461055e57600080fd5b80632336296a146104c557806323b872dd146104db578063279e4a63146104fb57600080fd5b8063114e84d0116102c05780631bb85b4f1161029a5780631bb85b4f1461047957806320d154da1461048f57806321157246146104af57600080fd5b8063114e84d01461041757806316fa03601461043757806318160ddd1461046457600080fd5b8063095ea7b3116102f1578063095ea7b3146103b457806309aa7b67146103d65780630f4d14e91461040457600080fd5b806301ffc9a71461031857806306fdde031461034d578063081812fc1461036f575b600080fd5b34801561032457600080fd5b50610338610333366004613fd2565b610a06565b60405190151581526020015b60405180910390f35b34801561035957600080fd5b50610362610a62565b604051610344919061405d565b34801561037b57600080fd5b5061038f61038a366004614070565b610af4565b60405173ffffffffffffffffffffffffffffffffffffffff9091168152602001610344565b3480156103c057600080fd5b506103d46103cf3660046140ad565b610b28565b005b3480156103e257600080fd5b506103f66103f13660046140d7565b610cb9565b604051908152602001610344565b6103f6610412366004614070565b610d9a565b34801561042357600080fd5b506103f66104323660046140f2565b610f62565b34801561044357600080fd5b506103f6610452366004614070565b60126020526000908152604090205481565b34801561047057600080fd5b506008546103f6565b34801561048557600080fd5b506103f66106a481565b34801561049b57600080fd5b506103d46104aa366004614114565b6110fc565b3480156104bb57600080fd5b506103f661012c81565b3480156104d157600080fd5b506103f6600f5481565b3480156104e757600080fd5b506103d46104f6366004614140565b6111b5565b34801561050757600080fd5b506103f6600e5481565b34801561051d57600080fd5b506103f661052c3660046140ad565b611256565b34801561053d57600080fd5b506103f661054c366004614070565b60106020526000908152604090205481565b34801561056a57600080fd5b506103f66729a2241af62c000081565b34801561058657600080fd5b506103f67f000000000000000000000000000000000000000000000000000000000000000081565b3480156105ba57600080fd5b506103f6600d5481565b3480156105d057600080fd5b506103d46105df366004614140565b611325565b3480156105f057600080fd5b506103386105ff366004614114565b611340565b34801561061057600080fd5b506103f661061f366004614070565b611421565b34801561063057600080fd5b506103f67f000000000000000000000000000000000000000000000000000000000000000081565b6103d4610666366004614114565b6114df565b34801561067757600080fd5b5061038f610686366004614070565b611738565b6103f66106993660046140d7565b6117c4565b3480156106aa57600080fd5b506103f66106b93660046140d7565b6119d4565b3480156106ca57600080fd5b5060165461038f9073ffffffffffffffffffffffffffffffffffffffff1681565b3480156106f757600080fd5b506103d4610706366004614114565b611aa2565b34801561071757600080fd5b50600a5461038f9073ffffffffffffffffffffffffffffffffffffffff1681565b34801561074457600080fd5b50610362611ba4565b34801561075957600080fd5b506103f6610768366004614070565b60116020526000908152604090205481565b34801561078657600080fd5b506107dd610795366004614114565b601460209081526000928352604080842090915290825290205460ff81169061010090047effffffffffffffffffffffffffffffffffffffffffffffffffffffffffffff1682565b6040805192151583527effffffffffffffffffffffffffffffffffffffffffffffffffffffffffffff909116602083015201610344565b34801561082057600080fd5b506103d461082f36600461417c565b611bb3565b34801561084057600080fd5b506103f661084f3660046141b8565b611bc2565b34801561086057600080fd5b5060155461038f9073ffffffffffffffffffffffffffffffffffffffff1681565b34801561088d57600080fd5b506103f661089c366004614070565b60136020526000908152604090205481565b3480156108ba57600080fd5b506103d46108c936600461420c565b611db7565b3480156108da57600080fd5b506103626108e9366004614070565b611e5f565b3480156108fa57600080fd5b506103f66109093660046141b8565b611ed2565b34801561091a57600080fd5b506103d46109293660046141b8565b6120b1565b34801561093a57600080fd5b50610338610949366004614306565b73ffffffffffffffffffffffffffffffffffffffff918216600090815260056020908152604080832093909416825291909152205460ff1690565b34801561099057600080fd5b506103d461099f3660046140d7565b612397565b3480156109b057600080fd5b506103f6610e1081565b3480156109c657600080fd5b506103f6600c5481565b3480156109dc57600080fd5b506103d46109eb366004614330565b612489565b3480156109fc57600080fd5b506103f6600b5481565b60007fffffffff0000000000000000000000000000000000000000000000000000000082167f780e9d63000000000000000000000000000000000000000000000000000000001480610a5c5750610a5c82612615565b92915050565b606060008054610a719061435c565b80601f0160208091040260200160405190810160405280929190818152602001828054610a9d9061435c565b8015610aea5780601f10610abf57610100808354040283529160200191610aea565b820191906000526020600020905b815481529060010190602001808311610acd57829003601f168201915b5050505050905090565b6000610aff826126f8565b5060009081526004602052604090205473ffffffffffffffffffffffffffffffffffffffff1690565b6000610b3382611738565b90508073ffffffffffffffffffffffffffffffffffffffff168373ffffffffffffffffffffffffffffffffffffffff1603610bf5576040517f08c379a000000000000000000000000000000000000000000000000000000000815260206004820152602160248201527f4552433732313a20617070726f76616c20746f2063757272656e74206f776e6560448201527f720000000000000000000000000000000000000000000000000000000000000060648201526084015b60405180910390fd5b3373ffffffffffffffffffffffffffffffffffffffff82161480610c1e5750610c1e8133610949565b610caa576040517f08c379a000000000000000000000000000000000000000000000000000000000815260206004820152603d60248201527f4552433732313a20617070726f76652063616c6c6572206973206e6f7420746f60448201527f6b656e206f776e6572206f7220617070726f76656420666f7220616c6c0000006064820152608401610bec565b610cb48383612786565b505050565b600a5460009073ffffffffffffffffffffffffffffffffffffffff163314610d3d576040517f08c379a000000000000000000000000000000000000000000000000000000000815260206004820152600c60248201527f554e415554484f52495a454400000000000000000000000000000000000000006044820152606401610bec565b61012c600e60008154610d4f906143d8565b91829055501115610d8c576040517f9652890b00000000000000000000000000000000000000000000000000000000815260040160405180910390fd5b610a5c82612826565b919050565b600081610da78133611340565b610ddd576040517f3f904dc000000000000000000000000000000000000000000000000000000000815260040160405180910390fd5b6000610de7612887565b9050600b548114610f5157600b548111600081610e1a57600b54610e1590610e0f8582614410565b906129c7565b610e2b565b600b54610e2b90610e0f8186614410565b90506000610ed782600c54601560009054906101000a900473ffffffffffffffffffffffffffffffffffffffff1673ffffffffffffffffffffffffffffffffffffffff166318160ddd6040518163ffffffff1660e01b8152600401602060405180830381865afa158015610ea3573d6000803e3d6000fd5b505050506040513d601f19601f82011682018060405250810190610ec79190614423565b610ed1919061443c565b90612590565b905082610efb5780600c6000828254610ef09190614410565b925050819055610f14565b80600c6000828254610f0d919061443c565b9250508190555b50600b8490556040518181527fa3e5fc7a6648da6157201f1e26fcbbfeee8088fb7914fb85edf2056040c234c59060200160405180910390a15050505b610f5a846129dc565b949350505050565b600082610f6f8133611340565b610fa5576040517f3f904dc000000000000000000000000000000000000000000000000000000000815260040160405180910390fd5b6000610faf612887565b9050600b5481146110df57600b548111600081610fdc57600b54610fd790610e0f8582614410565b610fed565b600b54610fed90610e0f8186614410565b9050600061106582600c54601560009054906101000a900473ffffffffffffffffffffffffffffffffffffffff1673ffffffffffffffffffffffffffffffffffffffff166318160ddd6040518163ffffffff1660e01b8152600401602060405180830381865afa158015610ea3573d6000803e3d6000fd5b9050826110895780600c600082825461107e9190614410565b9250508190556110a2565b80600c600082825461109b919061443c565b9250508190555b50600b8490556040518181527fa3e5fc7a6648da6157201f1e26fcbbfeee8088fb7914fb85edf2056040c234c59060200160405180910390a15050505b6110e985856129eb565b6110f38585612a9c565b95945050505050565b813361110782611738565b73ffffffffffffffffffffffffffffffffffffffff1614611154576040517f30cd747100000000000000000000000000000000000000000000000000000000815260040160405180910390fd5b600083815260146020908152604080832073ffffffffffffffffffffffffffffffffffffffff8616808552925280832083905551909185917f0819476e55ffbe23df64353d5f7898429609397cc93c44300b058b51648f78789190a3505050565b6111bf3382612b4f565b61124b576040517f08c379a000000000000000000000000000000000000000000000000000000000815260206004820152602d60248201527f4552433732313a2063616c6c6572206973206e6f7420746f6b656e206f776e6560448201527f72206f7220617070726f766564000000000000000000000000000000000000006064820152608401610bec565b610cb4838383612c0e565b6000611261836119d4565b82106112ef576040517f08c379a000000000000000000000000000000000000000000000000000000000815260206004820152602b60248201527f455243373231456e756d657261626c653a206f776e657220696e646578206f7560448201527f74206f6620626f756e64730000000000000000000000000000000000000000006064820152608401610bec565b5073ffffffffffffffffffffffffffffffffffffffff919091166000908152600660209081526040808320938352929052205490565b610cb483838360405180602001604052806000815250611db7565b60008173ffffffffffffffffffffffffffffffffffffffff1661136284611738565b73ffffffffffffffffffffffffffffffffffffffff16148061141a5750600083815260146020908152604080832073ffffffffffffffffffffffffffffffffffffffff8616845290915290205460ff16801561141a57506000838152601360209081526040808320546014835281842073ffffffffffffffffffffffffffffffffffffffff871685529092529091205461010090047effffffffffffffffffffffffffffffffffffffffffffffffffffffffffffff16115b9392505050565b600061142c60085490565b82106114ba576040517f08c379a000000000000000000000000000000000000000000000000000000000815260206004820152602c60248201527f455243373231456e756d657261626c653a20676c6f62616c20696e646578206f60448201527f7574206f6620626f756e647300000000000000000000000000000000000000006064820152608401610bec565b600882815481106114cd576114cd61444f565b90600052602060002001549050919050565b60006114e9612887565b9050600b54811461161957600b54811160008161151657600b5461151190610e0f8582614410565b611527565b600b5461152790610e0f8186614410565b9050600061159f82600c54601560009054906101000a900473ffffffffffffffffffffffffffffffffffffffff1673ffffffffffffffffffffffffffffffffffffffff166318160ddd6040518163ffffffff1660e01b8152600401602060405180830381865afa158015610ea3573d6000803e3d6000fd5b9050826115c35780600c60008282546115b89190614410565b9250508190556115dc565b80600c60008282546115d5919061443c565b9250508190555b50600b8490556040518181527fa3e5fc7a6648da6157201f1e26fcbbfeee8088fb7914fb85edf2056040c234c59060200160405180910390a15050505b6729a2241af62c000061162b84612f16565b10611662576040517f05e666e800000000000000000000000000000000000000000000000000000000815260040160405180910390fd5b6116748361166f34612f72565b612a9c565b506729a2241af62c000061168784612f16565b10156116bf576040517f40da557a00000000000000000000000000000000000000000000000000000000815260040160405180910390fd5b60006116ca84611738565b90506116d7818486612c0e565b838373ffffffffffffffffffffffffffffffffffffffff168273ffffffffffffffffffffffffffffffffffffffff167fde0aa27286f5cb3a4ed853dc4823ead62d63e92cdf13de09d6aece56970721a460405160405180910390a450505050565b60008181526002602052604081205473ffffffffffffffffffffffffffffffffffffffff1680610a5c576040517f08c379a000000000000000000000000000000000000000000000000000000000815260206004820152601860248201527f4552433732313a20696e76616c696420746f6b656e20494400000000000000006044820152606401610bec565b6000806117cf612887565b9050600b5481146118ff57600b5481116000816117fc57600b546117f790610e0f8582614410565b61180d565b600b5461180d90610e0f8186614410565b9050600061188582600c54601560009054906101000a900473ffffffffffffffffffffffffffffffffffffffff1673ffffffffffffffffffffffffffffffffffffffff166318160ddd6040518163ffffffff1660e01b8152600401602060405180830381865afa158015610ea3573d6000803e3d6000fd5b9050826118a95780600c600082825461189e9190614410565b9250508190556118c2565b80600c60008282546118bb919061443c565b9250508190555b50600b8490556040518181527fa3e5fc7a6648da6157201f1e26fcbbfeee8088fb7914fb85edf2056040c234c59060200160405180910390a15050505b6106a4600f60008154611911906143d8565b9182905550111561194e576040517ff7e5317900000000000000000000000000000000000000000000000000000000815260040160405180910390fd5b600061195984612826565b90506000611966826129dc565b90507f000000000000000000000000000000000000000000000000000000000000000061199282612f91565b10156119ca576040517fadde1af400000000000000000000000000000000000000000000000000000000815260040160405180910390fd5b5091505b50919050565b600073ffffffffffffffffffffffffffffffffffffffff8216611a79576040517f08c379a000000000000000000000000000000000000000000000000000000000815260206004820152602960248201527f4552433732313a2061646472657373207a65726f206973206e6f74206120766160448201527f6c6964206f776e657200000000000000000000000000000000000000000000006064820152608401610bec565b5073ffffffffffffffffffffffffffffffffffffffff1660009081526003602052604090205490565b8133611aad82611738565b73ffffffffffffffffffffffffffffffffffffffff1614611afa576040517f30cd747100000000000000000000000000000000000000000000000000000000815260040160405180910390fd5b604080518082018252600181527effffffffffffffffffffffffffffffffffffffffffffffffffffffffffffff438116602080840191825260008881526014825285812073ffffffffffffffffffffffffffffffffffffffff89168083529252858120945192519093166101000291151560ff16919091179092559151909185917f13b0d5f348cbb4d844b91093c270d22f8eb5c4ab9b73ebd7fe352e4d557f423a9190a3505050565b606060018054610a719061435c565b611bbe338383612ffc565b5050565b600083611bce60085490565b8110611c06576040517f0ff2075600000000000000000000000000000000000000000000000000000000815260040160405180910390fd5b60008581526012602052604090205485904290611c2690610e109061443c565b1115611c5e576040517f506bf1a800000000000000000000000000000000000000000000000000000000815260040160405180910390fd5b6000611c68612887565b9050600b548114611d9857600b548111600081611c9557600b54611c9090610e0f8582614410565b611ca6565b600b54611ca690610e0f8186614410565b90506000611d1e82600c54601560009054906101000a900473ffffffffffffffffffffffffffffffffffffffff1673ffffffffffffffffffffffffffffffffffffffff166318160ddd6040518163ffffffff1660e01b8152600401602060405180830381865afa158015610ea3573d6000803e3d6000fd5b905082611d425780600c6000828254611d379190614410565b925050819055611d5b565b80600c6000828254611d54919061443c565b9250508190555b50600b8490556040518181527fa3e5fc7a6648da6157201f1e26fcbbfeee8088fb7914fb85edf2056040c234c59060200160405180910390a15050505b611da287866129eb565b611dac8686613129565b979650505050505050565b611dc13383612b4f565b611e4d576040517f08c379a000000000000000000000000000000000000000000000000000000000815260206004820152602d60248201527f4552433732313a2063616c6c6572206973206e6f7420746f6b656e206f776e6560448201527f72206f7220617070726f766564000000000000000000000000000000000000006064820152608401610bec565b611e59848484846131ab565b50505050565b6060611e6a826126f8565b6000611e8160408051602081019091526000815290565b90506000815111611ea1576040518060200160405280600081525061141a565b80611eab8461324e565b604051602001611ebc92919061447e565b6040516020818303038152906040529392505050565b600083611edf8133611340565b611f15576040517f3f904dc000000000000000000000000000000000000000000000000000000000815260040160405180910390fd5b60008581526012602052604090205485904290611f3590610e109061443c565b1115611f6d576040517f506bf1a800000000000000000000000000000000000000000000000000000000815260040160405180910390fd5b6000611f77612887565b9050600b5481146120a757600b548111600081611fa457600b54611f9f90610e0f8582614410565b611fb5565b600b54611fb590610e0f8186614410565b9050600061202d82600c54601560009054906101000a900473ffffffffffffffffffffffffffffffffffffffff1673ffffffffffffffffffffffffffffffffffffffff166318160ddd6040518163ffffffff1660e01b8152600401602060405180830381865afa158015610ea3573d6000803e3d6000fd5b9050826120515780600c60008282546120469190614410565b92505081905561206a565b80600c6000828254612063919061443c565b9250508190555b50600b8490556040518181527fa3e5fc7a6648da6157201f1e26fcbbfeee8088fb7914fb85edf2056040c234c59060200160405180910390a15050505b611da2878661330a565b826120bc8133611340565b6120f2576040517f3f904dc000000000000000000000000000000000000000000000000000000000815260040160405180910390fd5b6000848152601260205260409020548490429061211290610e109061443c565b111561214a576040517f506bf1a800000000000000000000000000000000000000000000000000000000815260040160405180910390fd5b6000612154612887565b9050600b54811461228457600b54811160008161218157600b5461217c90610e0f8582614410565b612192565b600b5461219290610e0f8186614410565b9050600061220a82600c54601560009054906101000a900473ffffffffffffffffffffffffffffffffffffffff1673ffffffffffffffffffffffffffffffffffffffff166318160ddd6040518163ffffffff1660e01b8152600401602060405180830381865afa158015610ea3573d6000803e3d6000fd5b90508261222e5780600c60008282546122239190614410565b925050819055612247565b80600c6000828254612240919061443c565b9250508190555b50600b8490556040518181527fa3e5fc7a6648da6157201f1e26fcbbfeee8088fb7914fb85edf2056040c234c59060200160405180910390a15050505b600086815260116020526040812080548692906122a290849061443c565b909155506122b29050868561330a565b6015546040517f40c10f1900000000000000000000000000000000000000000000000000000000815273ffffffffffffffffffffffffffffffffffffffff878116600483015260248201879052909116906340c10f1990604401600060405180830381600087803b15801561232657600080fd5b505af115801561233a573d6000803e3d6000fd5b505050508473ffffffffffffffffffffffffffffffffffffffff16867fcf7d23a3cbe4e8b36ff82fd1b05b1b17373dc7804b4ebbd6e2356716ef2023728660405161238791815260200190565b60405180910390a3505050505050565b600a5473ffffffffffffffffffffffffffffffffffffffff163314612418576040517f08c379a000000000000000000000000000000000000000000000000000000000815260206004820152600c60248201527f554e415554484f52495a454400000000000000000000000000000000000000006044820152606401610bec565b600a80547fffffffffffffffffffffffff00000000000000000000000000000000000000001673ffffffffffffffffffffffffffffffffffffffff831690811790915560405133907f8be0079c531659141344cd1fd0a4f28419497f9722a3daafe3b4186f6b6457e090600090a350565b826124948133611340565b6124ca576040517f3f904dc000000000000000000000000000000000000000000000000000000000815260040160405180910390fd5b826124d460085490565b811061250c576040517f0ff2075600000000000000000000000000000000000000000000000000000000815260040160405180910390fd5b6000858152601060205260408120805485929061252a908490614410565b90915550506000848152601060205260408120805485929061254d90849061443c565b9091555050604051838152849086907fce3d3fafbbd45785e532e48d0aab11c79b02c84a8d4dd49e8ea96fdc320c0d719060200160405180910390a35050505050565b600061141a8383670de0b6b3a764000061346c565b600080821215612611576040517f08c379a000000000000000000000000000000000000000000000000000000000815260206004820181905260248201527f53616665436173743a2076616c7565206d75737420626520706f7369746976656044820152606401610bec565b5090565b60007fffffffff0000000000000000000000000000000000000000000000000000000082167f80ac58cd0000000000000000000000000000000000000000000000000000000014806126a857507fffffffff0000000000000000000000000000000000000000000000000000000082167f5b5e139f00000000000000000000000000000000000000000000000000000000145b80610a5c57507f01ffc9a7000000000000000000000000000000000000000000000000000000007fffffffff00000000000000000000000000000000000000000000000000000000831614610a5c565b60008181526002602052604090205473ffffffffffffffffffffffffffffffffffffffff16612783576040517f08c379a000000000000000000000000000000000000000000000000000000000815260206004820152601860248201527f4552433732313a20696e76616c696420746f6b656e20494400000000000000006044820152606401610bec565b50565b600081815260046020526040902080547fffffffffffffffffffffffff00000000000000000000000000000000000000001673ffffffffffffffffffffffffffffffffffffffff841690811790915581906127e082611738565b73ffffffffffffffffffffffffffffffffffffffff167f8c5be1e5ebec7d5bd14f71427d1e84f3dd0314c0f7b2291e5b200ac8c7c3b92560405160405180910390a45050565b60008061283260085490565b905061283e83826134a8565b604051819073ffffffffffffffffffffffffffffffffffffffff8516907f30385c845b448a36257a6a1716e6ad2e1bc2cbe333cde1e69fe849ad6511adfe90600090a392915050565b6000806000806000601660009054906101000a900473ffffffffffffffffffffffffffffffffffffffff1673ffffffffffffffffffffffffffffffffffffffff1663feaf968c6040518163ffffffff1660e01b815260040160a060405180830381865afa1580156128fc573d6000803e3d6000fd5b505050506040513d601f19601f8201168201806040525081019061292091906144c7565b94509450509350935081600003612963576040517f8ad52bdd00000000000000000000000000000000000000000000000000000000815260040160405180910390fd5b8369ffffffffffffffffffff168169ffffffffffffffffffff1610156129b5576040517f6ead710b00000000000000000000000000000000000000000000000000000000815260040160405180910390fd5b6129be836125a5565b94505050505090565b600061141a83670de0b6b3a76400008461346c565b6000610a5c8261166f34612f72565b60008281526011602052604081208054839290612a09908490614410565b90915550506015546040517f9dc29fac0000000000000000000000000000000000000000000000000000000081523360048201526024810183905273ffffffffffffffffffffffffffffffffffffffff90911690639dc29fac90604401600060405180830381600087803b158015612a8057600080fd5b505af1158015612a94573d6000803e3d6000fd5b505050505050565b600082815260126020526040812042905580612ab7836134c2565b905080601060008681526020019081526020016000206000828254612adc919061443c565b9250508190555080600d6000828254612af5919061443c565b9250508190555082600c6000828254612b0e919061443c565b909155505060405181815284907fd822787006f6794403d16891b4a593a2085bdc9fc3d768f12f0b13843fdaa59b9060200160405180910390a29392505050565b600080612b5b83611738565b90508073ffffffffffffffffffffffffffffffffffffffff168473ffffffffffffffffffffffffffffffffffffffff161480612bc9575073ffffffffffffffffffffffffffffffffffffffff80821660009081526005602090815260408083209388168352929052205460ff165b80610f5a57508373ffffffffffffffffffffffffffffffffffffffff16612bef84610af4565b73ffffffffffffffffffffffffffffffffffffffff1614949350505050565b8273ffffffffffffffffffffffffffffffffffffffff16612c2e82611738565b73ffffffffffffffffffffffffffffffffffffffff1614612cd1576040517f08c379a000000000000000000000000000000000000000000000000000000000815260206004820152602560248201527f4552433732313a207472616e736665722066726f6d20696e636f72726563742060448201527f6f776e65720000000000000000000000000000000000000000000000000000006064820152608401610bec565b73ffffffffffffffffffffffffffffffffffffffff8216612d73576040517f08c379a0000000000000000000000000000000000000000000000000000000008152602060048201526024808201527f4552433732313a207472616e7366657220746f20746865207a65726f2061646460448201527f72657373000000000000000000000000000000000000000000000000000000006064820152608401610bec565b612d80838383600161352b565b8273ffffffffffffffffffffffffffffffffffffffff16612da082611738565b73ffffffffffffffffffffffffffffffffffffffff1614612e43576040517f08c379a000000000000000000000000000000000000000000000000000000000815260206004820152602560248201527f4552433732313a207472616e736665722066726f6d20696e636f72726563742060448201527f6f776e65720000000000000000000000000000000000000000000000000000006064820152608401610bec565b600081815260046020908152604080832080547fffffffffffffffffffffffff000000000000000000000000000000000000000090811690915573ffffffffffffffffffffffffffffffffffffffff8781168086526003855283862080547fffffffffffffffffffffffffffffffffffffffffffffffffffffffffffffffff01905590871680865283862080546001019055868652600290945282852080549092168417909155905184937fddf252ad1be2c89b69c2b068fc378daa952ba7f163c4a11628f55a4df523b3ef91a4505050565b600081815260116020526040812054808203612f5457507fffffffffffffffffffffffffffffffffffffffffffffffffffffffffffffffff92915050565b60008381526010602052604090205461141a908290610e0f90612f91565b60006305f5e100600b5483612f879190614517565b610a5c919061452e565b600d54600090808203612fa5575090919050565b6000612fc0600c54600d548661346c9092919063ffffffff16565b90508060000361141a576040517f56316e8700000000000000000000000000000000000000000000000000000000815260040160405180910390fd5b8173ffffffffffffffffffffffffffffffffffffffff168373ffffffffffffffffffffffffffffffffffffffff1603613091576040517f08c379a000000000000000000000000000000000000000000000000000000000815260206004820152601960248201527f4552433732313a20617070726f766520746f2063616c6c6572000000000000006044820152606401610bec565b73ffffffffffffffffffffffffffffffffffffffff83811660008181526005602090815260408083209487168084529482529182902080547fffffffffffffffffffffffffffffffffffffffffffffffffffffffffffffff001686151590811790915591519182527f17307eab39ab6107e8899845ad3d59bd9653f200f220920489ca2b5937696c31910160405180910390a3505050565b6000806131358361354d565b604080518581526020810183905291925073ffffffffffffffffffffffffffffffffffffffff86169133917f9bcd01273db9e6cb09d97dc078fdda04f3812029365f21e09e2d77c4600f98f9910160405180910390a361141a73ffffffffffffffffffffffffffffffffffffffff851682613561565b6131b6848484612c0e565b6131c2848484846135d6565b611e59576040517f08c379a000000000000000000000000000000000000000000000000000000000815260206004820152603260248201527f4552433732313a207472616e7366657220746f206e6f6e20455243373231526560448201527f63656976657220696d706c656d656e74657200000000000000000000000000006064820152608401610bec565b6060600061325b836137c9565b600101905060008167ffffffffffffffff81111561327b5761327b6141dd565b6040519080825280601f01601f1916602001820160405280156132a5576020820181803683370190505b5090508181016020015b7fffffffffffffffffffffffffffffffffffffffffffffffffffffffffffffffff017f3031323334353637383961626364656600000000000000000000000000000000600a86061a8153600a8504945084156119ca576132af565b6000613315826134c2565b90508060106000858152602001908152602001600020600082825461333a9190614410565b9250508190555080600d60008282546133539190614410565b9250508190555081600c600082825461336c9190614410565b90915550506000838152601060205260409020547f0000000000000000000000000000000000000000000000000000000000000000906133ab90612f91565b10156133e3576040517fadde1af400000000000000000000000000000000000000000000000000000000815260040160405180910390fd5b6729a2241af62c00006133f584612f16565b101561342d576040517f40da557a00000000000000000000000000000000000000000000000000000000815260040160405180910390fd5b827fca218b4efa07eff2a8f860403dd787551bafb4a1d9c190db2f393a70fc506c248260405161345f91815260200190565b60405180910390a2505050565b6000827fffffffffffffffffffffffffffffffffffffffffffffffffffffffffffffffff04841183021582026134a157600080fd5b5091020490565b611bbe8282604051806020016040528060008152506138ab565b600d546000908082036134d6575090919050565b60006134ef82600c548661346c9092919063ffffffff16565b90508060000361141a576040517f9811e0c700000000000000000000000000000000000000000000000000000000815260040160405180910390fd5b6135378484848461394e565b5060009081526013602052604090204390555050565b600b54600090612f87836305f5e100614517565b600080600080600085875af1905080610cb4576040517f08c379a000000000000000000000000000000000000000000000000000000000815260206004820152601360248201527f4554485f5452414e534645525f4641494c4544000000000000000000000000006044820152606401610bec565b600073ffffffffffffffffffffffffffffffffffffffff84163b156137be576040517f150b7a0200000000000000000000000000000000000000000000000000000000815273ffffffffffffffffffffffffffffffffffffffff85169063150b7a029061364d903390899088908890600401614569565b6020604051808303816000875af19250505080156136a6575060408051601f3d9081017fffffffffffffffffffffffffffffffffffffffffffffffffffffffffffffffe01682019092526136a3918101906145b2565b60015b613773573d8080156136d4576040519150601f19603f3d011682016040523d82523d6000602084013e6136d9565b606091505b50805160000361376b576040517f08c379a000000000000000000000000000000000000000000000000000000000815260206004820152603260248201527f4552433732313a207472616e7366657220746f206e6f6e20455243373231526560448201527f63656976657220696d706c656d656e74657200000000000000000000000000006064820152608401610bec565b805181602001fd5b7fffffffff00000000000000000000000000000000000000000000000000000000167f150b7a0200000000000000000000000000000000000000000000000000000000149050610f5a565b506001949350505050565b6000807a184f03e93ff9f4daa797ed6e38ed64bf6a1f0100000000000000008310613812577a184f03e93ff9f4daa797ed6e38ed64bf6a1f010000000000000000830492506040015b6d04ee2d6d415b85acef8100000000831061383e576d04ee2d6d415b85acef8100000000830492506020015b662386f26fc10000831061385c57662386f26fc10000830492506010015b6305f5e1008310613874576305f5e100830492506008015b612710831061388857612710830492506004015b6064831061389a576064830492506002015b600a8310610a5c5760010192915050565b6138b58383613afe565b6138c260008484846135d6565b610cb4576040517f08c379a000000000000000000000000000000000000000000000000000000000815260206004820152603260248201527f4552433732313a207472616e7366657220746f206e6f6e20455243373231526560448201527f63656976657220696d706c656d656e74657200000000000000000000000000006064820152608401610bec565b61395a84848484613d31565b60018111156139eb576040517f08c379a000000000000000000000000000000000000000000000000000000000815260206004820152603560248201527f455243373231456e756d657261626c653a20636f6e736563757469766520747260448201527f616e7366657273206e6f7420737570706f7274656400000000000000000000006064820152608401610bec565b8173ffffffffffffffffffffffffffffffffffffffff8516613a5457613a4f81600880546000838152600960205260408120829055600182018355919091527ff3f7a9fe364faab93b216da50a3214154f22a0a2b415b23a84c8169e8b636ee30155565b613a91565b8373ffffffffffffffffffffffffffffffffffffffff168573ffffffffffffffffffffffffffffffffffffffff1614613a9157613a918582613ded565b73ffffffffffffffffffffffffffffffffffffffff8416613aba57613ab581613ea4565b613af7565b8473ffffffffffffffffffffffffffffffffffffffff168473ffffffffffffffffffffffffffffffffffffffff1614613af757613af78482613f53565b5050505050565b73ffffffffffffffffffffffffffffffffffffffff8216613b7b576040517f08c379a000000000000000000000000000000000000000000000000000000000815260206004820181905260248201527f4552433732313a206d696e7420746f20746865207a65726f20616464726573736044820152606401610bec565b60008181526002602052604090205473ffffffffffffffffffffffffffffffffffffffff1615613c07576040517f08c379a000000000000000000000000000000000000000000000000000000000815260206004820152601c60248201527f4552433732313a20746f6b656e20616c7265616479206d696e746564000000006044820152606401610bec565b613c1560008383600161352b565b60008181526002602052604090205473ffffffffffffffffffffffffffffffffffffffff1615613ca1576040517f08c379a000000000000000000000000000000000000000000000000000000000815260206004820152601c60248201527f4552433732313a20746f6b656e20616c7265616479206d696e746564000000006044820152606401610bec565b73ffffffffffffffffffffffffffffffffffffffff8216600081815260036020908152604080832080546001019055848352600290915280822080547fffffffffffffffffffffffff0000000000000000000000000000000000000000168417905551839291907fddf252ad1be2c89b69c2b068fc378daa952ba7f163c4a11628f55a4df523b3ef908290a45050565b6001811115611e595773ffffffffffffffffffffffffffffffffffffffff841615613d915773ffffffffffffffffffffffffffffffffffffffff841660009081526003602052604081208054839290613d8b908490614410565b90915550505b73ffffffffffffffffffffffffffffffffffffffff831615611e595773ffffffffffffffffffffffffffffffffffffffff831660009081526003602052604081208054839290613de290849061443c565b909155505050505050565b60006001613dfa846119d4565b613e049190614410565b600083815260076020526040902054909150808214613e645773ffffffffffffffffffffffffffffffffffffffff841660009081526006602090815260408083208584528252808320548484528184208190558352600790915290208190555b50600091825260076020908152604080842084905573ffffffffffffffffffffffffffffffffffffffff9094168352600681528383209183525290812055565b600854600090613eb690600190614410565b60008381526009602052604081205460088054939450909284908110613ede57613ede61444f565b906000526020600020015490508060088381548110613eff57613eff61444f565b6000918252602080832090910192909255828152600990915260408082208490558582528120556008805480613f3757613f376145cf565b6001900381819060005260206000200160009055905550505050565b6000613f5e836119d4565b73ffffffffffffffffffffffffffffffffffffffff9093166000908152600660209081526040808320868452825280832085905593825260079052919091209190915550565b7fffffffff000000000000000000000000000000000000000000000000000000008116811461278357600080fd5b600060208284031215613fe457600080fd5b813561141a81613fa4565b60005b8381101561400a578181015183820152602001613ff2565b50506000910152565b6000815180845261402b816020860160208601613fef565b601f017fffffffffffffffffffffffffffffffffffffffffffffffffffffffffffffffe0169290920160200192915050565b60208152600061141a6020830184614013565b60006020828403121561408257600080fd5b5035919050565b803573ffffffffffffffffffffffffffffffffffffffff81168114610d9557600080fd5b600080604083850312156140c057600080fd5b6140c983614089565b946020939093013593505050565b6000602082840312156140e957600080fd5b61141a82614089565b6000806040838503121561410557600080fd5b50508035926020909101359150565b6000806040838503121561412757600080fd5b8235915061413760208401614089565b90509250929050565b60008060006060848603121561415557600080fd5b61415e84614089565b925061416c60208501614089565b9150604084013590509250925092565b6000806040838503121561418f57600080fd5b61419883614089565b9150602083013580151581146141ad57600080fd5b809150509250929050565b6000806000606084860312156141cd57600080fd5b8335925061416c60208501614089565b7f4e487b7100000000000000000000000000000000000000000000000000000000600052604160045260246000fd5b6000806000806080858703121561422257600080fd5b61422b85614089565b935061423960208601614089565b925060408501359150606085013567ffffffffffffffff8082111561425d57600080fd5b818701915087601f83011261427157600080fd5b813581811115614283576142836141dd565b604051601f82017fffffffffffffffffffffffffffffffffffffffffffffffffffffffffffffffe0908116603f011681019083821181831017156142c9576142c96141dd565b816040528281528a60208487010111156142e257600080fd5b82602086016020830137600060208483010152809550505050505092959194509250565b6000806040838503121561431957600080fd5b61432283614089565b915061413760208401614089565b60008060006060848603121561434557600080fd5b505081359360208301359350604090920135919050565b600181811c9082168061437057607f821691505b6020821081036119ce577f4e487b7100000000000000000000000000000000000000000000000000000000600052602260045260246000fd5b7f4e487b7100000000000000000000000000000000000000000000000000000000600052601160045260246000fd5b60007fffffffffffffffffffffffffffffffffffffffffffffffffffffffffffffffff8203614409576144096143a9565b5060010190565b81810381811115610a5c57610a5c6143a9565b60006020828403121561443557600080fd5b5051919050565b80820180821115610a5c57610a5c6143a9565b7f4e487b7100000000000000000000000000000000000000000000000000000000600052603260045260246000fd5b60008351614490818460208801613fef565b8351908301906144a4818360208801613fef565b01949350505050565b805169ffffffffffffffffffff81168114610d9557600080fd5b600080600080600060a086880312156144df57600080fd5b6144e8866144ad565b945060208601519350604086015192506060860151915061450b608087016144ad565b90509295509295909350565b8082028115828204841417610a5c57610a5c6143a9565b600082614564577f4e487b7100000000000000000000000000000000000000000000000000000000600052601260045260246000fd5b500490565b600073ffffffffffffffffffffffffffffffffffffffff8087168352808616602084015250836040830152608060608301526145a86080830184614013565b9695505050505050565b6000602082840312156145c457600080fd5b815161141a81613fa4565b7f4e487b7100000000000000000000000000000000000000000000000000000000600052603160045260246000fdfea2646970667358221220f4665f6a9572f3ef80ad8267ab1af96e003b4f1a7afcc19ba7dd96372a6ca02164736f6c63430008110033",
    "linkReferences": {}
  },
  "methodIdentifiers": {
    "INSIDER_MINTS()": "21157246",
    "MIN_COLLATERIZATION_RATIO()": "35f2faf0",
    "MIN_DYAD_DEPOSIT()": "50290d18",
    "MIN_MINT_DYAD_DEPOSIT()": "397b8024",
    "PUBLIC_MINTS()": "1bb85b4f",
    "TIMEOUT()": "f56f48f2",
    "_mint(address)": "09aa7b67",
    "approve(address,uint256)": "095ea7b3",
    "balanceOf(address)": "70a08231",
    "depositDyad(uint256,uint256)": "114e84d0",
    "depositEth(uint256)": "0f4d14e9",
    "dyad()": "add95a51",
    "ethPrice()": "ff186b2e",
    "getApproved(uint256)": "081812fc",
    "grant(uint256,address)": "887d7c3e",
    "hasPermission(uint256,address)": "4cf15858",
    "id2lastDeposit(uint256)": "16fa0360",
    "id2lastOwnershipChange(uint256)": "b3c6fb9c",
    "id2permission(uint256,address)": "99976134",
    "id2shares(uint256)": "346a34d9",
    "id2withdrawn(uint256)": "97d6be93",
    "insiderMints()": "279e4a63",
    "isApprovedForAll(address,address)": "e985e9c5",
    "liquidate(uint256,address)": "5fae8b3d",
    "mint(address)": "6a627842",
    "move(uint256,uint256,uint256)": "fa7c9bcf",
    "name()": "06fdde03",
    "oracle()": "7dc0d1d0",
    "owner()": "8da5cb5b",
    "ownerOf(uint256)": "6352211e",
    "publicMints()": "2336296a",
    "redeemDeposit(uint256,address,uint256)": "e1e7c5fe",
    "redeemDyad(uint256,address,uint256)": "a4d235f1",
    "revoke(uint256,address)": "20d154da",
    "safeTransferFrom(address,address,uint256)": "42842e0e",
    "safeTransferFrom(address,address,uint256,bytes)": "b88d4fde",
    "setApprovalForAll(address,bool)": "a22cb465",
    "supportsInterface(bytes4)": "01ffc9a7",
    "symbol()": "95d89b41",
    "tokenByIndex(uint256)": "4f6ccce7",
    "tokenOfOwnerByIndex(address,uint256)": "2f745c59",
    "tokenURI(uint256)": "c87b56dd",
    "totalDeposit()": "f6153ccd",
    "totalShares()": "3a98ef39",
    "totalSupply()": "18160ddd",
    "transferFrom(address,address,uint256)": "23b872dd",
    "transferOwnership(address)": "f2fde38b",
    "withdraw(uint256,address,uint256)": "e63697c8"
  },
  "id": 38
}